S014000054656D705F50726F6A6563742E7372656344
S1130000C2C00000E0C00000DEC00000DCC0000090
S1130010DAC00000D8C00000D6C00000D4C0000080
S1130020D2C00000D0C00000CEC00000CCC0000090
S113003014C20000C8C00000C6C00000C4C0000054
S1130040C2C00000C0C00000BEC00000BCC00000B0
S1130050BAC00000B8C00000B6C00000B4C00000C0
S1130060B2C00000EDC500003DC60000ACC00000F9
S1130070AAC00000A8C00000A6C00000A4C00000E0
S1130080A2C00000A0C000009EC000009CC00000F0
S11300906DC60000BDC6000096C000000C94A00907
S11300A092C0000090C000008EC000008CC0000010
S11300B08AC0000088C0000086C0000084C0000020
S11300C082C0000080C000007EC00000E5C60000C1
S11300D035C7000078C0000075C70000C5C7000020
S11300E072C00000C209320A320A320A320A320AE3
S11300F0320A320AC209320A320A320A320A320A8D
S1130100320A320AC409320A320A320A320A320A7A
S1130110320A320A320A320A320A320A320A320AFB
S1130120320A320AC409320A320A320A320A320A5A
S1130130320A320A320A320A320A320A320A320ADB
S1130140320A320A2E0A320A320A320A320A320ACF
S1130150320A320AF909320A320A320A320A320AF5
S1130160320A320A320A320A320A320A320A320AAB
S1130170320A320AED09320A320A320A320A320AE1
S1130180320A320A110A11241FBECFEFD1E2DEBFB8
S1130190CDBF00E00CBF12E0A0E0B2E0E4E9F1E280
S11301A000E00BBF02C007900D92A03CB107D9F745
S11301B023E0A0ECB2E001C01D92A632B207E1F741
S11301C01ED00C94C8101CCF90931B0380931A0369
S11301D0089564EE70E083E0AFC30895DBD3882311
S11301E041F08EE492E09F938F930E94D80D0F907C
S11301F00F90089580911A0390911B03089580E055
S113020095D778948EE592E09F938F930E94D80DB2
S11302103CD0DFDF0F900F900F2EF6E6EF2EF2E0CA
S1130220FF2EF02D06E712E0C9E8D2E036D058D010
S1130230982E892E53D0B82EA92ED0DFDBDFD82EEE
S1130240C92E8F929F92FF92EF920E94D80DAF9287
S1130250BF921F930F930E94D80DCF92DF92DF932A
S1130260CF930E94D80D9FEF23ED80E3915020405F
S11302708040E1F700C000008DB79EB70C960FB622
S1130280F8949EBF0FBE8DBFD1CF85D2811104C01B
S113029084E992E00C94EB0D089594D2882321F024
S11302A083EA92E00E94EB0D2FEF80E792E0215069
S11302B080409040E1F700C0000098D2882321F0EC
S11302C080EB92E00E94EB0D2FEF80E792E021504B
S11302D080409040E1F700C000000895C9C208952D
S11302E0A7C20895E8E0F1E09081907F9083908127
S11302F08F70982B90830895E8E0F1E08081807FEF
S113030080830895CF93DF939C01FB01DC01119658
S1130310CD91DC911297D383C2838C819D81958387
S113032084838C819D81DC0113967C936E93129758
S11303307D836C8331872087F90180818F5F80837F
S1130340DF91CF910895CF93DF93FC01A085B18510
S1130350C281D381848195819D838C83C481D5811D
S1130360828193819B838A8311968D919C911297AC
S1130370E817F90731F48481958112969C938E9342
S11303801197118610868C9181508C938C91DF91FA
S1130390CF9108950F920FB6F8940F920BB60F9267
S11303A00CB60F921F9211242F923F924F925F929C
S11303B06F927F928F929F92AF92BF92CF92DF9271
S11303C0EF92FF920F931F932F933F934F935F935B
S11303D06F937F938F939F93AF93BF93CF93DF9349
S11303E0EF93FF93A091F102B091F2020DB60D923A
S11303F00EB60D9213BE52D0811107D1A091F10215
S1130400B091F202CD91CDBFDD91DEBFFF91EF91AE
S1130410DF91CF91BF91AF919F918F917F916F9118
S11304205F914F913F912F911F910F91FF90EF900A
S1130430DF90CF90BF90AF909F908F907F906F9000
S11304405F904F903F902F901F900F900CBE0F9095
S11304500BBE0F900FBE0F9008959CDF1895E0918E
S1130460CB02F091CC028081811107C08FEF9FEF06
S11304709093C2028093C1020895E091CB02F0915F
S1130480CC020580F681E02D0680F781E02D828183
S113049093819093C2028093C1020895CF92DF9218
S11304A0EF92FF920F931F93CF93DF938091C0023B
S11304B0811195C0E090C702F090C8028FEFE81A4E
S11304C0F80AF092C802E092C702E114F104B1F410
S11304D08091CB029091CC022091C9023091CA0242
S11304E03093CC022093CB029093CA028093C9022A
S11304F08091C3028F5F8093C302B1DF8091C102F8
S11305009091C202E816F90610F4D12C50C0D12CF7
S1130510CC24C394E091CB02F091CC028081811170
S113052007C08FEF9FEF9093C2028093C1023FC038
S1130530E091CB02F091CC020580F681E02DC681DA
S1130540D7818A819B81E816F90628F49093C20228
S11305508093C1022CC08E010E5F1F4FC801F3DED1
S11305608C899D89892B19F0CE010C96ECDE8E893D
S11305709091C602981710F48093C60290E09C01F3
S1130580220F331F220F331F220F331F820F931F9B
S1130590B80183539D4FB6DEE091F102F091F2026F
S11305A09E898689981708F4B5CFDC2CB3CFE091E7
S11305B0F102F091F202868990E0FC01EE0FFF1F38
S11305C0EE0FFF1FEE0FFF1F8E0F9F1FFC01E35363
S11305D0FD4F8081823048F0DD24D39406C08091A1
S11305E0C5028F5F8093C502D12C8091C4028823F9
S11305F011F0DD24D3948D2DDF91CF911F910F91B4
S1130600FF90EF90DF90CF9008958091C0028823EF
S113061021F081E08093C40208951092C402E09115
S1130620F102F091F20285A167DEA091F102B0918E
S1130630F202E091F102F091F2022D913C9187894E
S1130640908D8217930758F06091F1027091F20235
S11306508091F1029091F202675E7F4F62D0209107
S1130660C602822F90E0FC01EE0FFF1FEE0FFF1F6A
S1130670EE0FFF1FE80FF91FE353FD4F30813111D7
S113068011C02150822F90E0FC01EE0FFF1FEE0FEE
S1130690FF1FEE0FFF1FE80FF91FE353FD4F3081DB
S11306A0332379F3AC01440F551F440F551F440FF6
S11306B0551F480F591FDA01A353BD4F1196ED91F1
S11306C0FC9112970280F381E02D1296FC93EE9335
S11306D0119740535D4FE417F50729F44281538184
S11306E0FD0152834183FC01EE0FFF1FEE0FFF1F3C
S11306F0EE0FFF1F8E0F9F1FFC01E353FD4F018080
S1130700F281E02D868197819093F2028093F10229
S11307102093C602E091F102F091F20285A1E2CDAC
S11307200895279A2F9A2FEF87EA91E62150804067
S11307309040E1F700C000001F9AF5CF6530F1F456
S1130740FA0180818F7390E0982F88272181822B72
S113075090930902809308028281F0E48F9FC00184
S11307601124FA01238126952695822B9093070262
S11307708093060281E08093F3020895643051F07F
S113078080E090E49093070280930602909309021C
S11307908093080208950F931F930EE913E020E05D
S11307A034E244EF50E060E087E2FAD49093F5023B
S11307B08093F40221E0892B09F020E0822F1F911D
S11307C00F9108958091F4029091F502009751F0F1
S11307D040E060E070E035D5843031F41092F302EB
S11307E080E0089582E0089583E008958091F40202
S11307F09091F502009731F064E06FD5853021F0D7
S113080083E0089582E0089580E0089560910802ED
S11308107091090280E090E06AD720E030E048EC73
S113082052E4F3D720E038EF4FE756E4C7C6089503
S1130830EDDF20E030E040E251E4E7D72CD7CB01F4
S11308400895609106027091070280E090E04FD70E
S113085020E030E045E253E4D8D720E038EF4FE71A
S113086056E4ACD620E030E040E252E442C60895BB
S1130870E8DF20E030E040E251E4C7D707D7CB01FE
S113088008958091F902860F8093F9029091FC02F9
S1130890913079F028F09230A9F0933019F108954D
S11308A06F3F09F048C01092F90281E08093FC0286
S11308B00895663809F03FC01092F80282E08093F0
S11308C0FC020895E091F80281E08E0F8093F80213
S11308D0F0E0EA50FD4F6083823069F583E0809355
S11308E0FC0208959091F80221E0290F2093F80268
S11308F0963009F581110EC0E6EFF2E0808190E0B8
S1130900982F88272181820F911D9093FE02809356
S1130910FD0204C01092FE021092FD021092FC022D
S1130920E091FA02F091FB02309729F08091FD02E8
S11309309091FE02199508958F929F92AF92CF9253
S1130940EF920F93CF93DF93EB010F2EF1E48F2EF1
S1130950F4E09F2EF02D6894AA24A4F86894CC2483
S1130960C4F8E12C00E023E040E855E260E070E0E8
S113097040D0909300038093FF02D093FB02C09376
S1130980FA02DF91CF910F91EF90CF90AF909F90AB
S11309908F900895CF93DF93CDB7DEB729970FB625
S11309A0F894DEBF0FBECDBF89E0E1E2F2E09E0124
S11309B02F5F3F4FD90101900D928A95E1F7109274
S11309C0FE021092FD028091FF02909100030097B5
S11309D031F0422F532F69E0C7D080E001C082E09C
S11309E029960FB6F894DEBF0FBECDBFDF91CF912D
S11309F008952F923F924F925F926F927F928F92BF
S1130A009F92AF92CF92EF92FF920F931F93CF9347
S1130A10DF93CDB7DEB7F82E2A013B0188E090E0E2
S1130A209BD78C018F2D90E0880F991FFC01EF5FFD
S1130A30FC4F11830083FC01E65FFD4F80819181AF
S1130A40D8018D939C936C2D70E084E090E06AD77C
S1130A501C0161E070E086E090E064D77C014C2DDD
S1130A60B1012BD5F801F582E4826A2D70E084E0AF
S1130A7090E058D71C0161E070E086E090E052D726
S1130A807C014A2DB10119D5D8011396FC92EE923E
S1130A90129717969C928E921697FFB6F894ED9142
S1130AA0FC91119736978081826080838D909C9011
S1130AB0C301B2011CD620E030E040E051E4A5D6E9
S1130AC09B01AC0160E074E284E79BE477D520E00D
S1130AD030E040E85FE30DD5DED5F4013297608362
S1130AE0D801ED91FC911197359788E98083ED91B8
S1130AF0FC91349786E08083FFBEC801DF91CF91DB
S1130B001F910F91FF90EF90CF90AF909F908F9097
S1130B107F906F905F904F903F902F900895CF9368
S1130B20DF93EC01EA81FB81938182812581981B0B
S1130B30922384819817A1F0938126952923A0817B
S1130B40B181A20FB11D6C939F5F25819223938382
S1130B50E881F981359780818062808380E001C0DB
S1130B6082E0DF91CF910895EF92FF920F931F934C
S1130B70CF93DF937C01DC011296ED91FC911397E6
S1130B8093818281981B858198238481891B861790
S1130B9098F1662341F1842F952FDC016150462F93
S1130BA050E04F5F5F4F480F591FE701EA81FB8117
S1130BB0938182812581981B92238481981779F0EF
S1130BC08C91938126952923608171818B01020F79
S1130BD0111DE80188839F5F858198239383119673
S1130BE0A417B50711F7D701ED91FC9135978081D2
S1130BF08062808380E001C082E0DF91CF911F9109
S1130C000F91FF90EF900895DC011496ED91FC9103
S1130C10159793818281981789F0928185818695B1
S1130C208923A081B181A80FB11D8C91DB018C9324
S1130C309F5F85819823928380E0089583E00895DF
S1130C401F920F920FB60F9211240BB60F922F938F
S1130C503F934F935F936F937F938F939F93AF9340
S1130C60BF93CF93DF93EF93FF93A0910103B091D0
S1130C700203109711F16091C6001496ED91FC9156
S1130C801597938182812581981B922384819817DB
S1130C9061F0838126952823C081D181C20FD11DA3
S1130CA068838F5F9581892383831696ED91FC91E8
S1130CB01797309711F0CD011995FF91EF91DF91BE
S1130CC0CF91BF91AF919F918F917F916F915F91E0
S1130CD04F913F912F910F900BBE0F900FBE0F902D
S1130CE01F9018951F920F920FB60F9211240BB6F6
S1130CF00F922F938F939F93AF93BF93EF93FF9391
S1130D00E0910103F09102033097B9F00280F3817E
S1130D10E02D938182819817B1F092818581282FEB
S1130D2026952923A081B181A20FB11D2C919F5F2B
S1130D30892382832093C6000BC0E1ECF0E080811C
S1130D408F7D808305C0E1ECF0E080818F7D80831E
S1130D50FF91EF91BF91AF919F918F912F910F9040
S1130D600BBE0F900FBE0F901F9018951F920F92FD
S1130D700FB60F9211240BB60F922F933F934F93FC
S1130D805F936F937F938F939F93AF93BF93CF930F
S1130D90DF93EF93FF93A0910303B09104031097A3
S1130DA011F16091CE001496ED91FC911597938109
S1130DB082812581981B92238481981761F0838115
S1130DC026952823C081D181C20FD11D68838F5FEE
S1130DD09581892383831696ED91FC91179730971B
S1130DE011F0CD011995FF91EF91DF91CF91BF9152
S1130DF0AF919F918F917F916F915F914F913F91AF
S1130E002F910F900BBE0F900FBE0F901F9018954F
S1130E101F920F920FB60F9211240BB60F922F93BD
S1130E208F939F93AF93BF93EF93FF93E09103034B
S1130E30F09104033097B9F00280F381E02D93819F
S1130E4082819817B1F092818581282F26952923D4
S1130E50A081B181A20FB11D2C919F5F8923828350
S1130E602093CE000BC0E9ECF0E080818F7D80837D
S1130E7005C0E9ECF0E080818F7D8083FF91EF91E4
S1130E80BF91AF919F918F912F910F900BBE0F90B7
S1130E900FBE0F901F9018951F920F920FB60F92CE
S1130EA011240BB60F922F933F934F935F936F933D
S1130EB07F938F939F93AF93BF93CF93DF93EF93DE
S1130EC0FF93A0910503B0910603109711F160916F
S1130ED0D6001496ED91FC9115979381828125811A
S1130EE0981B92238481981761F083812695282387
S1130EF0C081D181C20FD11D68838F5F9581892301
S1130F0083831696ED91FC911797309711F0CD01DC
S1130F101995FF91EF91DF91CF91BF91AF919F917F
S1130F208F917F916F915F914F913F912F910F908E
S1130F300BBE0F900FBE0F901F9018951F920F922B
S1130F400FB60F9211240BB60F922F938F939F938A
S1130F50AF93BF93EF93FF93E0910503F0910603E2
S1130F603097B9F00280F381E02D93818281981744
S1130F70B1F092818581282F26952923A081B18102
S1130F80A20FB11D2C919F5F892382832093D600E9
S1130F900BC0E1EDF0E080818F7D808305C0E1ED41
S1130FA0F0E080818F7D8083FF91EF91BF91AF91BD
S1130FB09F918F912F910F900BBE0F900FBE0F90AA
S1130FC01F9018951F920F920FB60F9211240BB613
S1130FD00F922F933F934F935F936F937F938F93CE
S1130FE09F93AF93BF93CF93DF93EF93FF93A0911E
S1130FF00703B0910803109711F16091360114961C
S1131000ED91FC911597938182812581981B922300
S11310108481981761F0838126952823C081D1812A
S1131020C20FD11D68838F5F9581892383831696B0
S1131030ED91FC911797309711F0CD011995FF911F
S1131040EF91DF91CF91BF91AF919F918F917F915C
S11310506F915F914F913F912F910F900BBE0F9025
S11310600FBE0F901F9018951F920F920FB60F92FC
S113107011240BB60F922F938F939F93AF93BF932B
S1131080EF93FF93E0910703F09108033097B9F0D1
S11310900280F381E02D938182819817B1F09281CF
S11310A08581282F26952923A081B181A20FB11D06
S11310B02C919F5F89238283209336010BC0E1E347
S11310C0F1E080818F7D808305C0E1E3F1E08081E0
S11310D08F7D8083FF91EF91BF91AF919F918F910D
S11310E02F910F900BBE0F900FBE0F901F9018956D
S11310F0CF93DF931F92CDB7DEB7BE016F5F7F4FF3
S11311008091090390910A037FDD8111F6CF8981D3
S113111090E00F90DF91CF910895682F809109039B
S113112090910A03FCDC80E090E008958F929F92F6
S1131130AF92CF92EF920F93812C912C6894AA24B2
S1131140A7F86894CC24C7F8E12C00E023E040E041
S113115051EE60E070E04DDC90930A038093090344
S1131160E0E2F3E082E192E09183808393838283DF
S11311700F91EF90CF90AF909F908F9008958091B2
S1131180190381110CC08CE08093B8008FEF809319
S1131190BB0084E08093BC0081E080931903089530
S11311A0AF92BF92CF92DF92EF92FF920F931F9371
S11311B0CF93DF93A82EB62E69017A0184E090E0E4
S11311C0CBD3EC01892B61F1A88281E0B81212C063
S11311D0C701B60120EA36E841E050E079D3DA01EC
S11311E0C9014097A109B109B695A7959795879527
S11311F0898311C0C701B60120E83AE146E050E016
S113120067D3DA01C9014097A109B109B695A79539
S11312109795879589831B830A838C2F9D2F02C002
S113122080E090E0DF91CF911F910F91FF90EF90BC
S1131230DF90CF90BF90AF9008958091BC008170F3
S11312400895FF920F931F93CF93DF930097D1F1EB
S11312504A30D0F5F42E8B01EC01EFDF811136C05A
S113126080910C0390910D03C817D90741F087DFD3
S113127089818093B800D0930D03C0930C0381E05F
S11312808F0D80930E038881880F80930F03FF20B6
S113129089F0F801A0E1B3E04FEF4F0D642F70E047
S11312A0CB010196B801680F791F81918D93E617E0
S11312B0F707D9F788EF8093200285EA8093BC0072
S11312C084E005C086E003C087E001C082E0DF91CE
S11312D0CF911F910F91FF9008951F93CF93DF93A8
S11312E0009729F16B3028F5162FEC01A6DF811148
S11312F022C080910C0390910D03C817D90741F0C7
S11313003EDF89818093B800D0930D03C0930C0312
S113131010930E038881880F816080930F0388EFF8
S11313208093200285EA8093BC0085E005C086E0B6
S113133003C087E001C082E0DF91CF911F9108953F
S11313401F920F920FB60F9211240BB60F922F9388
S11313503F934F935F936F937F938F939F93AF9339
S1131360BF93EF93FF93E091B9008E2F90E0FC01BF
S11313703897E135F10508F075C08827EE58FF4F1E
S11313808F4FC8C210920B03E0910B0380910E03A0
S1131390E81770F481E08E0F80930B03F0E0E15FB7
S11313A0FC4F80818093BB0085E88093BC0072C0B1
S11313B084E98093BC0080910C0390910D03DC01BF
S11313C01296ED91FC911397309709F463C020E0D5
S11313D040E050E064E019955DC0E0910B0381E0CA
S11313E08E0F80930B038091BB00F0E0E15FFC4F14
S11313F080838091B900803411F410920B03209102
S11314000B0330E080910E0390E001972817390711
S113141024F485EC8093BC003DC085E88093BC0037
S113142039C08091BB00E0910B03F0E0E15FFC4F19
S1131430808384E98093BC0080910C0390910D0318
S1131440DC011296ED91FC911397309719F12091DC
S11314500E034FE053E065E019951CC085EA8093C4
S1131460BC0018C08091B9008093200284E080936E
S1131470BC0080910C0390910D03DC011296ED9158
S1131480FC911397309731F020E040E050E06091F8
S113149020021995FF91EF91BF91AF919F918F9188
S11314A07F916F915F914F913F912F910F900BBE60
S11314B00F900FBE0F901F901895FC01411101C0B1
S11314C06CD3842F90E09C01215031098223932313
S11314D0892B09F062D3413808F05FD3128213825A
S11314E04483440F415045837183608380E090E0DE
S11314F008955058BB27AA270ED04DC13ED130F0D5
S113150043D120F031F49F3F11F41EF433C10EF4A3
S1131510E095E7FB29C1E92F4FD180F3BA176207A1
S113152073078407950718F071F49EF567C10EF4EC
S1131530E0950B2EBA2FA02D0B01B90190010C01DF
S1131540CA01A0011124FF27591B99F0593F50F4F7
S1131550503E68F11A16F040A22F232F342F44274F
S1131560585FF3CF469537952795A795F040539547
S1131570C9F77EF41F16BA0B620B730B840BBAF017
S11315809150A1F0FF0FBB1F661F771F881FC2F782
S11315900EC0BA0F621F731F841F48F48795779596
S11315A06795B795F7959E3F08F0B3CF9395880F4D
S11315B008F09927EE0F9795879508950CD0EBC006
S11315C0E3D040F0DAD030F021F45F3F19F0CCC022
S11315D0511115C1CFC0F0D098F39923C9F3552305
S11315E0B1F3951B550BBB27AA2762177307840712
S11315F038F09F5F5F4F220F331F441FAA1FA9F3C8
S113160033D00E2E3AF0E0E830D091505040E695B9
S1131610001CCAF729D0FE2F27D0660F771F881F1A
S1131620BB1F261737074807AB07B0E809F0BB0B09
S1131630802DBF01FF2793585F4F2AF09E3F51052D
S113164068F092C0DCC05F3FECF3983EDCF3869513
S113165077956795B795F7959F5FC9F7880F911DA3
S11316609695879597F90895E1E0660F771F881F8F
S1131670BB1F621773078407BA0720F0621B730B42
S1131680840BBA0BEE1F88F7E095089504D0689494
S1131690B111B5C0089598D088F09F5790F0B92F34
S11316A09927B751A0F0D1F0660F771F881F991FB3
S11316B01AF0BA95C9F712C0B13081F09FD0B1E0E9
S11316C008959CC0672F782F8827B85F39F0B93FF9
S11316D0CCF3869577956795B395D9F73EF49095B5
S11316E08095709561957F4F8F4F9F4F0895E89433
S11316F009C097FB3EF490958095709561957F4F56
S11317008F4F9F4F9923A9F0F92F96E9BB27939503
S1131710F695879577956795B795F111F8CFFAF413
S1131720BB0F11F460FF1BC06F5F7F4F8F4F9F4F44
S113173016C0882311F096E911C0772321F09EE8A2
S1131740872F762F05C0662371F096E8862F70E008
S113175060E02AF09A95660F771F881FDAF7880FE2
S11317609695879597F9089597F99F6780E870E0B3
S113177060E008959FEF80EC089500240A94161603
S1131780170618060906089500240A94121613066B
S1131790140605060895092E0394000C11F48823F9
S11317A052F0BB0F40F4BF2B11F460FF04C06F5F15
S11317B07F4F8F4F9F4F089557FD9058440F551FEB
S11317C059F05F3F71F04795880F97FB991F61F0BF
S11317D09F3F79F087950895121613061406551F36
S11317E0F2CF4695F1DF08C0161617061806991FA2
S11317F0F1CF86957105610508940895E894BB2797
S113180066277727CB0197F908950BD0C4CFB5DFAE
S113181028F0BADF18F0952309F0A6CFABCF112436
S1131820EECFCADFA0F3959FD1F3950F50E0551F7B
S1131830629FF001729FBB27F00DB11D639FAA2721
S1131840F00DB11DAA1F649F6627B00DA11D661F70
S1131850829F2227B00DA11D621F739FB00DA11D91
S1131860621F839FA00D611D221F749F3327A00D4B
S1131870611D231F849F600D211D822F762F6A2FE7
S113188011249F5750408AF0E1F088234AF0EE0F6C
S1131890FF1FBB1F661F771F881F91505040A9F779
S11318A09E3F510570F060CFAACF5F3FECF3983EA6
S11318B0DCF3869577956795B795F795E7959F5FE0
S11318C0C1F7FE2B880F911D9695879597F908957A
S11318D0A1E21A2EAA1BBB1BFD010DC0AA1FBB1F30
S11318E0EE1FFF1FA217B307E407F50720F0A21BA2
S11318F0B30BE40BF50B661F771F881F991F1A940F
S113190069F760957095809590959B01AC01BD0138
S1131910CF010895EE0FFF1F881F8BBF0790F6912C
S1131920E02D19940F931F93CF93DF93869F80012B
S1131930879F100D969F100D1124C8010DD0EC0146
S1131940009721F0A80160E070E02BD1CE01DF9177
S1131950CF911F910F9108950F931F93CF93DF930E
S11319608230910510F482E090E0E0911E03F09142
S11319701F0320E030E0A0E0B0E0309719F140818F
S113198051810281138148175907C8F084179507BC
S113199069F4109731F012960C93129713961C93D6
S11319A027C000931E0310931F0322C02115310585
S11319B019F04217530718F49A01BD01EF01DF0132
S11319C0F801DBCF21153105F9F0281B390B243040
S11319D0310580F48A819B816115710521F0FB0139
S11319E09383828304C090931F0380931E03FE019C
S11319F0329644C0FE01E20FF31F8193919322506B
S1131A003109398328833AC020911C0330911D0386
S1131A10232B41F4209102023091030230931D03E1
S1131A2020931C03209100023091010221153105FD
S1131A3041F42DB73EB74091040250910502241B96
S1131A40350BE0911C03F0911D03E217F307A0F49A
S1131A502E1B3F0B2817390778F0AC014E5F5F4F00
S1131A602417350748F04E0F5F1F50931D03409312
S1131A701C038193919302C0E0E0F0E0CF01DF9179
S1131A80CF911F910F910895CF93DF93009709F49D
S1131A9081C0FC01329713821282A0911E03B0917F
S1131AA01F03109781F420813181820F931F2091AD
S1131AB01C0330911D032817390751F5F0931D03BA
S1131AC0E0931C0367C0ED0120E030E0CE17DF0790
S1131AD040F44A815B819E0141155105F1F0EA0110
S1131AE0F5CFD383C28340815181840F951FC817DA
S1131AF0D90759F488819981840F951F029691839F
S1131B0080838A819B81938382832115310529F403
S1131B10F0931F03E0931E033DC0E901FB83EA83B6
S1131B2049915991C40FD51FEC17FD0761F48081C9
S1131B309181840F951F0296E9019983888382819C
S1131B4093819B838A83E0E0F0E012968D919C91CF
S1131B501397009719F0FD01DC01F7CF8D919C914B
S1131B6011979D012E5F3F4F820F931F20911C03FD
S1131B7030911D032817390769F4309729F410921E
S1131B801F0310921E0302C013821282B0931D031E
S1131B90A0931C03DF91CF91089581E090E0F89425
S1131BA0F7C2DC0101C06D9341505040E0F7089545
S1131BB0CF93DF93CDB7DEB7AE014A5F5F4FFA0133
S1131BC061917191AF01809122039091230333D0ED
S1131BD0DF91CF9108950F931F93CF93DF93E091FB
S1131BE02203F0912303238121FF1BC08C01D0E049
S1131BF0C0E0F80181918F01609122037091230369
S1131C00DB011896ED91FC911997882331F0199511
S1131C10892B79F3DFEFCFEFECCF8AE01995892B8D
S1131C2019F08FEF9FEF02C08D2F9C2FDF91CF9182
S1131C301F910F9108952F923F924F925F926F924E
S1131C407F928F929F92AF92BF92CF92DF92EF9248
S1131C50FF920F931F93CF93DF93CDB7DEB72B97EC
S1131C600FB6F894DEBF0FBECDBF6C017B018A01B5
S1131C70FC0117821682838181FFBFC1CE010196C8
S1131C803C01F6019381F70193FD859193FF8191C6
S1131C907F01882309F4ADC1853239F493FD859120
S1131CA093FF81917F01853221F4B60190E0D6D172
S1131CB0E8CF912C212C312CFFE1F315D8F08B3295
S1131CC079F038F4803279F08332A1F4232D206145
S1131CD01DC08D3261F0803369F4232D216016C05C
S1131CE0832D8260382EE32DE4603E2E2AC0F32D2E
S1131CF0F8601DC037FC2DC020ED280F2A3040F0BD
S1131D008E32B9F436FC75C1232D2064322E19C0ED
S1131D1036FE06C08AE0989E200D1124922E11C032
S1131D20EAE02E9E200D1124222EF32DF0623F2E88
S1131D3008C08C3621F4832D8068382E02C0883682
S1131D4041F4F70193FD859193FF81917F01811106
S1131D50B3CF982F9F7D9554933028F40C5F1F4F79
S1131D609FE399830DC0833631F0833771F0833557
S1131D7009F055C020C0F801808189830E5F1F4F90
S1131D8088248394912C530112C02801F2E04F0E51
S1131D90511CF801A080B18036FE03C0692D70E0AB
S1131DA002C06FEF7FEFC5014ED14C018201F32DCC
S1131DB0FF773F2E15C0280122E0420E511CF80186
S1131DC0A080B18036FE03C0692D70E002C06FEFC1
S1131DD07FEFC5012DD14C01F32DF0683F2E820118
S1131DE033FC19C0822D90E088169906A0F4B60140
S1131DF080E290E033D12A94F5CFF50137FC859148
S1131E0037FE81915F01B60190E028D121102A9418
S1131E1021E0821A91088114910479F7E1C0843693
S1131E2011F0893639F5F80137FE07C060817181F8
S1131E30828193810C5F1F4F08C060817181072EDE
S1131E40000C880B990B0E5F1F4FF32DFF763F2E6E
S1131E5097FF09C090958095709561957F4F8F4F3E
S1131E609F4FF0683F2E2AE030E0A30133D1882E43
S1131E70861844C0853731F4232D2F7EB22E2AE0F4
S1131E8030E025C0932D997FB92E8F36C1F018F418
S1131E90883579F0AEC0803719F0883721F0A9C0B1
S1131EA0E92FE061BE2EB4FE0DC0FB2DF460BF2E01
S1131EB009C034FE0AC0292F2660B22E06C028E0CD
S1131EC030E005C020E130E002C020E132E0F8015A
S1131ED0B7FE07C060817181828193810C5F1F4FBF
S1131EE006C06081718180E090E00E5F1F4FA30106
S1131EF0F1D0882E8618FB2DFF773F2E36FE0DC0BD
S1131F00232D2E7FA22E891458F434FE0BC032FCEC
S1131F1009C0832D8E7EA82E05C0B82CA32C03C027
S1131F20B82C01C0B92CA4FE0FC0FE01E80DF11DB0
S1131F308081803321F49A2D997EA92E09C0A2FEB6
S1131F4006C0B394B39404C08A2D867809F0B39480
S1131F50A3FC10C0A0FE06C0B21480F4280C922C7E
S1131F609B180DC0B21458F4B60180E290E076D00C
S1131F70B394F8CFB21418F42B1802C0982C212C67
S1131F80A4FE0FC0B60180E390E068D0A2FE16C0A4
S1131F90A1FC03C088E790E002C088E590E0B601A8
S1131FA00CC08A2D867851F0A1FE02C08BE201C0DC
S1131FB080E2A7FC8DE2B60190E050D0891430F4A1
S1131FC0B60180E390E04AD09A94F8CF8A94F30162
S1131FD0E80DF11D8081B60190E040D08110F6CF6C
S1131FE0222009F44ECEB60180E290E037D02A9444
S1131FF0F7CFF6018681978102C08FEF9FEF2B9672
S11320000FB6F894DEBF0FBECDBFDF91CF911F9105
S11320100F91FF90EF90DF90CF90BF90AF909F9083
S11320208F907F906F905F904F903F902F90089586
S1132030FC010590615070400110D8F7809590958F
S11320408E0F9F1F0895FC01615070400190011094
S1132050D8F7809590958E0F9F1F08950F931F9327
S1132060CF93DF93FB01238121FD03C08FEF9FEF0B
S11320702CC022FF16C04681578124813581421726
S1132080530744F4A081B1819D012F5F3F4F3183F9
S113209020838C93268137812F5F3F4F378326839C
S11320A014C08B01EC01FB010084F185E02D19952E
S11320B0892BE1F6D80116968D919C91179701967C
S11320C017969C938E931697CE01DF91CF911F9113
S11320D00F910895FA01AA27283051F1203181F196
S11320E0E8946F936E7F6E5F7F4F8F4F9F4FAF4F1C
S11320F0B1E03ED0B4E03CD0670F781F891F9A1F2F
S1132100A11D680F791F8A1F911DA11D6A0F711DE2
S1132110811D911DA11D20D009F468943F912AE0EE
S1132120269F11243019305D3193DEF6CF010895D6
S1132130462F4770405D4193B3E00FD0C9F7F6CF07
S1132140462F4F70405D4A3318F0495D31FD4052CF
S1132150419302D0A9F7EACFB4E0A6959795879565
S113216077956795BA95C9F7009761057105089544
S11321709B01AC010A2E06945795479537952795F0
S1132180BA95C9F7620F731F841F951FA01D089588
S1072190F894FFCFED
S113219400002603200000400040C600CE00D60004
S11321A4360100000003000000008D0878080000D8
S11321B4F8FF0186000000000079FF0179A0000007
S11321C40000E6FF0179000000000086FF0187009B
S11321D40000000078FF0188000000000000536F35
S11321E46D657468696E672057726F6E670050522C
S11321F44F4752414D0068756D6964697479203D97
S1132204202564200A0074656D70657261747572AA
S113221465203D202564200A00636F32203D20257B
S113222464200A00494E495449414C495A4154498D
S11322344F4E004552524F522057616B65757000E2
S11322444552524F52206D65617373757265000077
S9030000FC
