:1000000006C2000024C2000022C2000020C200007C
:100010001EC200001CC200001AC2000018C200006C
:1000200016C2000014C2000012C2000010C200007C
:1000300029C700000CC200000AC2000008C200006C
:1000400006C2000004C2000002C2000000C200009C
:10005000FEC10000FCC10000FAC10000F8C10000B0
:10006000F6C100000C94AC1D0C94FE1DF0C1000004
:10007000EEC10000ECC10000EAC10000E8C10000D0
:10008000E6C10000E4C10000E2C10000E0C10000E0
:100090000C94421E0C94941EDAC100000C942C2186
:1000A000D6C10000D4C10000D2C10000D0C1000000
:1000B000CEC10000CCC10000CAC10000C8C1000010
:1000C000C6C10000C4C10000C2C100000C94D81E0B
:1000D0000C942A1FBCC100000C946E1F0C94C01F0E
:1000E000B6C10000960196019601C501CD01DC0163
:1000F00096019601C501CD014E21BE21BE21BE2132
:10010000BE21BE21BE21BE214E21BE21BE21BE2167
:10011000BE21BE21BE21BE215021BE21BE21BE2155
:10012000BE21BE21BE21BE21BE21BE21BE21BE21D7
:10013000BE21BE21BE21BE215021BE21BE21BE2135
:10014000BE21BE21BE21BE21BE21BE21BE21BE21B7
:10015000BE21BE21BE21BE21BA21BE21BE21BE21AB
:10016000BE21BE21BE21BE218521BE21BE21BE21D0
:10017000BE21BE21BE21BE21BE21BE21BE21BE2187
:10018000BE21BE21BE21BE217921BE21BE21BE21BC
:10019000BE21BE21BE21BE219D210BE419E00F2E00
:1001A000F3E7EF2EF9E0FF2EF02D80914A09882326
:1001B00011F10FB6F8940F92D8011596ED91FC91BC
:1001C0001697C681D781CE010296C2D4809140098C
:1001D00081508093400980914A09815080934A0957
:1001E0000F900FBE8F89988D40D4CE013ED4809160
:1001F0004A098111DECFF7018081823008F07DD578
:100200000E948A15D2CFCF93DF9300D000D0CDB714
:10021000DEB7CE0101964C0144244394E12CF12C2D
:10022000512CC82ED92CE091A109F091A20980810E
:10023000882309F4D8C00580F681E02DA080B18024
:100240000E94C00EC4010E941C158C01898181117D
:1002500049C00A151B05B0F10E948A0FE091A1095F
:10026000F091A2090580F681E02D66807780C301B8
:1002700002966ED4D30153968C91539782FF17C088
:100280001C966D917C911D976A0D7B1D9501A801AF
:10029000C3010E942714882369F00E2D1F2D2E2DD7
:1002A0003F2DA501652DC3010E94D51403C08E7F8B
:1002B000F301838BD3015096ED91FC915197C301CB
:1002C000199585C0452DB501601B710B80919D0965
:1002D00090919E090E94B00A0E948A0F811177C0F6
:1002E0000CD575C00E948A0F72C0898188230CF4D6
:1002F0006EC0AC80BD80F50182859385892B19F095
:10030000C501029625D4CE0106960E941C15AC01AB
:10031000E9810E2E000CFF0BEA30F10508F057C002
:100320008827EE58FF4F8F4F0C941624D501539613
:100330008C915397816053968C9353972A813B817C
:100340001C966D917C911D97620F731FC5010E94D1
:1003500027148823E1F1D5015096ED91FC91519736
:10036000C5011995F501838982FF31C04A815B81FE
:1003700084859585480F591F0E2D1F2D2E2D3F2D3D
:10038000652DC5010E94D51422C0D50153968C91CC
:1003900053978E7F53968C931AC0F50183898160A1
:1003A000838B6A817B8175876487640F751F9A01CF
:1003B000C5010E9427140BC0D50153968C9181FD75
:1003C00003C0C50152D303C08E7FF501838B4E2D30
:1003D0005F2D6C2D7D2D80919D0990919E097BD77D
:1003E000811183CF20CF0E94C00EC4010E941C1532
:1003F0008C018981811176CFE0919F09F091A0094C
:100400008081442D8111452DAE2CBF2C5CCF112451
:100410001FBECFEFD1E2DEBFCDBF00E00CBF19E0C1
:10042000A0E0B2E0EEE6F1E500E00BBF02C007900D
:100430000D92A032B107D9F72BE0A0E2B9E001C0DC
:100440001D92A934B207E1F78ED10C94B528D8CD0E
:100450006FEF7FEF8091210B9091220BC5D78130F8
:10046000B9F70E94C60E00E010E020E030E0AC01D9
:1004700062E08091130B9091140B0E94D51481308F
:1004800061F00E94C60E20E030E0AC0161E0809196
:10049000130B9091140B0E94D51420E040E050E023
:1004A00060E070E08091210B9091220B2FD68EEDB1
:1004B0009FE00E940710CCCF0EE612E0CEE7D2E01C
:1004C0006FEF7FEF8091170B9091180B8DD78130D4
:1004D000B9F779D29ED29F938F931F930F930E9467
:1004E000972594D29F938F93DF93CF930E94972564
:1004F00020E040E050E060E070E08091170B9091C8
:10050000180B04D68EED9FE00E9407108DB79EB7A2
:1005100008960FB6F8949EBF0FBE8DBFD1CFC1E92C
:10052000D2E06FEF7FEF80911B0B90911C0B5CD79B
:100530008130B9F77AD086D09F938F93DF93CF9392
:100540000E94972520E040E050E060E070E080915C
:100550001B0B90911C0BDAD58EED9FE00E940710CB
:100560000F900F900F900F90DCCF78D06FEF7FEF50
:100570008091150B9091160B37D78130B9F7B4D015
:100580008CE992E00E94AA2520E040E050E060E083
:1005900070E08091150B9091160BB8D58EED9FE011
:1005A0000E940710E3CFEF92FF920F930F2EF0E21D
:1005B000EF2EF9E0FF2EF02D03E021E030E040ECDB
:1005C00050E066EA72E088E292E00E946F0D02E07D
:1005D00021E030E040EC50E068EB72E08CE592E026
:1005E0000E946F0D21E030E040EC50E06DEC72E0D5
:1005F0008FE892E00E946F0D21E030E040EC50E087
:100600006DED72E085EB92E00E946F0D0F91FF900F
:10061000EF9008959093280B8093270B08956AE03C
:1006200073E083E00C94281C08950E94561C8823D4
:1006300041F081EF92E09F938F930E9497250F9056
:100640000F9008958091270B9091280B089588E0D2
:100650000E94A51581E00C948F18089581E00E94F6
:10066000CB1882E090E00E94071080E00E94CB1837
:1006700086E990E00E9407100E9488180E94DF1807
:10068000882321F081E093E00E94AA250E940C1AA1
:10069000882321F085E193E00E94AA2582E299E077
:1006A0000E94F118882341F08AE293E09F938F9390
:1006B0000E9497250F900F9042E259E06DE473E09D
:1006C0008EE693E00E94EA1A882321F08FE793E0F8
:1006D0000E94AA2580E00E944619883021F483EA0E
:1006E00093E00C94AA250895EF92FF920F931F9325
:1006F000CF93DF93CDB7DEB766970FB6F894DEBF22
:100700000FBECDBF86D1F82EE92E80D1182F092F2C
:1007100099DF26E02A8321E02983EB82FC820D8386
:100720001E839F838887BE016F5F7F4F80E00E949A
:1007300069198D3029F485EB93E00E94AA2506C043
:100740008E3021F48AEF93E00E94AA2566960FB6B8
:10075000F894DEBF0FBECDBFDF91CF911F910F91F7
:10076000FF90EF90089558D180E00E942220F1D0B0
:10077000AFD020D154DF6BDF88E394E09F938F9359
:100780000E94972510DF0E948D0E0F900F90FFCFD3
:100790000F931F9387E494E00E94AA256FEF7FEFE9
:1007A0008091150B9091160B1FD620E040E050E091
:1007B00060E070E08091210B9091220BA7D40E9401
:1007C000C60E00E010E020E030E0AC0161E0809176
:1007D000130B9091140B0E94D5141F910F91089543
:1007E0000F931F9382E794E00E94AA256FEF7FEF9B
:1007F0008091210B9091220BF7D520E040E050E052
:1008000060E070E08091170B9091180B7FD40E94EC
:10081000C60E00E010E020E030E0AC0161E0809125
:100820000F0B9091100B0E94D5141F910F910895FA
:100830000F931F9385EB94E00E94AA256FEF7FEF43
:100840008091170B9091180BCFD520E040E050E03D
:1008500060E070E080911B0B90911C0B57D40E94BC
:10086000C60E00E010E020E030E0AC0161E08091D5
:100870001F0B9091200B0E94D5141F910F9108958A
:100880000F931F9388EE94E00E94AA256FEF7FEFED
:1008900080911B0B90911C0BA7D520E040E050E00D
:1008A00060E070E08091150B9091160B2FD40E94A0
:1008B000C60E00E010E020E030E0AC0161E0809185
:1008C0001D0B90911E0B0E94D5141F910F9108953E
:1008D0000F931F9308EC13E020E030E040E065E365
:1008E0007CE08FE195E00E949F1490931E0B809313
:1008F0001D0B00EF13E020E030E040E068E371E022
:100900008DE295E00E949F149093140B8093130B3B
:1009100008E114E020E030E040E068E371E08EE3BD
:1009200095E00E949F149093100B80930F0B00E4AE
:1009300014E020E030E040E068E371E08AE495E014
:100940000E949F149093200B80931F0B1F910F9177
:10095000089581E070D49093220B8093210B892B12
:1009600021F08AE595E00E94AA2581E064D4909365
:10097000180B8093170B892B21F081E895E00E94DA
:10098000AA2581E058D490931C0B80931B0B892BD4
:1009900021F087EB95E00E94AA2581E04CD490934A
:1009A000160B8093150B892B21F08DED95E00C949F
:1009B000AA2508950E940416811104C08EEF95E0C7
:1009C0000C94AA2508950E941C16882321F081E228
:1009D00096E00E94AA252FEF80E792E02150804008
:1009E0009040E1F700C000000E943116882321F0FA
:1009F0008EE296E00E94AA252FEF80E792E0215038
:100A000080409040E1F700C0000008950C947D16EE
:100A100008950C9457160895E7E0F1E080818F6007
:100A200080830895E8E0F1E09081907F9083908149
:100A30008F70982B90830895E8E0F1E08081807FAB
:100A400080830895CF93DF93EC010E94C00ECE0106
:100A50000E943824EC010E948A0F209711F40E9412
:100A60008B15CE01DF91CF910895CF93DF9300973F
:100A700041F0EC010E94C00ECE010E94D0240E94E1
:100A80008A0FDF91CF910895FC01039692838183B1
:100A90002FEF3FEF3483238396838583908787836B
:100AA00010820895FC01118610860895CF93DF937C
:100AB0009C01FB01DC011196CD91DC911297D3834F
:100AC000C2838C819D81958384838C819D81DC018F
:100AD00013967C936E9312977D836C833187208766
:100AE000F90180818F5F8083DF91CF910895CF934B
:100AF000DF93EB01488159814F3F2FEF520721F4DB
:100B0000FC01A781B0850DC0DC01139601C0DF0197
:100B10001296ED91FC911397208131814217530772
:100B2000B0F71296ED91FC911397FB83EA83D5837E
:100B3000C483BD83AC831396DC93CE9312979987BD
:100B40008887FC0120812F5F2083DF91CF9108955A
:100B5000CF93DF93FC01A085B185C281D3818481CD
:100B600095819D838C83C481D581828193819B8370
:100B70008A8311968D919C911297E817F90731F4A9
:100B80008481958112969C938E931197118610867D
:100B90008C9181508C938C91DF91CF91089531E1AC
:100BA000FC013083319722E220833197A3E3A083B5
:100BB000319760833197708331971082319710821B
:100BC000319760E8608331971082319710823197B6
:100BD0001082319762E06083319763E060833197E0
:100BE00064E06083319765E06083319766E06083FD
:100BF000319767E06083319768E06083319769E0FF
:100C00006083319760E1608331973083319732E1BF
:100C10003083319733E13083319734E1308331973A
:100C200035E13083319736E13083319737E13083D6
:100C3000319738E13083319739E13083319730E2B1
:100C40003083319731E2308331972083319723E22B
:100C500020833197408331975083319726E2208358
:100C6000319727E22083319728E22083319729E2C8
:100C70002083319720E32083319721E320838997D4
:100C80000895A89590EC88E10FB6F894A895809304
:100C900060000FBE90936000A0919709B0919809F1
:100CA000CD91CDBFDD91DEBFFF91EF91DF91CF916F
:100CB000BF91AF919F918F917F916F915F914F9174
:100CC0003F912F911F910F91FF90EF90DF90CF9068
:100CD000BF90AF909F908F907F906F905F904F905C
:100CE0003F902F901F900F900CBE0F900BBE0F9057
:100CF0000FBE0F90089581E008950F920FB6F894FB
:100D00000F920BB60F920CB60F921F9211242F92D6
:100D10003F924F925F926F927F928F929F92AF928B
:100D2000BF92CF92DF92EF92FF920F931F932F9378
:100D30003F934F935F936F937F938F939F93AF9363
:100D4000BF93CF93DF93EF93FF93A0919709B09157
:100D500098090DB60D920EB60D920E941810A09132
:100D60009709B0919809CD91CDBFDD91DEBFFF917C
:100D7000EF91DF91CF91BF91AF919F918F917F9133
:100D80006F915F914F913F912F911F910F91FF9024
:100D9000EF90DF90CF90BF90AF909F908F907F901B
:100DA0006F905F904F903F902F901F900F900CBED0
:100DB0000F900BBE0F900FBE0F9008950F920FB6BD
:100DC000F8940F920BB60F920CB60F921F9211244B
:100DD0002F923F924F925F926F927F928F929F924B
:100DE000AF92BF92CF92DF92EF92FF920F931F9339
:100DF0002F933F934F935F936F937F938F939F9323
:100E0000AF93BF93CF93DF93EF93FF93A091970995
:100E1000B09198090DB60D920EB60D9213BEC0D7C3
:100E200081110E941810A0919709B0919809CD9155
:100E3000CDBFDD91DEBFFF91EF91DF91CF91BF91EB
:100E4000AF919F918F917F916F915F914F913F9162
:100E50002F911F910F91FF90EF90DF90CF90BF9057
:100E6000AF909F908F907F906F905F904F903F904A
:100E70002F901F900F900CBE0F900BBE0F900FBEC7
:100E80000F9008959BDF18950FB6F8940F92FC0110
:100E9000928D0F900FBE81E0911180E008950F9325
:100EA0001F93CF93DF93EC01042F1A8D4C8D4111CA
:100EB0000CC088819981892B09F042C08C819D8169
:100EC0000E94E0111D821C8242C0011117C050E037
:100ED0008A819B810E945D252C8D8A819B81820F56
:100EE000911D9B838A832C813D818217930750F14A
:100EF000888199819B838A8380E029C050E08E811C
:100F00009F810E945D258C8D90E09195819591093E
:100F10002E813F81280F391F3F832E8348815981BD
:100F20002417350730F42C813D81820F931F9F8356
:100F30008E83023049F4112349F0115080E007C03C
:100F400080E005C080E003C080E001C080E01F5F5A
:100F50001A8FDF91CF911F910F910895FC01448D5D
:100F60004423A9F050E026813781240F351F3783B1
:100F70002683848195812817390720F0808191810B
:100F800097838683CB01668177810C945D250895D4
:100F9000EF92FF920F931F93CF938C010FB6F894AB
:100FA0000F92FC01C68D1C16ACF48189811106C01C
:100FB00011C0F8018189811105C00CC07801F1E1EF
:100FC000EF0EF11CC7010E94CF1081110E94571132
:100FD000C15079F78FEFF801868F0F900FBE0FB6D3
:100FE000F8940F92C58D1C16ACF48085811106C053
:100FF00011C0F8018085811105C00CC07801F8E0AE
:10100000EF0EF11CC7010E94CF1081110E945711F1
:10101000C15079F78FEFF801858F0F900FBECF91F8
:101020001F910F91FF90EF900895CF93DF93EC0104
:101030000FB6F8940F92E881F9818B8D2C8D90E09A
:1010400030E0829FA001839F500D929F500D11248C
:101050004E0F5F1F5D834C831A8EFB83EA830197DB
:10106000829FA001839F500D929F500D1124CF01AC
:10107000840F951F9F838E838FEF8D8F8E8F6111CD
:101080000BC08885882371F0CE0108960E94CF108E
:10109000882341F032DE06C0CE010896F5DCCE0191
:1010A0004196F2DC0F900FBE81E0DF91CF91089561
:1010B000FF920F931F93CF93DF93082F162FF42ED9
:1010C0006623B9F0869FC00111248196BBDCEC0138
:1010D000009741F414C00B8F1C8F61E0CE01A5DF97
:1010E000F8A20DC0819699838883F5CFD983C883F0
:1010F000F2CF81E290E0A6DCEC01892BB9F7CE01BA
:10110000DF91CF911F910F91FF9008959F92AF9221
:10111000BF92CF92DF92EF92FF920F931F93CF93E4
:10112000DF9300D01F921F92CDB7DEB78C016B0109
:101130005D834C83A22EB12C992493947C0188E08A
:10114000E80EF11C0FB6F8940F92F801928D838D82
:10115000981718F0F2E0AF1216C04A2DB601C80178
:101160009EDEF8019189992341F0C80141960E94C1
:10117000CF10882321F0C1DD02C08111BEDD0F90A8
:101180000FBE81E047C08C819D81892B21F40F9097
:101190000FBE80E03FC0B11005C0CE0101960E9495
:1011A0001711B92C0F900FBEEBD50FB6F8940F9214
:1011B000F801858D8F3F09F4158EF801868D8F3FDC
:1011C00009F4168E0F900FBEBE016C5F7F4FCE01EB
:1011D00001960E942211811119C00FB6F8940F9246
:1011E000F801928D838D0F900FBE98130BC06C8108
:1011F0007D81C701ABD7C801CBDE8CD68111A2CFD0
:101200007CDDA0CFC801C4DE85D69CCFC801C0DE7E
:1012100081D680E00F900F900F900F900F90DF918C
:10122000CF911F910F91FF90EF90DF90CF90BF90E3
:10123000AF909F900895CF93DF93482F60E081E0B7
:1012400037DFEC01009759F01D821C821982188249
:101250001E8220E040E050E060E070E057DFCE0109
:10126000DF91CF910895EF92FF920F931F93CF9349
:10127000DF938A01FC01528D338D531710F0223019
:10128000E1F4422F7801EC011E8D09DE1F3F79F455
:1012900089898823A1F0CE01419681D7882389F0DE
:1012A000E114F10481F081E0F70180830DC0FF2497
:1012B000F394F10EFE8E81E007C080E005C081E06E
:1012C00003C081E001C081E0DF91CF911F910F91B8
:1012D000FF90EF9008959F92AF92BF92CF92DF92CE
:1012E000EF92FF920F931F93CF93DF9300D01F9243
:1012F0001F92CDB7DEB78C015B015D834C83E12C7F
:10130000992493946C0181E1C80ED11C0FB6F89416
:101310000F92F801F28CFF2091F0B501C8011EDE9A
:10132000FA94F801F28E8085882329F0C801089686
:1013300036D78111E2DC0F900FBE81E044C08C8172
:101340009D81892B21F40F900FBE80E03CC0E110FD
:1013500004C0CE0101966BD7E92C0F900FBE10D5BB
:101360000FB6F8940F92F801858D8F3F09F4158E12
:10137000F801868D8F3F09F4168E0F900FBEBE01C7
:101380006C5F7F4FCE0101965DD7811113C0C801FC
:101390007BDD882359F06C817D81C601D7D6C801D9
:1013A000F7DDB8D58111B2CFA8DCB0CFC801F0DD30
:1013B000B1D5ACCFC801ECDDADD5C80165DD882362
:1013C00009F4A4CF80E00F900F900F900F900F9032
:1013D000DF91CF911F910F91FF90EF90DF90CF9011
:1013E000BF90AF909F900895BF92CF92DF92EF92FF
:1013F000FF920F931F93CF93DF9300D01F921F9202
:10140000CDB7DEB78C017D836C83B12CD12CCC247D
:10141000C3947C0181E1E80EF11C0FB6F8940F92A1
:10142000D8015A968C915A978823D9F081505A96B0
:101430008C935A978D919C91892B29F40E9470125C
:10144000F80195838483D80118968C91882329F01C
:10145000C8010896A4D6811150DC0F900FBE81E020
:1014600070C08C819D81892B21F40F900FBE80E08C
:1014700068C0D11004C0CE010196D9D6DC2C0F90E3
:101480000FBE7ED40FB6F8940F92F801858D8F3F72
:1014900009F4158ED8015E968C915E978F3F11F4FA
:1014A0005E961C920F900FBEBE016C5F7F4FCE0107
:1014B0000196C8D6811121C0C801E6DC8823C9F095
:1014C000F80180819181892B49F40FB6F8940F922D
:1014D0008481958103D7B82E0F900FBE6C817D81DA
:1014E000C70134D6C80154DD15D5811196CF05DC6E
:1014F00094CFC8014DDD0ED590CFC80149DD0AD586
:10150000C801C2DC882309F488CFBB20C9F00FB61C
:10151000F8940F92F8018189882339F00688F789B9
:10152000E02D808164E0681B01C060E0D801149662
:101530008D919C91159784D70F900FBE80E001C0CC
:1015400080E00F900F900F900F900F90DF91CF9150
:101550001F910F91FF90EF90DF90CF90BF90089573
:10156000CF93DF93EC010FB6F8940F928D8D8F3FE0
:1015700009F41D8E8E8D8F3F09F41E8E0F900FBEC5
:101580008A8D811103C0CE014196F1D5CE0100DDD7
:10159000DF91CF910895FC014481558122813381EF
:1015A000240F351F80819181B901681B790BCB0114
:1015B0006417750710F0841B950B0895AF92BF92C6
:1015C000CF92DF92EF92FF920F931F93CF93DF930F
:1015D0006C015B017A01FC01C281D3810481158118
:1015E0000C1B1D0B4017510708F48A01F601848576
:1015F0009585A801B5018C0F9D1F0E945D250E15D4
:101600001F0558F4A701401B510BB501600F711F56
:10161000F601848595850E945D25CE018E0D9F1D66
:10162000F601248135818217930710F0821B930BFA
:10163000F60193838283C701DF91CF911F910F91B0
:10164000FF90EF90DF90CF90BF90AF900895CF9232
:10165000DF92EF92FF920F931F93CF93DF931F922E
:101660001F92CDB7DEB75A83498321153105C9F0E2
:101670006B017C01FC01868580FD08C0CA0124172E
:10168000350708F4C9019A83898311C020173107EF
:1016900058F042E050E0BE016F5F7F4FC7018EDF20
:1016A00006C080E090E008C080E090E005C049817D
:1016B0005A81B601C70182DF0F900F90DF91CF9161
:1016C0001F910F91FF90EF90DF90CF900895AF9210
:1016D000BF92CF92DF92EF92FF920F931F93CF931F
:1016E000DF937C015B01E9014217530708F4EA012B
:1016F000209779F1F70100811181C480D580C01A4B
:10170000D10ACC15DD0508F46E01F70164857585F5
:10171000600F711FA601C5010E945D25CC16DD0674
:1017200058F4AE014C195D09F70164857585C50152
:101730008C0D9D1D0E945D250C0F1D1FF7018481DE
:1017400095810817190710F0081B190BF701118371
:101750000083CE01DF91CF911F910F91FF90EF9009
:10176000DF90CF90BF90AF900895EF92FF921F93BC
:10177000CF93DF93EB0111E0413009F010E02097A7
:1017800011F4C1E0D0E07C012FEFE21AF20A419699
:1017900059D9009781F020E1FC0111922A95E9F7CF
:1017A0009C01205F3F4FFC0135872487F582E4824E
:1017B000D783C6831687DF91CF911F91FF90EF905B
:1017C0000895CF93DF93FC0127850FB6F8940F920D
:1017D00080859185892BD1F482859385892BC1F4ED
:1017E00086854681578164817581A485B58590E1A0
:1017F000EF0119929A95E9F7B587A48775836483F9
:10180000578346838687278781E003C080E001C035
:1018100080E00F900FBEDF91CF910895FC012481ED
:1018200035818081918142815381820F931F01977D
:10183000841B950B8217930710F0821B930B08955E
:10184000AF92BF92CF92DF92EF92FF920F931F93CE
:10185000CF93DF93EC015B016A0179018E8580FFF4
:1018600004C08A010E5F1F4F01C08A01CE01D6DF7E
:101870009C01A601B501CE01EADE6C01892BB1F015
:10188000CE0189DE2E813F818217930778F088850B
:101890009985892B59F08885998500E010E020E032
:1018A00040E050E0BA012FD719861886C601DF91B3
:1018B000CF911F910F91FF90EF90DF90CF90BF904D
:1018C000AF9008956F927F928F929F92AF92BF9246
:1018D000CF92DF92EF92FF920F931F93CF93DF93FC
:1018E0001F921F92CDB7DEB76C013B014A0179010F
:1018F000FC01868580FD03C0A12CB12C04C0689436
:10190000AA24A1F8B12CE114F10429F10FB6F8943E
:101910000F92C60140DE8C01A816B90638F080E0AF
:1019200090E081D7C8D4F601918780870F900FBED1
:10193000A016B106B0F000E010E020E030E0A90110
:1019400060E070E0CB01DED5F60111861086C6019D
:1019500022DE8C0103C0C6011EDE8C01A016B1067A
:10196000B8F5A114B104C1F0F601E080F18098014E
:10197000A501BE016F5F7F4FC601A9DE89819A81F3
:101980000A191B098816990630F4F601F182E082E3
:10199000812C912C01C04C019801A401B301C60116
:1019A00096DE7C01892BB1F0EBD1F601828593851F
:1019B000892B61F08285938500E010E020E040E013
:1019C00050E0BA0122D6F60113861286A3D202C0D5
:1019D000E12CF12CC7010F900F90DF91CF911F9157
:1019E0000F91FF90EF90DF90CF90BF90AF909F90BE
:1019F0008F907F906F900895E0915F09F09160095A
:101A00008081811107C08FEF9FEF909337098093FA
:101A100036090895E0915F09F09160090580F6812B
:101A2000E02D0680F781E02D828193819093370924
:101A3000809336090895FF920F931F93CF93DF93FE
:101A4000EC01F62E00913E0910913F098091970913
:101A50009091980902967CD8CF3F8FEFD80761F418
:101A6000FF2051F060919709709198096E5F7F4F48
:101A700081E499E01BD82DC0C00FD11FE0919709D8
:101A8000F0919809D383C283C017D10760F46091A5
:101A900097097091980980915D0990915E096E5F38
:101AA0007F4F25D816C06091970970919809809151
:101AB0005F09909160096E5F7F4F19D88091360958
:101AC00090913709C817D90720F4D0933709C093EC
:101AD0003609DF91CF911F910F91FF9008954F929A
:101AE0005F926F927F928F929F92AF92BF92CF92AE
:101AF000DF92EF92FF920F93CF93DF934C016B0134
:101B00005A012901CA010E9422053C01892B09F4CE
:101B1000F3C08CE290E00E942205EC01892B99F041
:101B2000788E6F8AA50165EA70E0C3010E94662580
:101B300081E0A81AB1088F89988DA80EB91EC1142A
:101B4000D10429F420C0C3010E943505D5C0D601B7
:101B50008C91898F8C918823A1F0AE01465E5F4FF6
:101B6000F6013196B8E0CB0ED11CCF012191DA01FC
:101B70002D93AD01DC018C91882319F0EC15FD0546
:101B8000A1F718A201C0198E043008F003E00E8BF3
:101B90000BA31CA26E01B2E0CB0ED11CC6010E94A9
:101BA0005205CE010C960E945205D987C88784E061
:101BB00090E0801B91099D878C87DB8BCA8B1EA2CE
:101BC0001DA21FA218A619A61AA61BA6A201B4013F
:101BD000C5010E94CF0599838883E114F10419F0AF
:101BE000F701D183C0830FB6F8940F92809140091A
:101BF0008F5F809340098091970990919809892B74
:101C0000D1F5D0939809C09397098091400981300C
:101C100009F041C083E799E00E9444058CE799E010
:101C20000E94440585E899E00E9444058EE899E009
:101C30000E9444058AE699E00E94440581E699E005
:101C40000E94440584E599E00E9444058BE499E0F4
:101C50000E94440581E499E00E9444058AE699E0E7
:101C60009093600980935F0981E699E090935E0903
:101C700080935D0910C080913C0981110CC0E091F6
:101C80009709F091980996898E89891720F0D09349
:101C90009809C0939709809138098F5F809338091C
:101CA00089A38E8990913D09981710F480933D097E
:101CB00090E09C01220F331F220F331F220F331F8E
:101CC000820F931FB6018D58964F0E9456050F90B4
:101CD0000FBE80913C09882359F0E0919709F0915B
:101CE000980996898E89981728F407D881E005C04D
:101CF00081E003C081E001C08FEFDF91CF910F91B0
:101D0000FF90EF90DF90CF90BF90AF909F908F901B
:101D10007F906F905F904F900895EF92FF920F9396
:101D20000F2EF4E3EF2EF9E0FF2EF02D00E020E07F
:101D300030E040EC50E06DE376E08DEC90E0CFDEFB
:101D40008130D1F4DCD58130B9F4F8948FEF9FEF76
:101D5000909337098093360981E080933C09109273
:101D60003F0910923E09E0919709F091980985A1E9
:101D70000E9412050E9441060F91FF90EF90089576
:101D8000809133098F5F8093330908950FB6F894DB
:101D90000F9280913E0990913F090F900FBE0895D8
:101DA000CF92DF92EF92FF920F931F93CF93DF9327
:101DB00080913309811198C0E0903E09F0903F096D
:101DC0008FEFE81AF80AF0923F09E0923E09E11419
:101DD000F104B1F480915F099091600920915D094F
:101DE00030915E093093600920935F0990935E09FA
:101DF00080935D09809139098F5F80933909FCDDFB
:101E00008091360990913709E816F90610F4D12C23
:101E100053C0D12CCC24C394E0915F09F0916009A8
:101E20008081811107C08FEF9FEF909337098093D6
:101E3000360942C0E0915F09F09160090580F681A2
:101E4000E02DC681D7818A819B81E816F90628F4A6
:101E500090933709809336092FC08E010E5F1F4F74
:101E6000C8010E94A8058C899D89892B21F0CE018B
:101E70000C960E94A8058E8990913D09981710F440
:101E800080933D0990E09C01220F331F220F331FE6
:101E9000220F331F820F931FB8018D58964F0E9457
:101EA0005605E0919709F09198099E8986899817BF
:101EB00008F4B2CFDC2CB0CFE0919709F0919809EB
:101EC000868990E0FC01EE0FFF1FEE0FFF1FEE0F63
:101ED000FF1F8E0F9F1FFC01ED58F64F808182304F
:101EE00048F0DD24D39406C080913B098F5F809336
:101EF0003B09D12C80913A09882311F0DD24D39439
:101F00008D2DDF91CF911F910F91FF90EF90DF907A
:101F1000CF900895DF92EF92FF920F931F93CF938C
:101F2000DF930FB6F8940F9280913309815080931C
:101F300033098091330981115DC08091400981117D
:101F400033C05BC0D7011596ED91FC911697C68101
:101F5000D781CE010C960E94A8058E010E5F1F4FFF
:101F6000C8010E94A8058E8990913D09981710F428
:101F700080933D0990E09C01220F331F220F331FF5
:101F8000220F331F820F931FB8018D58964F0E9466
:101F90005605E0919709F09198099E8986899817CE
:101FA00068F0D0923A090AC0C0E0D0E00F2EF4E504
:101FB000EF2EF9E0FF2EF02DDD24D394F701808180
:101FC0008111C0CFCD2B09F017DDC0913B09CC2387
:101FD00049F0D1E0E5DE8111D0933A09C150D1F743
:101FE00010923B0980913A09882331F00E947D06C6
:101FF00081E003C080E001C080E00F900FBEDF9160
:10200000CF911F910F91FF90EF90DF900895CF93A4
:10201000DF93EC01892B39F0B3DE60E0CE010BDDFC
:1020200079DF811102C00E947D06DF91CF91089572
:1020300080913309882321F081E080933A09089543
:1020400010923A09E0919709F091980985A10E94B0
:102050001C05A0919709B0919809E0919709F0911A
:1020600098092D913C918789908D8217930758F09C
:1020700060919709709198098091970990919809BA
:10208000675E7F4F55D520913D09822F90E0FC017E
:10209000EE0FFF1FEE0FFF1FEE0FFF1FE80FF91FE0
:1020A000ED58F64F3081311111C02150822F90E050
:1020B000FC01EE0FFF1FEE0FFF1FEE0FFF1FE80FDB
:1020C000F91FED58F64F3081332379F3AC01440FFB
:1020D000551F440F551F440F551F480F591FDA0154
:1020E000AD58B64F1196ED91FC9112970280F38195
:1020F000E02D1296FC93EE9311974A58564FE41731
:10210000F50729F442815381FD0152834183FC018B
:10211000EE0FFF1FEE0FFF1FEE0FFF1F8E0F9F1F13
:10212000FC01ED58F64F0180F281E02D8681978108
:10213000909398098093970920933D09E09197091E
:10214000F091980985A10C9412050895CF93DF931F
:10215000EB016091970970919809645F7F4F0E942D
:10216000770561E0CE0167DCDF91CF9108950F9391
:102170001F93CF938B01C42F609197097091980999
:10218000645F7F4F0E945605CC2311F00FEF1FEFC5
:102190006C2FC80150DCCF911F910F9108950F93C0
:1021A0001F93CF93DF93DC011596ED91FC91169769
:1021B000C681D7818E01045F1F4FC8010E94A80508
:1021C0008091330981111CC00A501109C8010E9475
:1021D000A8058E8990913D09981710F480933D09C8
:1021E00090E09C01220F331F220F331F220F331F59
:1021F000820F931FB8018D58964F0E94560505C057
:10220000B80184E599E00E945605E0919709F091A4
:1022100098099E898689891720F481E080933A097C
:1022200001C080E0DF91CF911F910F91089520911F
:102230003909FC01208320913E0930913F09328306
:1022400021830895CF93DF930FB6F8940F922091D6
:102250003E0930913F09DB014D915C914F3FBFEF4B
:102260005B07E9F0EC01E981FA81A0913909B881B5
:10227000BA1719F02E173F07A0F42E1B3F0B241797
:10228000350740F4FB01421B530B51834083CFDFE2
:1022900080E008C0FB011182108281E003C080E071
:1022A00001C081E00F900FBEDF91CF91089581E0D2
:1022B00080933A090895809197099091980908951B
:1022C00080913C09882331F080913309882321F0E3
:1022D00080E0089581E0089582E008950F931F93B0
:1022E000CF93DF93FC01892B09F464C02689A09168
:1022F0009709B091980956968C91281708F04EC00E
:1023000084859585992364F0A0919709B0919809E7
:1023100056963C9184E090E0831B910995878487D1
:1023200030E0C901880F991F880F991F880F991FE6
:10233000280F391F2D58364F8285938582179307B2
:1023400021F58F01EF012296CE010E94A805E091B0
:102350009709F09198098689F801868B90913D093B
:10236000981710F480933D0990E09C01220F331FD1
:10237000220F331F220F331F820F931FBE018D5870
:10238000964F0E94560581E016C0A0919709B09122
:10239000980956968C91868B81E00DC0A091970983
:1023A000B091980981E023A156969C91291718F0C5
:1023B00080E001C080E0DF91CF911F910F910895DF
:1023C0000F931F93CF93DF93FC01892B79F184A1A5
:1023D000815084A3268993A1291751F181112AC024
:1023E000EF018F010E5F1F4FC8010E94A8058BA14E
:1023F0008E8B24E030E0281B31093D872C8790919B
:102400003D09981710F480933D0990E09C01220F3C
:10241000331F220F331F220F331F820F931FB80168
:102420008D58964F0E94560581E005C080E003C09C
:1024300080E001C080E0DF91CF911F910F9108955E
:102440000F931F93CF93DF93FC01892B09F443C0B3
:1024500093A1961708F4962F86898917E1F124A194
:102460002130C9F5968B24853585332334F024E05B
:1024700030E0291B31093587248790E09C01220F29
:10248000331F220F331F220F331F820F931F8D58CC
:10249000964F2285338528173907E9F4EF018F011C
:1024A0000E5F1F4FC8010E94A8058E8990913D09BB
:1024B000981710F480933D0990E09C01220F331F80
:1024C000220F331F220F331F820F931FB8018D5825
:1024D000964F0E945605DF91CF911F910F9108955D
:1024E0008091970990919809892B39F0E09197098B
:1024F000F091980984A18F5F84A3809197099091AE
:10250000980908954F925F926F927F928F929F9257
:10251000AF92BF92EF92FF920F931F9349015A011E
:102520000FB6F8940F92E0919709F091980923A5BE
:10253000223021F1E0919709F091980947A050A429
:1025400061A472A4DC01CB0180959095A095B09513
:1025500084219521A621B72187A390A7A1A7B2A77F
:10256000E0919709F091980981E083A7E114F104C3
:1025700029F061E0C7015FDA0E947D060F900FBE6F
:102580000FB6F8940F920115110569F0E0919709C3
:10259000F091980987A190A5A1A5B2A5F801808323
:1025A0009183A283B383E0919709F091980983A561
:1025B0008230B1F4E0919709F091980987A190A534
:1025C000A1A5B2A580949094A094B0948822992259
:1025D000AA22BB2287A290A6A1A6B2A681E001C032
:1025E00080E0E0919709F091980913A60F900FBE33
:1025F0001F910F91FF90EF90BF90AF909F908F90A1
:102600007F906F905F904F9008950F931F93CF939B
:10261000DF93FC010FB6F8940F920115110549F0F4
:1026200087A190A5A1A5B2A5E80188839983AA8373
:10263000BB8383A592E093A72230B1F018F4213038
:1026400031F02AC02330E9F0243001F125C007A180
:1026500010A521A532A5402B512B622B732B47A32C
:1026600050A761A772A718C047A150A561A572A580
:102670004F5F5F4F6F4F7F4F47A350A761A772A770
:102680000BC047A350A761A772A706C0823079F19B
:1026900047A350A761A772A7813059F5EF018F01B9
:1026A0000E5F1F4FC8010E94A8058E8990913D09B9
:1026B000981710F480933D0990E09C01220F331F7E
:1026C000220F331F220F331F820F931FB8018D5823
:1026D000964F0E945605E0919709F09198099E89BE
:1026E0008689891740F40E947D0681E005C080E05C
:1026F00003C081E001C081E00F900FBEDF91CF9158
:102700001F910F910895EF92FF920F931F93CF9314
:10271000DF93FC010115110549F087A190A5A1A542
:10272000B2A5E80188839983AA83BB8383A592E03D
:1027300093A72230B1F018F4213031F02BC02330B0
:10274000E9F0243001F126C007A110A521A532A58A
:10275000402B512B622B732B47A350A761A772A765
:1027600019C047A150A561A572A54F5F5F4F6F4F7C
:102770007F4F47A350A761A772A70CC047A350A7DC
:1027800061A772A707C0823009F441C047A350A7D0
:1027900061A772A78130E9F5EF01809133098111BA
:1027A0001DC08F010E5F1F4FC8010E94A8058E89B2
:1027B00090913D09981710F480933D0990E09C0199
:1027C000220F331F220F331F220F331F820F931F3D
:1027D000B8018D58964F0E94560507C0BF01645F2F
:1027E0007F4F84E599E00E945605E0919709F091AA
:1027F00098099E898689891770F4E114F10419F00B
:1028000081E0F701808381E080933A0905C080E090
:1028100003C081E001C081E0DF91CF911F910F9152
:10282000FF90EF900895009721F48091970990917F
:1028300098090FB6F8940F92FC0123A5223019F4E1
:1028400013A681E001C080E00F900FBE0895FC0147
:1028500073836283918780874617570790F0421BE6
:10286000530B8485958548175907E0F4BF016E5FC7
:102870007F4F80919F099091A0090E94770580E089
:1028800008954217530718F46217730768F4BF01DD
:102890006E5F7F4F8091A1099091A2090E947705F8
:1028A00080E0089581E0089581E008950FB6F894DE
:1028B0000F9280919D0990919E09892BE9F48CEAF1
:1028C00099E00E94440583EA99E00E9444058CEA5D
:1028D00099E09093A2098093A10983EA99E09093EB
:1028E000A00980939F0940E065E08AE00E945808B3
:1028F00090939E0980939D090F900FBE0895EF92CB
:10290000FF920F93D3DF80919D0990919E09892BAF
:1029100089F00F2EFBE9EF2EF9E0FF2EF02D03E0FA
:1029200020E030E045E550E062E476E083E091E0CD
:10293000D6D801C080E00F91FF90EF9008958F925C
:102940009F92AF92BF92CF92DF92FF920F931F930D
:10295000CF93DF934C015B01F42E690184E190E099
:102960000E942205EC01892B99F01B8A9FDF998236
:102970008882BD86AC86DF86CE86198B088BCE0119
:1029800002960E945205FF2019F08B8984608B8B80
:10299000CE01DF91CF911F910F91FF90DF90CF90EB
:1029A000BF90AF909F908F9008950F931F93CF93F8
:1029B000DF9300D01F921F92CDB7DEB7E0919D0943
:1029C000F0919E09309769F1D90169835B834A834D
:1029D0009D838C836630E4F473DC823061F420E004
:1029E000A801BE016F5F7F4F80919D0990919E0964
:1029F0000E94860817C020E040E050E0BE016F5FF3
:102A00007F4F80919D0990919E090E9486080AC07F
:102A100020E0AD01BE016F5F7F4FCF010E943309FF
:102A200001C080E00F900F900F900F900F90DF91FA
:102A3000CF911F910F910895AF92BF92CF92DF92E5
:102A4000EF92FF920F931F93CF93DF936C019ED968
:102A50007C018091990990919A09E816F90608F08D
:102A600047C02FC00580F681E02DA080B180C681CF
:102A7000D7818E010E5F1F4FC8010E94A805E8890B
:102A8000F989CE0119958B8982FF1BC08C859D85A4
:102A90008A0D9B1DA816B90660F49B838A83D9878B
:102AA000C887B8018091A1099091A2090E94770579
:102AB00008C000E010E020E030E0A50160E0CE01B9
:102AC00074DFE091A109F091A20980818111CACF40
:102AD00080919F099091A0099093A2098093A109E8
:102AE000F093A009E0939F0981E0F601808302C082
:102AF000F6011082F0929A09E0929909C701DF91DC
:102B0000CF911F910F91FF90EF90DF90CF90BF90EA
:102B1000AF9008950895279A2F9A2FEF80E792E0BB
:102B2000215080409040E1F700C000001F9AF5CF8F
:102B3000279A2F9A2FEF87EA91E621508040904004
:102B4000E1F700C000001F9AF5CFE9E2FBE020E8C2
:102B50003BE13183208323E83BE1338322832EE86A
:102B60003BE13583248322E93BE13783268328E94F
:102B70003BE13187208724EA3BE13387228729EA3A
:102B80003BE13587248725EB3BE13787268725E91D
:102B90003BE1318B208B2AEB3BE1338B228B27EC03
:102BA0003BE1358B248B682FCF0151C108956530EF
:102BB000F1F4FA0180818F7390E0982F88272181AA
:102BC000822B90930902809308028281F0E48F9F08
:102BD000C0011124FA01238126952695822B90931A
:102BE00007028093060281E08093B509089564305E
:102BF00051F080E090E49093070280930602909356
:102C000009028093080208950F931F9307ED15E1C1
:102C100020E034E244EF50E060E087E20E945C2074
:102C20009093B7098093B60921E0892B09F020E041
:102C3000822F1F910F9108958091B6099091B70945
:102C4000009759F040E060E070E00E94AD208430D1
:102C500031F41092B50980E0089582E0089583E090
:102C600008958091B6099091B709009739F064E012
:102C70000E94F920853021F083E0089582E00895D4
:102C800080E00895609108027091090280E090E070
:102C90000E94032320E030E048EC52E40E9491239C
:102CA00020E038EF4FE756E40C946A220895EADFFB
:102CB00020E030E040E251E40E9491230E94D722BC
:102CC000CB010895609106027091070280E090E0C8
:102CD0000E94032320E030E045E253E40E94912368
:102CE00020E038EF4FE756E40E946A2220E030E00F
:102CF00040E252E40C9405220895E4DF20E030E045
:102D000040E251E40E9491230E94D222CB01089517
:102D1000CF93DF9390E0FC01EE0FFF1FE80FF91F48
:102D2000EE0FFF1FE854F64F238121110AC0EF0177
:102D3000E091310BF091320B6A818881998119956C
:102D400012C0DC01AA0FBB1FED01C80FD91FCC0FA9
:102D5000DD1FC854D64FE0913B0BF0913C0B6A81CC
:102D6000888199811995DF91CF910895CF93DF9351
:102D700090E0FC01EE0FFF1FE80FF91FEE0FFF1FA1
:102D8000E854F64F238121110AC0EF01E0913B0B7B
:102D9000F0913C0B6A8188819981199512C0DC0100
:102DA000AA0FBB1FED01C80FD91FCC0FDD1FC854E0
:102DB000D64FE091310BF091320B6A818881998175
:102DC0001995DF91CF9108958AE496E00E94AA2593
:102DD0000F2EF9E2CF2EFBE0DF2EF02D04E0C8EB42
:102DE000D9E010E08C81813069F0E8F0823039F56B
:102DF000D6011C96ED91FC911D976A81888199817D
:102E000019951DC08D818F5F8A3010F48D8317C096
:102E10001D82D6011C96ED91FC911D976A818881D7
:102E2000998119950CC08D81882331F0812F9EDF07
:102E30008D8181508D8303C00C83812F69DF1F5FDB
:102E40002696143079F685E090E0E1D8C8CFCF928D
:102E5000DF92EF92FF920F931F93CF93DF93062F92
:102E60000F2EF9E2EF2EFBE0FF2EF02DD701189682
:102E7000ED91FC91199766E087E290E01995C8EB17
:102E8000D9E00F2EF8E2CF2ED12CF02DD982C882B6
:102E900086E08A831B8214E01C8380E039DFD7013F
:102EA0001896ED91FC91199767E087E290E01995EB
:102EB000DF82CE8287E0888719861A8781E028DF43
:102EC000D7011896ED91FC91199765E083E390E0A6
:102ED0001995D7011896ED91FC91199761E084E35B
:102EE00090E0199584E390E09D878C8785E08E873C
:102EF0001F86188B82E00CDFD7011896ED91FC91AC
:102F0000199764E081E091E01995D7011896ED9149
:102F1000FC91199761E082E091E0199582E091E0DF
:102F20009B8B8A8B1C8B1D8A1E8B83E0F1DEE12C30
:102F3000F12C20E030E040EC50E061E676E084EEF9
:102F400096E10E946F0DDF91CF911F910F91FF903D
:102F5000EF90DF90CF9008950F931F93CF93DF935F
:102F60001F921F92CDB7DEB78C0119822DC0E09160
:102F7000340AEC3250F481E08E0F8093340AF0E092
:102F8000EC59F54F8A81808302C01092340A8A81FD
:102F90008A30D1F44091340A50E0FA01EE59F54FED
:102FA0001082415051099E012F5F3F4F64E67AE045
:102FB0008091350A9091360A0E94200C89818111F6
:102FC0000E947D061092340ABE016E5F7F4FC801D9
:102FD000A7D5882361F20F900F90DF91CF911F91B9
:102FE0000F9108950F931F93CF93DF938C01EB0103
:102FF0008091350A9091360A0E94E10BB80180ED6C
:1030000099E00E947825209779F0E0EDF9E00190B1
:103010000020E9F7319780E290E091838083BE0140
:1030200080ED99E00E946D25E0EDF9E0DF010D9063
:103030000020E9F711978DE09AE011969C938E930A
:1030400012961C9201900020E9F73197E05DF9405B
:10305000AE2F80ED99E0AC016A2F8091370A9091F4
:10306000380A0ED581110FC028E235E04DE250E05C
:103070006EEB7AE08091350A9091360A0E94620CDC
:103080008EEB9AE002C080E090E0DF91CF911F913B
:103090000F910895AF92BF92CF92DF92EF92FF927D
:1030A0000F931F93CF93DF936C01FC0101900020DD
:1030B000E9F731977F01E81AF90A0DEE18E0C0E050
:1030C000D0E0F80160817181A701C6010E947F25CF
:1030D000892B49F4FE01EE0FFF1FEC0FFD1FE45199
:1030E000F74F808107C021960D5F1F4FC131D10579
:1030F00041F780E1DF91CF911F910F91FF90EF9009
:10310000DF90CF90BF90AF9008956CDFC3CF08954C
:103110008091350A9091360A0C94E10B08958F92B4
:103120009F92AF92CF92EF920F93CF93C82F41E02F
:1031300060E070E088EC90E00E94B50B9093360A56
:103140008093350A0F2EFCEA8F2EF7E19F2EF02D8B
:103150006894AA24A6F86894CC24C6F8E12C00E070
:1031600023E040E051EE60E070E08C2FCED39093EE
:10317000380A8093370AE091310BF091320B64E00A
:1031800087E091E01995CF910F91EF90CF90AF909C
:103190009F908F900895882349F0E0913B0BF09128
:1031A0003C0B64E088E091E019950895E091310BC3
:1031B000F091320B64E088E091E01995089560E0A9
:1031C00070E088E896E00EDFEEEBFAE00190002078
:1031D000E9F73197EE5BFA4081E0759708F080E0FF
:1031E0000895CF93DF93EC0160E070E089E996E009
:1031F000F9DEEEEBFAE001900020E9F7EF5CFA402F
:1032000039F46EEB7AE0CE010E94782580E002C0AE
:10321000188281E0DF91CF910895FC010190002098
:10322000E9F79F01215131092817390729F4BC0119
:1032300087EC96E06ACF089589E00895FC0101903B
:103240000020E9F79F01215131092817390729F496
:10325000BC0186ED96E059CF089589E00895FC0100
:1032600001900020E9F79F01215231092817390701
:1032700029F4BC0185EE96E048CF089589E00895D1
:1032800060E070E084E297E040CF0895E82FF0E03E
:10329000EE0FFF1FE851F74F608171818DE297E0DB
:1032A00034DF811112C028E235E04DE250E06EEBD0
:1032B0007AE08091350A9091360A0E94620C882348
:1032C00021F08EEB9AE0E6CE08958EEB9AE0E2CE06
:1032D0000895CF93DF931F92CDB7DEB7DB01119630
:1032E0009C911197953108F087C0992381F160E096
:1032F00070E0272F30E0462F50E0FD01E40FF51F6E
:10330000928192959F709A3010F0995C01C0905D07
:10331000F901E15BF54F90832F5F3F4FFD01E40F13
:10332000F51F92819F70492F50E04A30510514F0EB
:10333000995C01C0905DF901E15BF54F90837E5F80
:103340006F5F11969C911197691798F201C070E018
:10335000E72FF0E0E15BF54F10824C91811103C043
:1033600086E397E002C088E397E02FE43AE03F93DA
:103370002F931F924F939F938F938CE397E09F938C
:103380008F9381E99AE09F938F930E94DA2560E002
:1033900070E081E99AE0B9DE0FB6F894DEBF0FBEA7
:1033A000CDBF8E3051F587E08983BE016F5F7F4FBF
:1033B0008EEB9AE030D18093390AE981F0E0E25453
:1033C000F54FDF010D900020E9F71197AE1BBF0B01
:1033D000AA2381F0BB271197CD010AF40196959598
:1033E000879580933A0AAF014F5F5F4F64E18BE3AB
:1033F0009AE03DD18EE001C084E10F90DF91CF9142
:103400000895813019F06CE477E002C06CE078E058
:1034100080E597E07ACE08952F923F924F925F9287
:103420006F927F928F929F92AF92BF92CF92DF92D4
:10343000EF92FF920F931F93CF93DF93CDB7DEB739
:10344000A0970FB6F894DEBF0FBECDBF65E977E059
:1034500081EA97E0C7DD1EDE8111A3C080E2E1E2D0
:10346000F2E0DE01119601900D928A95E1F79E013E
:103470002F5F3F4F6901E12CF12C0F2EFDEAAF2E9B
:10348000F7E0BF2EF02D01E91AE00F2EF6EC4F2EDB
:10349000F7E05F2EF02D0F2EFDED8F2EF7E09F2E23
:1034A000F02D0F2EF7EF6F2EF7E07F2EF02D3E2C34
:1034B0002F2CFF92EF92BF92AF921F930F930E9417
:1034C000DA2560E070E0C8018DDDE4DD0F900F903B
:1034D0000F900F900F900F90811163C032E03E1556
:1034E000E8F4F60183818F9382818F9381818F939A
:1034F00080818F93FF92EF925F924F921F930F9371
:103500000E94DA2560E070E0C8016CDDC3DD0FB613
:10351000F894DEBF0FBECDBF811143C02F923F9202
:103520009F928F921F930F930E94DA2560E070E0C4
:10353000C80158DDAFDD0F900F900F900F900F90E6
:103540000F9081112EC02F923F927F926F921F9306
:103550000F930E94DA2560E070E0C80143DD9ADD38
:103560000F900F900F900F900F900F90811119C036
:103570003FEFE31AF30A84E0C80ED11C98E0E91685
:10358000F10409F094CF60E070E08FE098E02ADD6C
:1035900081DD811106C060E070E080E298E022DD0C
:1035A00079DDA0960FB6F894DEBF0FBECDBFDF91D8
:1035B000CF911F910F91FF90EF90DF90CF90BF9030
:1035C000AF909F908F907F906F905F904F903F90C3
:1035D0002F900895EF92FF920F931F93CF93DF9355
:1035E000EC018B017A0181E00CDF81110DC0CE016D
:1035F00025DE811109C0C80132DE811105C0C70175
:103600000CDE811101C03CDEDF91CF911F910F9143
:10361000FF90EF900895DC01009729F1FB012081D4
:10362000FC0101900020E9F73197E81BF90B822F8C
:1036300090E0E817F907C8F080E008C0880F382F3D
:10364000330F330F830F8053890F2F5FFD01E20F7C
:10365000F11D908130ED390F3A3010F49111EECF19
:10366000FB012083089580E0089580E008950F9382
:103670001F93CF93DF93DC01EA012097E1F1FA0178
:1036800001900020E9F73197E41BF50B329710F514
:1036900032C08D01040F151F30E0AE01420F531FE1
:1036A000FA019081913428F09753592F5295507F09
:1036B00003C0592F5295507F2C0F3D1FF901918166
:1036C000913410F0975301C09053950FF8019083F7
:1036D0008F5F01C080E0282F220F482F50E0FE01AD
:1036E00001900020E9F73197EC1BFD0B4E175F07A7
:1036F00010F48613CECFDF91CF911F910F910895D3
:10370000FC0180810895FC01208181E090E002C0ED
:10371000880F991F6A95E2F782230895FC01808142
:1037200086230895FC0160830895FC0110820895AA
:10373000FC01408121E030E002C0220F331F6A9576
:10374000E2F7242B20830895FC012081622B608303
:103750000895FC01408121E030E002C0220F331FB8
:103760006A95E2F7242720830895FC0120816227CF
:1037700060830895FC01908121E030E002C0220FB7
:10378000331F6A95E2F72095292320830895FC01D1
:10379000908160956923608308958091EE0A860F79
:1037A0008093EE0A9091F10A913079F028F09230EE
:1037B000A9F0933019F108956F3F09F048C01092B5
:1037C000EE0A81E08093F10A0895663809F03FC05F
:1037D0001092ED0A82E08093F10A0895E091ED0ADB
:1037E00081E08E0F8093ED0AF0E0E551F54F6083A4
:1037F000823069F583E08093F10A08959091ED0A93
:1038000021E0290F2093ED0A963009F581110EC0B1
:10381000EBEEFAE0808190E0982F88272181820FDB
:10382000911D9093F30A8093F20A04C01092F30A58
:103830001092F20A1092F10AE091EF0AF091F00A68
:10384000309729F08091F20A9091F30A1995089522
:103850008F929F92AF92CF92EF920F93CF93DF937D
:10386000EB010F2EFDEC8F2EFBE19F2EF02D6894C7
:10387000AA24A4F86894CC24C4F8E12C00E023E046
:1038800040E855E260E070E040D09093F50A809304
:10389000F40AD093F00AC093EF0ADF91CF910F9111
:1038A000EF90CF90AF909F908F900895CF93DF933C
:1038B000CDB7DEB729970FB6F894DEBF0FBECDBFE8
:1038C00089E0E1E4F2E09E012F5F3F4FD9010190D2
:1038D0000D928A95E1F71092F30A1092F20A809104
:1038E000F40A9091F50A009731F0422F532F69E0C6
:1038F000C7D080E001C082E029960FB6F894DEBF01
:103900000FBECDBFDF91CF9108952F923F924F927E
:103910005F926F927F928F929F92AF92CF92EF922F
:10392000FF920F931F93CF93DF93CDB7DEB7F82E9F
:103930002A013B0188E090E09BD78C018F2D90E01D
:10394000880F991FFC01EA50F54F11830083FC0199
:10395000E65FFD4F80819181D8018D939C936C2D02
:1039600070E084E090E06AD71C0161E070E086E0DE
:1039700090E064D77C014C2DB1012BD5F801F58284
:10398000E4826A2D70E084E090E058D71C0161E089
:1039900070E086E090E052D77C014A2DB10119D544
:1039A000D8011396FC92EE92129717969C928E92E3
:1039B0001697FFB6F894ED91FC9111973697808198
:1039C000826080838D909C90C301B2011CD620E060
:1039D00030E040E051E4A5D69B01AC0160E074E228
:1039E00084E79BE477D520E030E040E85FE30DD545
:1039F000DED5F40132976083D801ED91FC911197E7
:103A0000359788E98083ED91FC91349786E0808337
:103A1000FFBEC801DF91CF911F910F91FF90EF90F2
:103A2000CF90AF909F908F907F906F905F904F90CE
:103A30003F902F900895CF93DF93EC01EA81FB81B3
:103A4000938182812581981B922384819817A1F00C
:103A5000938126952923A081B181A20FB11D6C937A
:103A60009F5F258192239383E881F9813597808137
:103A70008062808380E001C082E0DF91CF91089571
:103A8000EF92FF920F931F93CF93DF937C01DC01A2
:103A90001296ED91FC91139793818281981B8581F9
:103AA00098238481891B861798F1662341F1842F1E
:103AB000952FDC016150462F50E04F5F5F4F480F5C
:103AC000591FE701EA81FB81938182812581981B3F
:103AD00092238481981779F08C91938126952923DC
:103AE000608171818B01020F111DE80188839F5F46
:103AF0008581982393831196A417B50711F7D701F1
:103B0000ED91FC91359780818062808380E001C0D7
:103B100082E0DF91CF911F910F91FF90EF90089578
:103B2000DC011496ED91FC91159793818281981791
:103B300089F09281858186958923A081B181A80F22
:103B4000B11D8C91DB018C939F5F858198239283BB
:103B500080E0089583E008951F920F920FB60F92B0
:103B600011240BB60F922F933F934F935F936F9354
:103B70007F938F939F93AF93BF93CF93DF93EF93F5
:103B8000FF93A091F60AB091F70A109711F1609196
:103B9000C6001496ED91FC91159793818281258141
:103BA000981B92238481981761F08381269528239E
:103BB000C081D181C20FD11D68838F5F9581892318
:103BC00083831696ED91FC911797309711F0CD01F4
:103BD0001995FF91EF91DF91CF91BF91AF919F9197
:103BE0008F917F916F915F914F913F912F910F90A6
:103BF0000BBE0F900FBE0F901F9018951F920F9243
:103C00000FB60F9211240BB60F922F938F939F93A1
:103C1000AF93BF93EF93FF93E091F60AF091F70A09
:103C20003097B9F00280F381E02D9381828198175B
:103C3000B1F092818581282F26952923A081B18119
:103C4000A20FB11D2C919F5F892382832093C60010
:103C50000BC0E1ECF0E080818F7D808305C0E1EC5A
:103C6000F0E080818F7D8083FF91EF91BF91AF91D4
:103C70009F918F912F910F900BBE0F900FBE0F90C1
:103C80001F9018951F920F920FB60F9211240BB62A
:103C90000F922F933F934F935F936F937F938F93E5
:103CA0009F93AF93BF93CF93DF93EF93FF93A09135
:103CB000F80AB091F90A109711F16091CE001496AC
:103CC000ED91FC911597938182812581981B922318
:103CD0008481981761F0838126952823C081D18142
:103CE000C20FD11D68838F5F9581892383831696C8
:103CF000ED91FC911797309711F0CD011995FF9137
:103D0000EF91DF91CF91BF91AF919F918F917F9173
:103D10006F915F914F913F912F910F900BBE0F903C
:103D20000FBE0F901F9018951F920F920FB60F9213
:103D300011240BB60F922F938F939F93AF93BF9342
:103D4000EF93FF93E091F80AF091F90A3097B9F0F8
:103D50000280F381E02D938182819817B1F09281E6
:103D60008581282F26952923A081B181A20FB11D1D
:103D70002C919F5F892382832093CE000BC0E9ECB6
:103D8000F0E080818F7D808305C0E9ECF0E08081E8
:103D90008F7D8083FF91EF91BF91AF919F918F9124
:103DA0002F910F900BBE0F900FBE0F901F90189584
:103DB0001F920F920FB60F9211240BB60F922F93F2
:103DC0003F934F935F936F937F938F939F93AF93A3
:103DD000BF93CF93DF93EF93FF93A091FA0AB09133
:103DE000FB0A109711F16091D6001496ED91FC91A9
:103DF0001597938182812581981B9223848198173E
:103E000061F0838126952823C081D181C20FD11D05
:103E100068838F5F9581892383831696ED91FC914A
:103E20001797309711F0CD011995FF91EF91DF9120
:103E3000CF91BF91AF919F918F917F916F915F9142
:103E40004F913F912F910F900BBE0F900FBE0F908F
:103E50001F9018951F920F920FB60F9211240BB658
:103E60000F922F938F939F93AF93BF93EF93FF93F3
:103E7000E091FA0AF091FB0A3097B9F00280F381E1
:103E8000E02D938182819817B1F092818581282F4E
:103E900026952923A081B181A20FB11D2C919F5F8E
:103EA000892382832093D6000BC0E1EDF0E080816E
:103EB0008F7D808305C0E1EDF0E080818F7D808380
:103EC000FF91EF91BF91AF919F918F912F910F90A3
:103ED0000BBE0F900FBE0F901F9018951F920F9260
:103EE0000FB60F9211240BB60F922F933F934F935F
:103EF0005F936F937F938F939F93AF93BF93CF9372
:103F0000DF93EF93FF93A091FC0AB091FD0A109705
:103F100011F1609136011496ED91FC911597938102
:103F200082812581981B92238481981761F0838177
:103F300026952823C081D181C20FD11D68838F5F50
:103F40009581892383831696ED91FC91179730977D
:103F500011F0CD011995FF91EF91DF91CF91BF91B4
:103F6000AF919F918F917F916F915F914F913F9111
:103F70002F910F900BBE0F900FBE0F901F901895B2
:103F80001F920F920FB60F9211240BB60F922F9320
:103F90008F939F93AF93BF93EF93FF93E091FC0AAE
:103FA000F091FD0A3097B9F00280F381E02D938102
:103FB00082819817B1F092818581282F2695292337
:103FC000A081B181A20FB11D2C919F5F89238283B3
:103FD000209336010BC0E1E3F1E080818F7D808387
:103FE00005C0E1E3F1E080818F7D8083FF91EF9157
:103FF000BF91AF919F918F912F910F900BBE0F901A
:104000000FBE0F901F901895CF93DF931F92CDB7DF
:10401000DEB7BE016F5F7F4F8091FE0A9091FF0A6D
:104020007FDD8111F6CF898190E00F90DF91CF91F4
:104030000895682F8091FE0A9091FF0AFCDC80E0D1
:1040400090E008958F929F92AF92CF92EF920F934C
:10405000812C912C6894AA24A7F86894CC24C7F8E2
:10406000E12C00E023E040E051EE60E070E04DDC48
:104070009093FF0A8093FE0AE3E4FBE082E192E082
:1040800091838083938382830F91EF90CF90AF9041
:104090009F908F90089580910E0B81110CC08CE041
:1040A0008093B8008FEF8093BB0084E08093BC00C6
:1040B00081E080930E0B0895AF92BF92CF92DF9272
:1040C000EF92FF920F931F93CF93DF93A82EB62EFC
:1040D00069017A0184E090E0CBD3EC01892B61F196
:1040E000A88281E0B81212C0C701B60120EA36E802
:1040F00041E050E079D3DA01C9014097A109B10943
:10410000B695A79597958795898311C0C701B60184
:1041100020E83AE146E050E067D3DA01C901409770
:10412000A109B109B695A7959795879589831B83B2
:104130000A838C2F9D2F02C080E090E0DF91CF9109
:104140001F910F91FF90EF90DF90CF90BF90AF90B5
:1041500008958091BC0081700895FF920F931F9382
:10416000CF93DF930097D1F14A30D0F5F42E8B0135
:10417000EC01EFDF811136C08091010B9091020BB1
:10418000C817D90741F087DF89818093B800D093A1
:10419000020BC093010B81E08F0D8093030B88818C
:1041A000880F8093040BFF2089F0F801A5E0BBE0A5
:1041B0004FEF4F0D642F70E0CB010196B801680FEF
:1041C000791F81918D93E617F707D9F788EF8093D0
:1041D000200285EA8093BC0084E005C086E003C02D
:1041E00087E001C082E0DF91CF911F910F91FF9096
:1041F00008951F93CF93DF93009729F16B3028F533
:10420000162FEC01A6DF811122C08091010B909145
:10421000020BC817D90741F03EDF89818093B800AF
:10422000D093020BC093010B1093030B8881880F6E
:1042300081608093040B88EF8093200285EA80934D
:10424000BC0085E005C086E003C087E001C082E0D5
:10425000DF91CF911F9108951F920F920FB60F9289
:1042600011240BB60F922F933F934F935F936F934D
:104270007F938F939F93AF93BF93EF93FF93E091BF
:10428000B9008E2F90E0FC013897E135F10508F078
:1042900075C08827E458FF4F8F4FC8C21092000B9B
:1042A000E091000B8091030BE81770F481E08E0F12
:1042B0008093000BF0E0EC5FF44F80818093BB00B3
:1042C00085E88093BC0072C084E98093BC00809133
:1042D000010B9091020BDC011296ED91FC9113976A
:1042E000309709F463C020E040E050E064E01995A5
:1042F0005DC0E091000B81E08E0F8093000B8091F8
:10430000BB00F0E0EC5FF44F80838091B900803413
:1043100011F41092000B2091000B30E08091030B00
:1043200090E001972817390724F485EC8093BC00AE
:104330003DC085E88093BC0039C08091BB00E0910E
:10434000000BF0E0EC5FF44F808384E98093BC00C5
:104350008091010B9091020BDC011296ED91FC9182
:104360001397309719F12091030B44E05BE065E06F
:1043700019951CC085EA8093BC0018C08091B900D3
:104380008093200284E08093BC008091010B909187
:10439000020BDC011296ED91FC911397309731F0EE
:1043A00020E040E050E0609120021995FF91EF91EC
:1043B000BF91AF919F918F917F916F915F914F913D
:1043C0003F912F910F900BBE0F900FBE0F901F903B
:1043D0001895FC01411101C06CD3842F90E09C0121
:1043E0002150310982239323892B09F062D341386C
:1043F00008F05FD3128213824483440F41504583F7
:104400007183608380E090E008955058BB27AA270D
:104410000ED04DC13ED130F043D120F031F49F3F5A
:1044200011F41EF433C10EF4E095E7FB29C1E92F26
:104430004FD180F3BA17620773078407950718F006
:1044400071F49EF567C10EF4E0950B2EBA2FA02DE6
:104450000B01B90190010C01CA01A0011124FF2731
:10446000591B99F0593F50F4503E68F11A16F0402C
:10447000A22F232F342F4427585FF3CF469537952B
:104480002795A795F0405395C9F77EF41F16BA0BF0
:10449000620B730B840BBAF09150A1F0FF0FBB1F9E
:1044A000661F771F881FC2F70EC0BA0F621F731FE7
:1044B000841F48F4879577956795B795F7959E3F44
:1044C00008F0B3CF9395880F08F09927EE0F9795D2
:1044D000879508950CD0EBC0E3D040F0DAD030F0EF
:1044E00021F45F3F19F0CCC0511115C1CFC0F0D0FD
:1044F00098F39923C9F35523B1F3951B550BBB27AB
:10450000AA2762177307840738F09F5F5F4F220F57
:10451000331F441FAA1FA9F333D00E2E3AF0E0E850
:1045200030D091505040E695001CCAF729D0FE2F9C
:1045300027D0660F771F881FBB1F2617370748072E
:10454000AB07B0E809F0BB0B802DBF01FF279358E4
:104550005F4F2AF09E3F510568F092C0DCC05F3F7C
:10456000ECF3983EDCF3869577956795B795F795CC
:104570009F5FC9F7880F911D9695879597F90895C4
:10458000E1E0660F771F881FBB1F62177307840760
:10459000BA0720F0621B730B840BBA0BEE1F88F76F
:1045A000E095089504D06894B111B5C0089598D0ED
:1045B00088F09F5790F0B92F9927B751A0F0D1F00C
:1045C000660F771F881F991F1AF0BA95C9F712C096
:1045D000B13081F09FD0B1E008959CC0672F782F53
:1045E0008827B85F39F0B93FCCF386957795679502
:1045F000B395D9F73EF490958095709561957F4F6E
:104600008F4F9F4F0895E89409C097FB3EF4909513
:104610008095709561957F4F8F4F9F4F9923A9F09B
:10462000F92F96E9BB279395F6958795779567952A
:10463000B795F111F8CFFAF4BB0F11F460FF1BC06E
:104640006F5F7F4F8F4F9F4F16C0882311F096E901
:1046500011C0772321F09EE8872F762F05C06623AF
:1046600071F096E8862F70E060E02AF09A95660F68
:10467000771F881FDAF7880F9695879597F9089521
:1046800097F99F6780E870E060E008959FEF80EC05
:10469000089500240A9416161706180609060895A8
:1046A00000240A9412161306140605060895092E0E
:1046B0000394000C11F4882352F0BB0F40F4BF2B7D
:1046C00011F460FF04C06F5F7F4F8F4F9F4F0895BD
:1046D00057FD9058440F551F59F05F3F71F04795B3
:1046E000880F97FB991F61F09F3F79F08795089598
:1046F000121613061406551FF2CF4695F1DF08C0B7
:10470000161617061806991FF1CF869571056105D3
:1047100008940895E894BB2766277727CB0197F97B
:1047200008950BD0C4CFB5DF28F0BADF18F0952379
:1047300009F0A6CFABCF1124EECFCADFA0F3959F2F
:10474000D1F3950F50E0551F629FF001729FBB2778
:10475000F00DB11D639FAA27F00DB11DAA1F649F24
:104760006627B00DA11D661F829F2227B00DA11DD7
:10477000621F739FB00DA11D621F839FA00D611D5D
:10478000221F749F3327A00D611D231F849F600D7E
:10479000211D822F762F6A2F11249F5750408AF0B7
:1047A000E1F088234AF0EE0FFF1FBB1F661F771F43
:1047B000881F91505040A9F79E3F510570F060CF7F
:1047C000AACF5F3FECF3983EDCF38695779567952B
:1047D000B795F795E7959F5FC1F7FE2B880F911D61
:1047E0009695879597F90895A1E21A2EAA1BBB1BEF
:1047F000FD010DC0AA1FBB1FEE1FFF1FA217B307AD
:10480000E407F50720F0A21BB30BE40BF50B661FC2
:10481000771F881F991F1A9469F760957095809586
:1048200090959B01AC01BD01CF010895EE0FFF1FD4
:10483000881F8BBF0790F691E02D19940F931F935B
:10484000CF93DF93869F8001879F100D969F100D59
:104850001124C8010DD0EC01009721F0A80160E0FF
:1048600070E034D1CE01DF91CF911F910F91089567
:104870000F931F93CF93DF938230910510F482E062
:1048800090E0E091410BF091420B20E030E0A0E09D
:10489000B0E0309719F140815181028113814817AE
:1048A0005907C8F08417950769F4109731F01296EC
:1048B0000C93129713961C9327C00093410B1093EF
:1048C000420B22C02115310519F04217530718F485
:1048D0009A01BD01EF01DF01F801DBCF21153105A0
:1048E000F9F0281B390B2430310580F48A819B8133
:1048F0006115710521F0FB019383828304C09093BD
:10490000420B8093410BFE01329644C0FE01E20F40
:10491000F31F8193919322503109398328833AC040
:1049200020913F0B3091400B232B41F42091020248
:10493000309103023093400B20933F0B20910002F3
:10494000309101022115310541F42DB73EB7409158
:10495000040250910502241B350BE0913F0BF091AE
:10496000400BE217F307A0F42E1B3F0B2817390763
:1049700078F0AC014E5F5F4F2417350748F04E0FBB
:104980005F1F5093400B40933F0B8193919302C064
:10499000E0E0F0E0CF01DF91CF911F910F910895FA
:1049A000CF93DF93009709F481C0FC013297138203
:1049B0001282A091410BB091420B109781F420819B
:1049C0003181820F931F20913F0B3091400B2817AC
:1049D000390751F5F093400BE0933F0B67C0ED01B1
:1049E00020E030E0CE17DF0740F44A815B819E0172
:1049F00041155105F1F0EA01F5CFD383C28340811F
:104A00005181840F951FC817D90759F4888199815E
:104A1000840F951F0296918380838A819B81938363
:104A200082832115310529F4F093420BE093410B69
:104A30003DC0E901FB83EA8349915991C40FD51F19
:104A4000EC17FD0761F480819181840F951F029618
:104A5000E90199838883828193819B838A83E0E043
:104A6000F0E012968D919C911397009719F0FD013B
:104A7000DC01F7CF8D919C9111979D012E5F3F4FE7
:104A8000820F931F20913F0B3091400B281739075D
:104A900069F4309729F41092420B1092410B02C036
:104AA00013821282B093400BA0933F0BDF91CF9102
:104AB000089581E090E0F89458C3FB01DC0102C046
:104AC00001900D9241505040D8F70895DC0101C08B
:104AD0006D9341505040E0F70895FB01DC010D90CB
:104AE0000020E9F7119701900D920020E1F7089559
:104AF000FB01DC0101900D920020E1F70895FB011C
:104B0000DC014150504088F08D9181341CF08B3590
:104B10000CF4805E619161341CF06B350CF4605EC6
:104B2000861B611171F3990B0895881BFCCFCF93FD
:104B3000DF93CDB7DEB7AE014A5F5F4FFA016191F7
:104B40007191AF018091450B9091460B61D0DF913F
:104B5000CF9108950F931F93CF93DF93E091450B6F
:104B6000F091460B238121FF1BC08C01D0E0C0E0F7
:104B7000F80181918F016091450B7091460BDB012B
:104B80001896ED91FC911997882331F01995892B8E
:104B900079F3DFEFCFEFECCF8AE01995892B19F08D
:104BA0008FEF9FEF02C08D2F9C2FDF91CF911F9130
:104BB0000F9108950F931F93CF93DF93CDB7DEB777
:104BC0002E970FB6F894DEBF0FBECDBF0E891F899A
:104BD00086E08C831A8309838FEF9FE79E838D8302
:104BE000AE01465E5F4F688D798DCE01019610D083
:104BF000EF81F885E00FF11F10822E960FB6F89422
:104C0000DEBF0FBECDBFDF91CF911F910F910895F1
:104C10002F923F924F925F926F927F928F929F92CC
:104C2000AF92BF92CF92DF92EF92FF920F931F93BA
:104C3000CF93DF93CDB7DEB72B970FB6F894DEBFD7
:104C40000FBECDBF6C017B018A01FC011782168269
:104C5000838181FFBFC1CE0101963C01F6019381A2
:104C6000F70193FD859193FF81917F01882309F4DA
:104C7000ADC1853239F493FD859193FF81917F0118
:104C8000853221F4B60190E0D6D1E8CF912C212CC9
:104C9000312CFFE1F315D8F08B3279F038F4803203
:104CA00079F08332A1F4232D20611DC08D3261F093
:104CB000803369F4232D216016C0832D8260382E45
:104CC000E32DE4603E2E2AC0F32DF8601DC037FCB2
:104CD0002DC020ED280F2A3040F08E32B9F436FC7A
:104CE00075C1232D2064322E19C036FE06C08AE01D
:104CF000989E200D1124922E11C0EAE02E9E200DC8
:104D00001124222EF32DF0623F2E08C08C3621F4A0
:104D1000832D8068382E02C0883641F4F70193FD58
:104D2000859193FF81917F018111B3CF982F9F7D52
:104D30009554933028F40C5F1F4F9FE399830DC067
:104D4000833631F0833771F0833509F055C020C0C8
:104D5000F801808189830E5F1F4F88248394912CF2
:104D6000530112C02801F2E04F0E511CF801A0803F
:104D7000B18036FE03C0692D70E002C06FEF7FEF97
:104D8000C5014ED14C018201F32DFF773F2E15C096
:104D9000280122E0420E511CF801A080B18036FEAD
:104DA00003C0692D70E002C06FEF7FEFC5012DD108
:104DB0004C01F32DF0683F2E820133FC19C0822D87
:104DC00090E088169906A0F4B60180E290E033D115
:104DD0002A94F5CFF50137FC859137FE81915F016B
:104DE000B60190E028D121102A9421E0821A91087E
:104DF0008114910479F7E1C0843611F0893639F5D0
:104E0000F80137FE07C060817181828193810C5F58
:104E10001F4F08C060817181072E000C880B990B11
:104E20000E5F1F4FF32DFF763F2E97FF09C0909521
:104E30008095709561957F4F8F4F9F4FF0683F2E03
:104E40002AE030E0A30133D1882E861844C085378C
:104E500031F4232D2F7EB22E2AE030E025C0932D91
:104E6000997FB92E8F36C1F018F4883579F0AEC02D
:104E7000803719F0883721F0A9C0E92FE061BE2EF4
:104E8000B4FE0DC0FB2DF460BF2E09C034FE0AC075
:104E9000292F2660B22E06C028E030E005C020E1B0
:104EA00030E002C020E132E0F801B7FE07C06081C7
:104EB0007181828193810C5F1F4F06C06081718177
:104EC00080E090E00E5F1F4FA301F1D0882E86187E
:104ED000FB2DFF773F2E36FE0DC0232D2E7FA22EF9
:104EE000891458F434FE0BC032FC09C0832D8E7E29
:104EF000A82E05C0B82CA32C03C0B82C01C0B92C17
:104F0000A4FE0FC0FE01E80DF11D8081803321F465
:104F10009A2D997EA92E09C0A2FE06C0B394B3941F
:104F200004C08A2D867809F0B394A3FC10C0A0FEBB
:104F300006C0B21480F4280C922C9B180DC0B21439
:104F400058F4B60180E290E076D0B394F8CFB21472
:104F500018F42B1802C0982C212CA4FE0FC0B60107
:104F600080E390E068D0A2FE16C0A1FC03C088E7F1
:104F700090E002C088E590E0B6010CC08A2D8678EA
:104F800051F0A1FE02C08BE201C080E2A7FC8DE2DD
:104F9000B60190E050D0891430F4B60180E390E07F
:104FA0004AD09A94F8CF8A94F301E80DF11D8081DC
:104FB000B60190E040D08110F6CF222009F44ECE09
:104FC000B60180E290E037D02A94F7CFF6018681CF
:104FD000978102C08FEF9FEF2B960FB6F894DEBF3C
:104FE0000FBECDBFDF91CF911F910F91FF90EF903A
:104FF000DF90CF90BF90AF909F908F907F906F90F9
:105000005F904F903F902F900895FC010590615064
:1050100070400110D8F7809590958E0F9F1F0895CE
:10502000FC016150704001900110D8F78095909577
:105030008E0F9F1F08950F931F93CF93DF93FB0154
:10504000238121FD03C08FEF9FEF2CC022FF16C0EC
:1050500046815781248135814217530744F4A0814A
:10506000B1819D012F5F3F4F318320838C93268137
:1050700037812F5F3F4F3783268314C08B01EC01AC
:10508000FB010084F185E02D1995892BE1F6D8010B
:1050900016968D919C911797019617969C938E93D7
:1050A0001697CE01DF91CF911F910F910895FA01CC
:1050B000AA27283051F1203181F1E8946F936E7F57
:1050C0006E5F7F4F8F4F9F4FAF4FB1E03ED0B4E048
:1050D0003CD0670F781F891F9A1FA11D680F791F89
:1050E0008A1F911DA11D6A0F711D811D911DA11D9A
:1050F00020D009F468943F912AE0269F11243019AA
:10510000305D3193DEF6CF010895462F4770405D44
:105110004193B3E00FD0C9F7F6CF462F4F70405DF3
:105120004A3318F0495D31FD4052419302D0A9F74E
:10513000EACFB4E0A6959795879577956795BA9548
:10514000C9F700976105710508959B01AC010A2E0E
:1051500006945795479537952795BA95C9F7620FE5
:0E516000731F841F951FA01D0895F894FFCFA4
:10516E000000490B200000400040C600CE00D600D3
:10517E00360100000003000000001920042000008A
:10518E00F8A027BE33E034C1332042C43360E5AE0D
:10519E0033A0F2B133E0FFB433200DB833601ABB45
:1051AE0033FF0186000000000079FF0179A00000A6
:1051BE000000E6FF0179000000000086FF01870075
:1051CE000000000078FF01880000000000006875F4
:1051DE006D6964697479203D202564200A00746528
:1051EE006D7065726174757265203D202564200AAC
:1051FE0000636F32203D202564200A0064617461D3
:10520E002073656E64007374617274206D61696ED3
:10521E00207461736B730A00737461727420746509
:10522E006D705F68756D5F7461736B0A0073746186
:10523E00727420636F325F7461736B0A00737461F2
:10524E007274206C6F726177616E5F7461736B0A3A
:10525E0000536F6D657468696E672057726F6E6765
:10526E0000464143544F5259205245534554204510
:10527E0052524F52006C6F72615F436F6E66696778
:10528E00757265206572726F72006C6F72615F6409
:10529E0072697665725F6765745F726E3234383329
:1052AE005F6877657569206572726F720038333981
:1052BE003064313563616264326261616234343606
:1052CE00386533376438386335346566610062613A
:1052DE003462313430663536326263373737006CBC
:1052EE006F72615F6472697665725F7365745F6F0A
:1052FE007461615F6964656E746974792065727238
:10530E006F7200796F752061726520636F6E6E65C6
:10531E0063746564005468652075706C696E6B20EB
:10532E006D6573736167652069732073656E742094
:10533E00616E64207468657265206973206E6F20DB
:10534E00646F776E6C696E6B206D657373616765E4
:10535E0020726563656976656400546865207570B2
:10536E006C696E6B206D6573736167652069732060
:10537E0073656E7420616E64206120646F776E6C4D
:10538E00696E6B206D65737361676520697320723A
:10539E00656365697665640050726F6772616D2032
:1053AE00737461727473006D61696E54696D6572A8
:1053BE00207573696E67207468652073656D617002
:1053CE00686F726520283530207365636F6E647365
:1053DE00290074656D706572617475726548756DBE
:1053EE00696469747943616C6C6261636B46756E56
:1053FE006374696F6E207573696E672074686520BB
:10540E0073656D6170686F72652028357365636FA3
:10541E006E64732900636F3243616C6C6261636BFF
:10542E0046756E6374696F6E207573696E6720744E
:10543E0068652073656D6170686F726520283573BD
:10544E0065636F6E647329006C6F726177616E4372
:10545E00616C6C6261636B46756E6374696F6E200E
:10546E007573696E67207468652073656D61706809
:10547E006F72652028357365636F6E647329006DD6
:10548E0061696E2074696D657220200A0074656D05
:10549E00705F68756D5F74696D6572200A00636F69
:1054AE00325F74696D6572200A006C6F726177618C
:1054BE006E2074696D6572200A00616C6C53656DA7
:1054CE006170686F726573207761732063726561B6
:1054DE00746564207375636365737366756C6C793C
:1054EE000074656D706572617475726548756D696D
:1054FE006469747953656D6170686F726520776148
:10550E00732063726561746564207375636365737C
:10551E007366756C6C7900636F3253656D6170687C
:10552E006F726520776173206372656174656420A4
:10553E007375636365737366756C6C79004C6F720B
:10554E006177616E20776173206372656174656443
:10555E00207375636365737366756C6C7900496E41
:10556E00697469616C697A6174696F6E206F662007
:10557E0068756D2074656D702073656E736F7273D0
:10558E00004552524F522057616B6575700045525F
:10559E00524F52206D656173737572650049444CAC
:1055AE004500546D72205376630048414C206C6563
:1055BE0064207461736B207374617274656421214D
:1055CE000048414C5F4C45440073797320726573FB
:1055DE006574006D6163207061757365006D616344
:1055EE0020726573756D65007379732066616374DF
:1055FE006F72795245534554007379732067657401
:10560E00206877657569006D616320676574206732
:10561E00776E62006D616320736574206C696E6BCA
:10562E0063686B202564006D61632073657420646C
:10563E006576657569006D616320736574206170B0
:10564E0070657569006D616320736574206170709B
:10565E006B6579006D616320736574206E776B7373
:10566E006B6579006D616320736574206170707372
:10567E006B6579006D616320736574206465766176
:10568E00646472006D61632073617665006D6163A1
:10569E00206A6F696E00756E636E66006D616320C1
:1056AE007478202573202564202573006F666600AC
:1056BE006D61632073657420616472006D61632097
:1056CE0067657420616472006D6163207365742078
:1056DE006472202564006D616320676574206472B6
:1056EE00006D61632073657420727864656C6179F6
:1056FE00312025640033203836393532353030309C
:10570E00006D61632073657420727832006D616381
:10571E002073657420636820646379636C6520254B
:10572E006420373939006D616320736574206368B6
:10573E00206672657120256420256C75006D61638D
:10574E002073657420636820647272616E676520D1
:10575E00256420302037006D6163207365742063EB
:10576E006820737461747573202564206F6E006DEC
:10577E0061632073657420707772696478203100DC
:10578E006D61632073657420726574782037006FC5
:10579E0074616100616270004B4559535F4E4F5406
:1057AE005F494E4954004E4F5F465245455F434850
:1057BE000053494C454E540042555359004D4143F8
:1057CE005F5041555345440044454E4945440041C0
:1057DE004343455054454400494E56414C49445F5D
:1057EE00504152414D004E4F545F4A4F494E454431
:1057FE0000494E56414C49445F444154415F4C452B
:10580E004E004652414D455F434F554E5445525FF3
:10581E004552525F52454A4F494E5F4E45454445AB
:10582E0044004D41435F54585F4F4B004D41435F21
:10583E0052585F4F4B004D41435F4552524F5200FD
:10584E00554E4B4E4F574E002F08340800D30801CB
:10585E000F03023808034608045108055808065D70
:10586E0008076808086F080978080A86080B910867
:10587E000CA2080DC2080ECC080FD60810E00800C6
:00000001FF
