S014000054656D705F50726F6A6563742E7372656344
S113000003C1000021C100001FC100001DC1000088
S11300101BC1000019C1000017C1000015C1000078
S113002013C1000011C100000FC100000DC1000088
S113003067C2000009C1000007C1000005C100003B
S113004003C1000001C10000FFC00000FDC00000AA
S1130050FBC00000B0C50000F7C00000F5C0000000
S11300600C94CA0C0C94A9080C94FB08EDC0000075
S1130070EBC00000E9C00000E7C00000E5C00000DC
S1130080E3C00000E1C00000DFC00000DDC00000EC
S11300900C943F090C949109D7C000000C94460EAF
S11300A0D3C00000D1C00000CFC00000CDC000000C
S11300B0CBC00000C9C00000C7C00000C5C000001C
S11300C0C3C00000C1C00000BFC000000C94D5092B
S11300D00C94270AB9C000000C946B0A0C94BD0A56
S11300E0B3C00000680ED80ED80ED80ED80ED80EA5
S11300F0D80ED80E680ED80ED80ED80ED80ED80E3C
S1130100D80ED80E6A0ED80ED80ED80ED80ED80E29
S1130110D80ED80ED80ED80ED80ED80ED80ED80EAB
S1130120D80ED80E6A0ED80ED80ED80ED80ED80E09
S1130130D80ED80ED80ED80ED80ED80ED80ED80E8B
S1130140D80ED80ED40ED80ED80ED80ED80ED80E7F
S1130150D80ED80E9F0ED80ED80ED80ED80ED80EA4
S1130160D80ED80ED80ED80ED80ED80ED80ED80E5B
S1130170D80ED80E930ED80ED80ED80ED80ED80E90
S1130180D80ED80EB70E07634236B79BD8A71A39D4
S1130190685618AEBAAB558C1D3CB7CC5763BD6DD1
S11301A0EDFD753EF6177231BF000000803F080078
S11301B00000BE922449123EABAAAA2ABECDCCCCE2
S11301C04C3E00000080BEABAAAAAA3E000000007C
S11301D0BF000000803F0000000000084178D3BB4E
S11301E04387D1133D190E3CC3BD4282AD2B3E68FB
S11301F0EC8276BED98FE1A93E4C80EFFFBE01C4EC
S1130200FF7F3F000000000011241FBECFEFD1E2AA
S1130210DEBFCDBF00E00CBF12E0A0E0B2E0EEEA2A
S1130220FCE200E00BBF02C007900D92A03DB107B5
S1130230D9F723E0A0EDB2E001C01D92A334B207C8
S1130240E1F71ED00C945516DBCE909338038093BF
S11302503703089565E271E083E0F1C508951DD682
S1130260882341F08EE492E09F938F930E9465135C
S11302700F900F900895809137039091380308955B
S113028080E00E941F0B78948EE592E09F938F93F9
S11302900E9465134DD0DEDF80E090E04FD443D45C
S11302A00F900F900F2EF6E6EF2EF2E0FF2EF02DBA
S11302B006E712E0C9E8D2E043D065D0782E692E73
S11302C060D0982E892E5DD06C01C9DFD4DFB82EA2
S11302D0A92E6F927F92FF92EF920E9465138F92E4
S11302E09F921F930F930E946513AF92BF92DF9367
S11302F0CF930E946513B60180E090E0DAD220E04B
S113030030E040E251E46DD241E07BD39FEF23ED36
S113031080E3915020408040E1F700C000008DB799
S11303209EB70C960FB6F8949EBF0FBE8DBFC4CF78
S1130330AED4811104C084E992E00C94781308953A
S1130340BDD4882321F083EA92E00E9478132FEF32
S113035080E792E0215080409040E1F700C0000027
S1130360C1D4882321F080EB92E00E9478132FEF10
S113037080E792E0215080409040E1F700C0000007
S11303800895F7C40895D1C40895E8E0F1E0908198
S1130390907F908390818F70982B90830895E8E0EC
S11303A0F1E08081807F80830895CF93DF939C0167
S11303B0FB01DC011196CD91DC911297D383C283AA
S11303C08C819D81958384838C819D81DC0113962E
S11303D07C936E9312977D836C8331872087F90118
S11303E080818F5F8083DF91CF910895CF93DF93D6
S11303F0FC01A085B185C281D381848195819D83CF
S11304008C83C481D581828193819B838A83119655
S11304108D919C911297E817F90731F484819581A5
S113042012969C938E931197118610868C9181500D
S11304308C938C91DF91CF9108950F920FB6F8941D
S11304400F920BB60F920CB60F921F9211242F929B
S11304503F924F925F926F927F928F929F92AF9250
S1130460BF92CF92DF92EF92FF920F931F932F933D
S11304703F934F935F936F937F938F939F93AF9328
S1130480BF93CF93DF93EF93FF93A0910103B091B8
S113049002030DB60D920EB60D9213BE52D0811109
S11304A007D1A0910103B0910203CD91CDBFDD919D
S11304B0DEBFFF91EF91DF91CF91BF91AF919F91FB
S11304C08F917F916F915F914F913F912F911F91E8
S11304D00F91FF90EF90DF90CF90BF90AF909F90DF
S11304E08F907F906F905F904F903F902F901F90D0
S11304F00F900CBE0F900BBE0F900FBE0F9008957F
S11305009CDF1895E091DB02F091DC02808181117F
S113051007C08FEF9FEF9093D2028093D10208958A
S1130520E091DB02F091DC020580F681E02D06808B
S1130530F781E02D828193819093D2028093D1023E
S11305400895CF92DF92EF92FF920F931F93CF9370
S1130550DF938091D002811195C0E090D702F09092
S1130560D8028FEFE81AF80AF092D802E092D70284
S1130570E114F104B1F48091DB029091DC0220914A
S1130580D9023091DA023093DC022093DB0290939B
S1130590DA028093D9028091D3028F5F8093D302D1
S11305A0B1DF8091D1029091D202E816F90610F4DD
S11305B0D12C50C0D12CCC24C394E091DB02F09117
S11305C0DC028081811107C08FEF9FEF9093D202EC
S11305D08093D1023FC0E091DB02F091DC02058000
S11305E0F681E02DC681D7818A819B81E816F906C0
S11305F028F49093D2028093D1022CC08E010E5F16
S11306001F4FC801F3DE8C899D89892B19F0CE0117
S11306100C96ECDE8E899091D602981710F4809394
S1130620D60290E09C01220F331F220F331F220FAA
S1130630331F820F931FB80183529D4FB6DEE091A2
S11306400103F09102039E898689981708F4B5CFB7
S1130650DC2CB3CFE0910103F0910203868990E092
S1130660FC01EE0FFF1FEE0FFF1FEE0FFF1F8E0F9B
S11306709F1FFC01E352FD4F8081823048F0DD244E
S1130680D39406C08091D5028F5F8093D502D12C7C
S11306908091D402882311F0DD24D3948D2DDF9131
S11306A0CF911F910F91FF90EF90DF90CF9008951D
S11306B08091D002882321F081E08093D4020895B0
S11306C01092D402E0910103F091020385A167DE48
S11306D0A0910103B0910203E0910103F0910203A0
S11306E02D913C918789908D8217930758F06091E2
S11306F00103709102038091010390910203675EEC
S11307007F4F62D02091D602822F90E0FC01EE0F41
S1130710FF1FEE0FFF1FEE0FFF1FE80FF91FE3523D
S1130720FD4F3081311111C02150822F90E0FC0126
S1130730EE0FFF1FEE0FFF1FEE0FFF1FE80FF91F55
S1130740E352FD4F3081332379F3AC01440F551F3D
S1130750440F551F440F551F480F591FDA01A35268
S1130760BD4F1196ED91FC9112970280F381E02D1B
S11307701296FC93EE93119740525D4FE417F507E0
S113078029F442815381FD0152834183FC01EE0F20
S1130790FF1FEE0FFF1FEE0FFF1F8E0F9F1FFC01A9
S11307A0E352FD4F0180F281E02D86819781909381
S11307B00203809301032093D602E0910103F09198
S11307C0020385A1E2CD0895279A2F9A2FEF87EA95
S11307D091E6215080409040E1F700C000001F9A4C
S11307E0F5CF0CD0BAC0B2D040F0A9D030F021F48B
S11307F05F3F19F09BC05111E4C09EC0BFD098F375
S11308009923C9F35523B1F3951B550BBB27AA278D
S113081062177307840738F09F5F5F4F220F331FFF
S1130820441FAA1FA9F333D00E2E3AF0E0E830D0CB
S113083091505040E695001CCAF729D0FE2F27D0CE
S1130840660F771F881FBB1F261737074807AB079C
S1130850B0E809F0BB0B802DBF01FF2793585F4F11
S11308602AF09E3F510568F061C0ABC05F3FECF3D6
S1130870983EDCF3869577956795B795F7959F5FD6
S1130880C9F7880F911D9695879597F90895E1E02A
S1130890660F771F881FBB1F621773078407BA0789
S11308A020F0621B730B840BBA0BEE1F88F7E095E4
S11308B00895E89409C097FB3EF49095809570954F
S11308C061957F4F8F4F9F4F9923A9F0F92F96E998
S11308D0BB279395F695879577956795B795F1110D
S11308E0F8CFFAF4BB0F11F460FF1BC06F5F7F4FAA
S11308F08F4F9F4F16C0882311F096E911C07723BC
S113090021F09EE8872F762F05C0662371F096E8C4
S1130910862F70E060E02AF09A95660F771F881F93
S1130920DAF7880F9695879597F9089597F99F6751
S113093080E870E060E008959FEF80EC0895002463
S11309400A941616170618060906089500240A9430
S113095012161306140605060895092E0394000CB6
S113096011F4882352F0BB0F40F4BF2B11F460FF45
S113097004C06F5F7F4F8F4F9F4F089557FD90586E
S1130980440F551F59F05F3F71F04795880F97FB4F
S1130990991F61F09F3F79F0879508951216130609
S11309A01406551FF2CF4695F1DF08C01616170638
S11309B01806991FF1CF869571056105089408956D
S11309C0E894BB2766277727CB0197F9089581B36D
S11309D08F6081BB2898289A21B381E090E0009031
S11309E0090302C0880F991F0A94E2F780958223B5
S11309F081BBE0910303F0910403309709F019954A
S1130A000895CF92DF92EF92FF920F931F93CF93AB
S1130A10DF936B017C01042F642F70E080E090E091
S1130A2048DF9B01AC0160E070E080E291E40E9449
S1130A308110A70196010E94151020E030E040E0EB
S1130A405FE30E94200F0E94C00F0E94910FAB0130
S1130A501FB7F894C9E0D3E00F2EF5E0EF2EF3E0D2
S1130A60FF2EF02D9A01ADECBCEC0E94101296956D
S1130A70879596958795969587959C01220F331FA8
S1130A80880F991F880F991F880F991F820F931F32
S1130A90FA01E81BF90BE154FD4F80818A939A0116
S1130AA00E941012AC015695479556954795569558
S1130AB04795CE15DF05B1F6002371F043E050E011
S1130AC0401B5109FA01EB5FFC4F808181608083F8
S1130AD0141615061CF01DC043E050E08091050378
S1130AE08C3F41F016C0FC01EB5FFC4F30813C3F72
S1130AF021F00FC080E090E020E0FC01EB5FFC4FB0
S1130B0010822F5F822F022E000C990B84179507F9
S1130B1054F31FBFDF91CF911F910F91FF90EF907E
S1130B20DF90CF90089585B5856085BD089585B51E
S1130B30887F85BD81B38F6081BB08958F92AF920A
S1130B40CF92EF920F931F93CF93DF93EC0180B377
S1130B508F6080BB81B38F6081BB209A87EE94E065
S1130B609F938F93812CA12CC12CE12C00E010E0E9
S1130B7020E240E063E080E1C4D590930B038093CE
S1130B800A0389E187BD84B5826084BDEEE6F0E0A6
S1130B90808182608083CBDFD0930403C0930303FE
S1130BA00F900F90DF91CF911F910F91EF90CF9005
S1130BB0AF908F9008951F920F920FB60F92112449
S1130BC00BB60F922F933F934F935F936F937F9343
S1130BD08F939F93AF93BF93EF93FF9380910903F8
S1130BE090E0019683709078992324F401978C6F98
S1130BF09F6F0196809309039927FC01EB5FFC4FDB
S1130C006081609580910A0390910B034ED6FF9109
S1130C10EF91BF91AF919F918F917F916F915F9170
S1130C204F913F912F910F900BBE0F900FBE0F90DD
S1130C301F9018956530F1F4FA0180818F7390E06C
S1130C40982F88272181822B909309028093080290
S1130C508281F0E48F9FC0011124FA01238126953B
S1130C602695822B909307028093060281E080935D
S1130C700C030895643051F080E090E490930702EF
S1130C8080930602909309028093080208950F93BB
S1130C901F930AE116E020E034E244EF50E060E004
S1130CA087E224D790930E0380930D0321E0892BD0
S1130CB009F020E0822F1F910F91089580910D0378
S1130CC090910E03009751F040E060E070E05FD730
S1130CD0843031F410920C0380E0089582E008958A
S1130CE083E0089580910D0390910E03009731F0F5
S1130CF064E099D7853021F083E0089582E0089577
S1130D0080E00895609108027091090280E090E00B
S1130D10D0DD20E030E048EC52E40E94151020E0E1
S1130D2038EF4FE756E45DCD0895ECDF20E030E086
S1130D3040E251E40E9415100E94910FCB010895E6
S1130D40609106027091070280E090E0B2DD20E03D
S1130D5030E045E253E40E94151020E038EF4FE7FD
S1130D6056E43FDD20E030E040E252E40C941F0FF3
S1130D700895E6DF20E030E040E251E40E941510DF
S1130D800E948B0FCB01089580911203860F8093EC
S1130D90120390911503913079F028F09230A9F064
S1130DA0933019F108956F3F09F048C0109212036F
S1130DB081E0809315030895663809F03FC01092CE
S1130DC0110382E0809315030895E091110381E0FB
S1130DD08E0F80931103F0E0E15FFC4F608382305B
S1130DE069F583E08093150308959091110321E040
S1130DF0290F20931103963009F581110EC0EFE0FD
S1130E00F3E0808190E0982F88272181820F911D43
S1130E10909317038093160304C010921703109243
S1130E20160310921503E0911303F0911403309705
S1130E3029F08091160390911703199508958F92C4
S1130E409F92AF92CF92EF920F93CF93DF93EB01E8
S1130E500F2EF4EC8F2EF6E09F2EF02D6894AA242A
S1130E60A4F86894CC24C4F8E12C00E023E040E822
S1130E7055E260E070E040D090931903809318032A
S1130E80D0931403C0931303DF91CF910F91EF908C
S1130E90CF90AF909F908F900895CF93DF93CDB76D
S1130EA0DEB729970FB6F894DEBF0FBECDBF89E039
S1130EB0E1E2F2E09E012F5F3F4FD90101900D92D4
S1130EC08A95E1F710921703109216038091180384
S1130ED090911903009731F0422F532F69E0CDD040
S1130EE080E001C082E029960FB6F894DEBF0FBE01
S1130EF0CDBFDF91CF9108952F923F924F925F9291
S1130F006F927F928F929F92AF92CF92EF92FF92C5
S1130F100F931F93CF93DF93CDB7DEB7F82E2A013B
S1130F203B0188E090E00E9439128C018F2D90E003
S1130F30880F991FFC01E65EFC4F11830083FC01BE
S1130F40E65FFD4F80819181D8018D939C936C2D38
S1130F5070E084E090E00E941F121C0161E070E0E8
S1130F6086E090E00E941F127C014C2DB1014BD70A
S1130F70F801F582E4826A2D70E084E090E00E943A
S1130F801F121C0161E070E086E090E00E941F12D5
S1130F907C014A2DB10137D7D8011396FC92EE9209
S1130FA0129717969C928E921697FFB6F894ED912D
S1130FB0FC91119736978081826080838D909C90FC
S1130FC0C301B20176DC20E030E040E051E40E944D
S1130FD015109B01AC0160E074E284E79BE401DC42
S1130FE020E030E040E85FE32AD79BD7F401329752
S1130FF06083D801ED91FC911197359788E980833E
S1131000ED91FC91349786E08083FFBEC801DF91A7
S1131010CF911F910F91FF90EF90CF90AF909F9041
S11310208F907F906F905F904F903F902F90089596
S1131030CF93DF93EC01EA81FB8193818281258147
S1131040981B922384819817A1F0938126952923D4
S1131050A081B181A20FB11D6C939F5F2581922362
S11310609383E881F981359780818062808380E071
S113107001C082E0DF91CF910895EF92FF920F9328
S11310801F93CF93DF937C01DC011296ED91FC91C9
S1131090139793818281981B858198238481891B6E
S11310A0861798F1662341F1842F952FDC01615056
S11310B0462F50E04F5F5F4F480F591FE701EA8109
S11310C0FB81938182812581981B922384819817C7
S11310D079F08C91938126952923608171818B010C
S11310E0020F111DE80188839F5F858198239383F4
S11310F01196A417B50711F7D701ED91FC91359717
S113110080818062808380E001C082E0DF91CF91A2
S11311101F910F91FF90EF900895DC011496ED91CB
S1131120FC91159793818281981789F0928185812A
S113113086958923A081B181A80FB11D8C91DB0113
S11311408C939F5F85819823928380E0089583E048
S113115008951F920F920FB60F9211240BB60F929F
S11311602F933F934F935F936F937F938F939F93AB
S1131170AF93BF93CF93DF93EF93FF93A0911A03A1
S1131180B0911B03109711F16091C6001496ED9174
S1131190FC911597938182812581981B92238481E8
S11311A0981761F0838126952823C081D181C20FCD
S11311B0D11D68838F5F9581892383831696ED9172
S11311C0FC911797309711F0CD011995FF91EF918C
S11311D0DF91CF91BF91AF919F918F917F916F914B
S11311E05F914F913F912F910F900BBE0F900FBEC7
S11311F00F901F9018951F920F920FB60F92112403
S11312000BB60F922F938F939F93AF93BF93EF934C
S1131210FF93E0911A03F0911B033097B9F0028019
S1131220F381E02D938182819817B1F092818581B9
S1131230282F26952923A081B181A20FB11D2C91BD
S11312409F5F892382832093C6000BC0E1ECF0E00A
S113125080818F7D808305C0E1ECF0E080818F7D0B
S11312608083FF91EF91BF91AF919F918F912F91C7
S11312700F900BBE0F900FBE0F901F9018951F92EA
S11312800F920FB60F9211240BB60F922F933F9328
S11312904F935F936F937F938F939F93AF93BF937A
S11312A0CF93DF93EF93FF93A0911C03B0911D03A1
S11312B0109711F16091CE001496ED91FC91159761
S11312C0938182812581981B92238481981761F0F0
S11312D0838126952823C081D181C20FD11D6883C3
S11312E08F5F9581892383831696ED91FC911797DF
S11312F0309711F0CD011995FF91EF91DF91CF91C6
S1131300BF91AF919F918F917F916F915F914F9119
S11313103F912F910F900BBE0F900FBE0F901F9017
S113132018951F920F920FB60F9211240BB60F92BD
S11313302F938F939F93AF93BF93EF93FF93E0917A
S11313401C03F0911D033097B9F00280F381E02D66
S1131350938182819817B1F092818581282F2695F7
S11313602923A081B181A20FB11D2C919F5F8923F4
S113137082832093CE000BC0E9ECF0E080818F7D66
S1131380808305C0E9ECF0E080818F7D8083FF914C
S1131390EF91BF91AF919F918F912F910F900BBEC1
S11313A00F900FBE0F901F9018951F920F920FB6BB
S11313B00F9211240BB60F922F933F934F935F9389
S11313C06F937F938F939F93AF93BF93CF93DF9349
S11313D0EF93FF93A0911E03B0911F03109711F197
S11313E06091D6001496ED91FC91159793818281BA
S11313F02581981B92238481981761F08381269517
S11314002823C081D181C20FD11D68838F5F95814C
S1131410892383831696ED91FC911797309711F0E9
S1131420CD011995FF91EF91DF91CF91BF91AF91CC
S11314309F918F917F916F915F914F913F912F91E8
S11314400F900BBE0F900FBE0F901F9018951F9218
S11314500F920FB60F9211240BB60F922F938F9306
S11314609F93AF93BF93EF93FF93E0911E03F0918B
S11314701F033097B9F00280F381E02D93818281BC
S11314809817B1F092818581282F26952923A08170
S1131490B181A20FB11D2C919F5F89238283209378
S11314A0D6000BC0E1EDF0E080818F7D808305C024
S11314B0E1EDF0E080818F7D8083FF91EF91BF911A
S11314C0AF919F918F912F910F900BBE0F900FBEF4
S11314D00F901F9018951F920F920FB60F92112420
S11314E00BB60F922F933F934F935F936F937F931A
S11314F08F939F93AF93BF93CF93DF93EF93FF9318
S1131500A0912003B0912103109711F1609136014D
S11315101496ED91FC911597938182812581981BF6
S113152092238481981761F0838126952823C081B2
S1131530D181C20FD11D68838F5F958189238383F5
S11315401696ED91FC911797309711F0CD011995EE
S1131550FF91EF91DF91CF91BF91AF919F918F91C7
S11315607F916F915F914F913F912F910F900BBE9F
S11315700F900FBE0F901F9018951F920F920FB6E9
S11315800F9211240BB60F922F938F939F93AF93C7
S1131590BF93EF93FF93E0912003F09121033097E1
S11315A0B9F00280F381E02D938182819817B1F024
S11315B092818581282F26952923A081B181A20FAC
S11315C0B11D2C919F5F89238283209336010BC028
S11315D0E1E3F1E080818F7D808305C0E1E3F1E008
S11315E080818F7D8083FF91EF91BF91AF919F9117
S11315F08F912F910F900BBE0F900FBE0F901F90E5
S11316001895CF93DF931F92CDB7DEB7BE016F5FFE
S11316107F4F80912203909123037FDD8111F6CFC8
S1131620898190E00F90DF91CF910895682F809188
S1131630220390912303FCDC80E090E008958F92D4
S11316409F92AF92CF92EF920F93812C912C68943A
S1131650AA24A7F86894CC24C7F8E12C00E023E07E
S113166040E051EE60E070E047DC90932303809308
S11316702203EDE3F3E082E192E09183808393839C
S113168082830F91EF90CF90AF909F908F900895A9
S1131690E0912503F09126033097F9F0A081B18100
S11316A01097D9F02381213069F44C9121E030E086
S11316B0028002C0220F331F0A94E2F720952423EC
S11316C02C930BC04C9121E030E0028002C0220F29
S11316D0331F0A94E2F7242B2C93909326038093D0
S11316E02503009769F0109227032CB52F732CBDA6
S11316F0FC0124812CBD85818DBD8CB580648CBD9D
S113170008954F925F926F927F928F929F92AF92C1
S1131710BF92CF92DF92EF92FF920F931F93CF93DA
S1131720DF93CDB7DEB7982EB62ED42EF22E80914D
S11317302403811106C084B1876084B981E0809359
S113174024038CE090E095D63C01DC0111961C93B7
S11317500E931296EC9212971396CC9213978D2DAA
S1131760880F880FF82AEB2D0B2C000CFF0BE75386
S1131770FD4F8081982A8F2D892914968C93B3E08C
S1131780BB151CF481E0F3018583A11006C0D301CD
S113179019961C921E92189712C06A2D70E084E06C
S11317A090E04DD62C0161E070E086E090E047D6F1
S11317B06C014A2DB20127D3F301D186C086811072
S11317C006C0D30117961C921E92169712C0682D5C
S11317D070E084E090E033D65C0161E070E086E084
S11317E090E02DD66C01482DB5010DD3F301D782BD
S11317F0C6828C899D89D3011B969C938E931A97DC
S11318000115110559F0F801229181E090E002C020
S1131810880F991FEA94E2F7822B80832FB7F894FC
S1131820409125035091260370922603609225036C
S1131830D301ED91FC911197309701F113968C919E
S11318401397813071F4308181E090E012960C900E
S113185002C0880F991F0A94E2F78095832380833E
S11318600DC0308181E090E0D30112960C9002C04B
S1131870880F991F0A94E2F7832B808350932603E1
S1131880409325032FBFC301DF91CF911F910F9187
S1131890FF90EF90DF90CF90BF90AF909F908F908C
S11318A07F906F905F904F9008951F93CF93DF9335
S11318B0009709F46AC0162FEC01809125039091DA
S11318C02603C817D90711F0CE01E2DE8FB72FB770
S11318D0F89480912703811131C081E0809327031C
S11318E0A0912503B0912603ED91FC9111973097B7
S11318F0F9F013968C911397813069F4308181E06B
S113190090E012960C9002C0880F991F0A94E2F797
S1131910832B80830DC0308181E090E012960C907F
S113192002C0880F991F0A94E2F78095832380836D
S11319308CB580688CBD1EBD80E025C0EE81FF8122
S11319403097E1F03481838142819581841B89231E
S11319503817B1F083814281841B8923381791F0B1
S1131960838196959823A081B181A90FB11D1C9301
S11319708F5F95818923838380E005C082E003C063
S113198081E001C080E02FBF01C083E0DF91CF91EF
S11319901F9108951F920F920FB60F9211240BB648
S11319A00F922F933F934F935F936F937F938F93F4
S11319B09F93AF93BF93CF93DF93EF93FF936EB552
S11319C0A0912503B09126031896ED91FC911997E7
S11319D03097A1F0838122819581821B8923248100
S11319E0821761F0838196959823C081D181C90FB4
S11319F0D11D68838F5F9581892383831696ED912A
S1131A00FC911797309799F093818281981779F018
S1131A1092818581282F26952923A081B181A20F47
S1131A20B11D2C919F5F892382832EBD2DC08CB55F
S1131A308F778CBD10922703A0912503B0912603C4
S1131A40ED91FC9111973097F9F013968C911397BF
S1131A50813071F4208181E090E012960C9002C0F4
S1131A60880F991F0A94E2F78095822380830CC023
S1131A70208181E090E012960C9002C0880F991F9B
S1131A800A94E2F7822B80838091250390912603A8
S1131A90DC011A96ED91FC911B97309709F019958A
S1131AA0FF91EF91DF91CF91BF91AF919F918F9172
S1131AB07F916F915F914F913F912F910F900BBE4A
S1131AC00F900FBE0F901F901895809136038111CF
S1131AD00CC08CE08093B8008FEF8093BB0084E04F
S1131AE08093BC0081E0809336030895AF92BF9247
S1131AF0CF92DF92EF92FF920F931F93CF93DF93D6
S1131B00A82EB62E69017A0184E090E0B2D4EC01EB
S1131B10892B61F1A88281E0B81212C0C701B60115
S1131B2020EA36E841E050E051D4DA01C901409797
S1131B30A109B109B695A79597958795898311C091
S1131B40C701B60120E83AE146E050E03FD4DA01AB
S1131B50C9014097A109B109B695A79597958795AD
S1131B6089831B830A838C2F9D2F02C080E090E021
S1131B70DF91CF911F910F91FF90EF90DF90CF9065
S1131B80BF90AF9008958091BC0081700895FF923A
S1131B900F931F93CF93DF930097D1F14A30D0F581
S1131BA0F42E8B01EC01EFDF811136C08091290303
S1131BB090912A03C817D90741F087DF8981809360
S1131BC0B800D0932A03C093290381E08F0D80933A
S1131BD02B038881880F80932C03FF2089F0F80160
S1131BE0ADE2B3E04FEF4F0D642F70E0CB010196EF
S1131BF0B801680F791F81918D93E617F707D9F71C
S1131C0088EF8093200285EA8093BC0084E005C0BD
S1131C1086E003C087E001C082E0DF91CF911F918D
S1131C200F91FF9008951F93CF93DF93009729F1AD
S1131C306B3028F5162FEC01A6DF811122C08091AC
S1131C40290390912A03C817D90741F03EDF8981FF
S1131C508093B800D0932A03C093290310932B03D5
S1131C608881880F816080932C0388EF8093200201
S1131C7085EA8093BC0085E005C086E003C087E068
S1131C8001C082E0DF91CF911F9108951F920F92BE
S1131C900FB60F9211240BB60F922F933F934F93CD
S1131CA05F936F937F938F939F93AF93BF93EF93C0
S1131CB0FF93E091B9008E2F90E0FC013897E13555
S1131CC0F10508F075C08827EE58FF4F8F4FA0C369
S1131CD010922803E091280380912B03E81770F4F5
S1131CE081E08E0F80932803F0E0E45DFC4F808157
S1131CF08093BB0085E88093BC0072C084E9809324
S1131D00BC008091290390912A03DC011296ED9185
S1131D10FC911397309709F463C020E040E050E051
S1131D2064E019955DC0E091280381E08E0F8093F3
S1131D3028038091BB00F0E0E45DFC4F8083809138
S1131D40B900803411F4109228032091280330E064
S1131D5080912B0390E001972817390724F485EC30
S1131D608093BC003DC085E88093BC0039C080915D
S1131D70BB00E0912803F0E0E45DFC4F808384E93C
S1131D808093BC008091290390912A03DC01129670
S1131D90ED91FC911397309719F120912B034CE2AC
S1131DA053E065E019951CC085EA8093BC0018C017
S1131DB08091B9008093200284E08093BC008091DC
S1131DC0290390912A03DC011296ED91FC9113975B
S1131DD0309731F020E040E050E060912002199506
S1131DE0FF91EF91BF91AF919F918F917F916F91EF
S1131DF05F914F913F912F910F900BBE0F900FBEAB
S1131E000F901F901895FC01411101C053D4842FE9
S1131E1090E09C012150310982239323892B09F0FE
S1131E2049D4413808F046D4128213824483440FC3
S1131E30415045837183608380E090E00895505859
S1131E40BB27AA2713D00C94AD040E949F0438F03A
S1131E500E94A60420F039F49F3F19F426F40C9450
S1131E609C040EF4E095E7FB0C949604E92F0E9481
S1131E70BE0458F3BA17620773078407950720F066
S1131E8079F4A6F50C94E0040EF4E0950B2EBA2F29
S1131E90A02D0B01B90190010C01CA01A00111246C
S1131EA0FF27591B99F0593F50F4503E68F11A1618
S1131EB0F040A22F232F342F4427585FF3CF4695A9
S1131EC037952795A795F0405395C9F77EF41F16CB
S1131ED0BA0B620B730B840BBAF09150A1F0FF0F95
S1131EE0BB1F661F771F881FC2F70EC0BA0F621F81
S1131EF0731F841F48F4879577956795B795F79571
S1131F009E3F08F0B0CF9395880F08F09927EE0F05
S1131F1097958795089505D06894B1110C94E104C0
S1131F2008950E94C60488F09F5798F0B92F992706
S1131F30B751B0F0E1F0660F771F881F991F1AF0B0
S1131F40BA95C9F714C0B13091F00E94E004B1E031
S1131F5008950C94E004672F782F8827B85F39F030
S1131F60B93FCCF3869577956795B395D9F73EF449
S1131F7090958095709561957F4F8F4F9F4F0895F1
S1131F803CD088F09F3748F4911116F00C94E1048A
S1131F9060E070E080E89FEB089526F41B16611D55
S1131FA0711D811D01C01BC0882371F4772321F0AA
S1131FB09850872B762F07C0662311F499270DC0FC
S1131FC09051862B70E060E02AF09A95660F771F97
S1131FD0881FDAF7880F9695879597F908959F3F9C
S1131FE031F0915020F4879577956795B795880FD0
S1131FF0911D9695879597F908950E94C604A0F0BF
S1132000BEE7B91788F4BB279F3860F41616B11DD4
S1132010672F782F8827985FF7CF869577956795F0
S1132020B11D93959639C8F3089511D00C94AD045D
S11320300E949F0438F00E94A60420F0952311F01A
S11320400C9496040C949C0411240C94E1040E94B6
S1132050BE0470F3959FC1F3950F50E0551F629F26
S1132060F001729FBB27F00DB11D639FAA27F00DED
S1132070B11DAA1F649F6627B00DA11D661F829F14
S11320802227B00DA11D621F739FB00DA11D621FF9
S1132090839FA00D611D221F749F3327A00D611D16
S11320A0231F849F600D211D822F762F6A2F1124F8
S11320B09F5750409AF0F1F088234AF0EE0FFF1F2B
S11320C0BB1F661F771F881F91505040A9F79E3F82
S11320D0510580F00C9496040C94E1045F3FE4F302
S11320E0983ED4F3869577956795B795F795E795D8
S11320F09F5FC1F7FE2B880F911D9695879597F9E1
S11321000895FA01EE0FFF1F309621053105A1F164
S11321106115710561F48038BFE39B0749F1689448
S11321209038810561F08038BFEF9B0741F0992317
S11321304AF5FF3FE1053105210519F1E8940894BA
S1132140E795D901AA2329F4AB2FBE2FF85FD0F36A
S113215010C0FF5F70F4A695E0F7F73950F019F05E
S1132160FF3A38F49F779F930DD00F9007FC905857
S1132170089546F00C949C0460E070E080E89FE3CE
S113218008954FE79F775F934F933F932F93A8D082
S11321902F913F914F915F9148DF08C029F416F0C9
S11321A00C9496040C94E0040C949C040E94C604C1
S11321B0A8F39638A0F707F80F92E8942BE33AEACD
S11321C048EB5FE747DF0F920F920F924DB75EB770
S11321D00F92C9D0E6E8F1E016D04F915F91EF91EC
S11321E0FF91E595EE1FFF1F49F0FE57E068442775
S11321F0EE0F441FFA95E1F74195550B34D00F903B
S113220007FE26C00895DF93CF931F930F93FF9289
S1132210EF92DF927B018C01689405C0DA2EEF0106
S113222016DFFE01E894A5912591359145915591CC
S1132230AEF3EF011BDEFE019701A801DA9479F7F2
S1132240DF90EF90FF900F911F91CF91DF91089550
S11322509B01AC0160E070E080E89FE30C94F10323
S11322600C949604BCCE0E94C604E0F39923D1F3E7
S1132270940F511DABF39150504094F059F08823C2
S113228032F0660F771F881F91505040C1F79E3F70
S1132290510534F7880F911D9695879597F9089500
S11322A05F3FACF0983E9CF0BB2786957795679589
S11322B0B79508F4B1609395C1F7BB0F58F711F4C3
S11322C060FFE8CF6F5F7F4F8F4F9F4FE3CF0C943A
S11322D0E1040EF084CE0C949C0468940C9496044F
S11322E00E94C604B0F39923C1F3AEF3DF93CF93F6
S11322F01F930F93FF92C92FDD2788232AF021977C
S1132300660F771F881FDAF720E030E040E85FEBC4
S11323109FE3883920F0803E30F021968F7790DD5E
S1132320EEEAF1E003C08CDDEBEDF1E06CDF8B0154
S1132330BE01EC01FB2E6F5771097595771F880B51
S1132340990B0E945B0428E132E741E35FE37FDEFF
S1132350AF2D9801AE01FF900F911F91CF91DF91A6
S113236085DD0C94AD04FA01DC01AA0FBB1F9B01AF
S1132370AC01BF5728F422273327442750781FC0C5
S1132380B75188F4AB2F0024469537952795011C47
S1132390A395D2F3002069F0220F331F441FB39595
S11323A0DAF30DD04CCD61307105A0E88A07B94647
S11323B030F49B01AC016627772788279078309604
S11323C021F020833183428353830895A1E21A2E9E
S11323D0AA1BBB1BFD010DC0AA1FBB1FEE1FFF1FC5
S11323E0A217B307E407F50720F0A21BB30BE40B15
S11323F0F50B661F771F881F991F1A9469F760955C
S11324007095809590959B01AC01BD01CF01089515
S1132410EE0FFF1F881F8BBF0790F691E02D1994D4
S1132420A29FB001B39FC001A39F700D811D112411
S1132430911DB29F700D811D1124911D08950F935C
S11324401F93CF93DF93869F8001879F100D969FE4
S1132450100D1124C8010DD0EC01009721F0A80142
S113246060E070E02BD1CE01DF91CF911F910F91ED
S113247008950F931F93CF93DF938230910510F447
S113248082E090E0E0913B03F0913C0320E030E0F7
S1132490A0E0B0E0309719F14081518102811381AD
S11324A048175907C8F08417950769F4109731F055
S11324B012960C93129713961C9327C000933B0318
S11324C010933C0322C02115310519F0421753071C
S11324D018F49A01BD01EF01DF01F801DBCF2115EA
S11324E03105F9F0281B390B2430310580F48A8139
S11324F09B816115710521F0FB019383828304C0E4
S113250090933C0380933B03FE01329644C0FE014A
S1132510E20FF31F81939193225031093983288369
S11325203AC02091390330913A03232B41F420918E
S113253002023091030230933A032093390320912D
S11325400002309101022115310541F42DB73EB747
S11325504091040250910502241B350BE09139038C
S1132560F0913A03E217F307A0F42E1B3F0B281750
S1132570390778F0AC014E5F5F4F2417350748F0F8
S11325804E0F5F1F50933A03409339038193919305
S113259002C0E0E0F0E0CF01DF91CF911F910F91F5
S11325A00895CF93DF93009709F481C0FC0132971B
S11325B013821282A0913B03B0913C03109781F4E3
S11325C020813181820F931F2091390330913A0386
S11325D02817390751F5F0933A03E093390367C09C
S11325E0ED0120E030E0CE17DF0740F44A815B8143
S11325F09E0141155105F1F0EA01F5CFD383C28361
S113260040815181840F951FC817D90759F48881D7
S11326109981840F951F0296918380838A819B817F
S1132620938382832115310529F4F0933C03E093CD
S11326303B033DC0E901FB83EA8349915991C40FEF
S1132640D51FEC17FD0761F480819181840F951FDC
S11326500296E90199838883828193819B838A838B
S1132660E0E0F0E012968D919C911397009719F099
S1132670FD01DC01F7CF8D919C9111979D012E5F97
S11326803F4F820F931F2091390330913A0328174B
S1132690390769F4309729F410923C0310923B03F4
S11326A002C013821282B0933A03A0933903DF91DC
S11326B0CF91089581E090E0F894F7C2DC0101C065
S11326C06D9341505040E0F70895CF93DF93CDB719
S11326D0DEB7AE014A5F5F4FFA0161917191AF01BC
S11326E080913F039091400333D0DF91CF910895BF
S11326F00F931F93CF93DF93E0913F03F091400337
S1132700238121FF1BC08C01D0E0C0E0F80181913E
S11327108F0160913F0370914003DB011896ED91A6
S1132720FC911997882331F01995892B79F3DFEF00
S1132730CFEFECCF8AE01995892B19F08FEF9FEF3B
S113274002C08D2F9C2FDF91CF911F910F9108957F
S11327502F923F924F925F926F927F928F929F92AD
S1132760AF92BF92CF92DF92EF92FF920F931F939B
S1132770CF93DF93CDB7DEB72B970FB6F894DEBFB8
S11327800FBECDBF6C017B018A01FC01178216824A
S1132790838181FFBFC1CE0101963C01F601938183
S11327A0F70193FD859193FF81917F01882309F4BB
S11327B0ADC1853239F493FD859193FF81917F01F9
S11327C0853221F4B60190E0D6D1E8CF912C212CAA
S11327D0312CFFE1F315D8F08B3279F038F48032E4
S11327E079F08332A1F4232D20611DC08D3261F074
S11327F0803369F4232D216016C0832D8260382E26
S1132800E32DE4603E2E2AC0F32DF8601DC037FC92
S11328102DC020ED280F2A3040F08E32B9F436FC5A
S113282075C1232D2064322E19C036FE06C08AE0FD
S1132830989E200D1124922E11C0EAE02E9E200DA8
S11328401124222EF32DF0623F2E08C08C3621F481
S1132850832D8068382E02C0883641F4F70193FD39
S1132860859193FF81917F018111B3CF982F9F7D33
S11328709554933028F40C5F1F4F9FE399830DC048
S1132880833631F0833771F0833509F055C020C0A9
S1132890F801808189830E5F1F4F88248394912CD3
S11328A0530112C02801F2E04F0E511CF801A08020
S11328B0B18036FE03C0692D70E002C06FEF7FEF78
S11328C0C5014ED14C018201F32DFF773F2E15C077
S11328D0280122E0420E511CF801A080B18036FE8E
S11328E003C0692D70E002C06FEF7FEFC5012DD1E9
S11328F04C01F32DF0683F2E820133FC19C0822D68
S113290090E088169906A0F4B60180E290E033D1F5
S11329102A94F5CFF50137FC859137FE81915F014B
S1132920B60190E028D121102A9421E0821A91085E
S11329308114910479F7E1C0843611F0893639F5B0
S1132940F80137FE07C060817181828193810C5F39
S11329501F4F08C060817181072E000C880B990BF2
S11329600E5F1F4FF32DFF763F2E97FF09C0909502
S11329708095709561957F4F8F4F9F4FF0683F2EE4
S11329802AE030E0A30133D1882E861844C085376D
S113299031F4232D2F7EB22E2AE030E025C0932D72
S11329A0997FB92E8F36C1F018F4883579F0AEC00E
S11329B0803719F0883721F0A9C0E92FE061BE2ED5
S11329C0B4FE0DC0FB2DF460BF2E09C034FE0AC056
S11329D0292F2660B22E06C028E030E005C020E191
S11329E030E002C020E132E0F801B7FE07C06081A8
S11329F07181828193810C5F1F4F06C06081718158
S1132A0080E090E00E5F1F4FA301F1D0882E86185E
S1132A10FB2DFF773F2E36FE0DC0232D2E7FA22ED9
S1132A20891458F434FE0BC032FC09C0832D8E7E09
S1132A30A82E05C0B82CA32C03C0B82C01C0B92CF7
S1132A40A4FE0FC0FE01E80DF11D8081803321F446
S1132A509A2D997EA92E09C0A2FE06C0B394B39400
S1132A6004C08A2D867809F0B394A3FC10C0A0FE9C
S1132A7006C0B21480F4280C922C9B180DC0B2141A
S1132A8058F4B60180E290E076D0B394F8CFB21453
S1132A9018F42B1802C0982C212CA4FE0FC0B601E8
S1132AA080E390E068D0A2FE16C0A1FC03C088E7D2
S1132AB090E002C088E590E0B6010CC08A2D8678CB
S1132AC051F0A1FE02C08BE201C080E2A7FC8DE2BE
S1132AD0B60190E050D0891430F4B60180E390E060
S1132AE04AD09A94F8CF8A94F301E80DF11D8081BD
S1132AF0B60190E040D08110F6CF222009F44ECEEA
S1132B00B60180E290E037D02A94F7CFF6018681AF
S1132B10978102C08FEF9FEF2B960FB6F894DEBF1C
S1132B200FBECDBFDF91CF911F910F91FF90EF901A
S1132B30DF90CF90BF90AF909F908F907F906F90D9
S1132B405F904F903F902F900895FC010590615045
S1132B5070400110D8F7809590958E0F9F1F0895AF
S1132B60FC016150704001900110D8F78095909558
S1132B708E0F9F1F08950F931F93CF93DF93FB0135
S1132B80238121FD03C08FEF9FEF2CC022FF16C0CD
S1132B9046815781248135814217530744F4A0812B
S1132BA0B1819D012F5F3F4F318320838C93268118
S1132BB037812F5F3F4F3783268314C08B01EC018D
S1132BC0FB010084F185E02D1995892BE1F6D801EC
S1132BD016968D919C911797019617969C938E93B8
S1132BE01697CE01DF91CF911F910F910895FA01AD
S1132BF0AA27283051F1203181F1E8946F936E7F38
S1132C006E5F7F4F8F4F9F4FAF4FB1E03ED0B4E028
S1132C103CD0670F781F891F9A1FA11D680F791F69
S1132C208A1F911DA11D6A0F711D811D911DA11D7A
S1132C3020D009F468943F912AE0269F112430198A
S1132C40305D3193DEF6CF010895462F4770405D25
S1132C504193B3E00FD0C9F7F6CF462F4F70405DD4
S1132C604A3318F0495D31FD4052419302D0A9F72F
S1132C70EACFB4E0A6959795879577956795BA9529
S1132C80C9F700976105710508959B01AC010A2EEF
S1132C9006945795479537952795BA95C9F7620FC6
S1112CA0731F841F951FA01D0895F894FFCF85
S1132CAE00004303200000400040C600CE00D600C2
S1132CBE36010000000300000000160B010B00009B
S1132CCEF8FF0186000000000079FF0179A00000E2
S1132CDE0000E6FF0179000000000086FF01870076
S1132CEE0000000078FF0188000000000000536F10
S1132CFE6D657468696E672057726F6E6700505207
S1132D0E4F4752414D0068756D6964697479203D71
S1132D1E202564200A0074656D7065726174757285
S1132D2E65203D202564200A00636F32203D202556
S1132D3E64200A00494E495449414C495A41544968
S1132D4E4F4E004552524F522057616B65757000BD
S1132D5E4552524F52206D6561737375726500FC56
S1132D6E60DAF266B6BEE0FEE6000102030001027E
S9030000FC
