:1000000007C2000025C2000023C2000021C2000078
:100010001FC200001DC200001BC2000019C2000068
:1000200017C2000015C2000013C2000011C2000078
:10003000E1C700000DC200000BC2000009C20000B1
:1000400007C2000005C2000003C2000001C2000098
:10005000FFC10000FDC10000FBC10000F9C10000AC
:10006000F7C100000C94151E0C94671EF1C100002E
:10007000EFC10000EDC10000EBC10000E9C10000CC
:10008000E7C10000E5C10000E3C10000E1C10000DC
:100090000C94AB1E0C94FD1EDBC100000C9495214A
:1000A000D7C10000D5C10000D3C10000D1C10000FC
:1000B000CFC10000CDC10000CBC10000C9C100000C
:1000C000C7C10000C5C10000C3C100000C94411F9E
:1000D0000C94931FBDC100000C94D71F0C942920D1
:1000E000B7C10000960196019601C501CD01DC0162
:1000F00096019601C501CD01B7212722272227228B
:100100002722272227222722B72127222722272218
:100110002722272227222722B92127222722272206
:100120002722272227222722272227222722272287
:100130002722272227222722B921272227222722E6
:100140002722272227222722272227222722272267
:10015000272227222722272223222722272227225B
:100160002722272227222722EE2127222722272281
:100170002722272227222722272227222722272237
:100180002722272227222722E2212722272227226D
:100190002722272227222722062203E518E10F2EF5
:1001A000FBE7EF2EF8E1FF2EF02D80915218882307
:1001B00011F10FB6F8940F92D8011596ED91FC91BC
:1001C0001697C681D781CE0102967AD580914818BC
:1001D0008150809348188091521881508093521812
:1001E0000F900FBE8F89988DD6D4CE01D4D4809134
:1001F00052188111DECFF7018081823008F035D6A8
:100200000E94F315D2CFCF93DF9300D000D0CDB7AB
:10021000DEB7CE0101964C0144244394E12CF12C2D
:10022000512CC82ED92CE091A918F091AA188081E0
:10023000882309F4D9C00580F681E02DA080B18023
:100240000E945F0FC4010E9485158C018981811174
:1002500049C00A151B05B0F10E942910E091A918A8
:10026000F091AA180580F681E02D66807780C301A1
:10027000029626D5D30153968C91539782FF17C0CF
:100280001C966D917C911D976A0D7B1D9501A801AF
:10029000C3010E94C614882369F00E2D1F2D2E2D38
:1002A0003F2DA501652DC3010E943E1503C08E7F21
:1002B000F301838BD3015096ED91FC915197C301CB
:1002C000199585C0452DB501601B710B8091A5184E
:1002D0009091A6180E944F0B0E942910811177C09F
:1002E000C4D575C00E94291072C0898188230CF47E
:1002F0006EC0AC80BD80F50182859385892B19F095
:10030000C5010296DDD4CE0106960E948515AC018A
:10031000E9810E2E000CFF0BEA30F10508F057C002
:100320008827EE58FF4F8F4F0C947F24D5015396AA
:100330008C915397816053968C9353972A813B817C
:100340001C966D917C911D97620F731FC5010E94D1
:10035000C6148823E1F1D5015096ED91FC91519797
:10036000C5011995F501838982FF31C04A815B81FE
:1003700084859585480F591F0E2D1F2D2E2D3F2D3D
:10038000652DC5010E943E1522C0D50153968C9162
:1003900053978E7F53968C931AC0F50183898160A1
:1003A000838B6A817B8175876487640F751F9A01CF
:1003B000C5010E94C6140BC0D50153968C9181FDD6
:1003C00003C0C501E8D303C08E7FF501838B4E2D9A
:1003D0005F2D6C2D7D2D8091A5189091A6180E94FF
:1003E0000A0A811182CF1FCF0E945F0FC4010E94B1
:1003F00085158C018981811175CFE091A718F09145
:10040000A8188081442D8111452DAE2CBF2C5BCFC7
:1004100011241FBECFEFD1E2DEBFCDBF00E00CBF85
:1004200018E0A0E0B2E0E0E4F2E500E00BBF02C0BB
:1004300007900D92AE37B107D9F72AE1AEE7B8E0E1
:1004400001C01D92A135B207E1F702D20C941E291A
:10045000D7CD4FD188E391E00E94A61020E040E084
:1004600050E060E070E080911F1A9091201A06D74A
:1004700088E391E00E94A61020E040E050E060E0B8
:1004800070E080911B1A90911C1AF8D688E391E0D5
:100490000E94A61020E040E050E060E070E0809113
:1004A0001D1A90911E1AEAD688E391E00E94A610C8
:1004B00020E040E050E060E070E08091191A9091F7
:1004C0001A1ADCD68CE594E40E94A610C3CF0BE286
:1004D0001AE1CEE2DAE1BB24B3940F2EFEE6CF2E72
:1004E000F2E0DF2EF02D0F2EF1E8EF2EF2E0FF2EDE
:1004F000F02D6FEF7FEF80911B1A90911C1A0E94D4
:10050000930A882329F102D2F801108222D2F8013D
:1005100092838183B88220D29A838983F801828171
:100520008F9381818F93DF92CF920E9400268A81E0
:100530008F9389818F93FF92EF920E9400268DB74F
:100540009EB708960FB6F8949EBF0FBE8DBFD1CF51
:1005500081E992E00E941326CCCF6FEF7FEF80916C
:100560001D1A90911E1ADFD78823F9F020E04FEF73
:100570005FEF6BE27AE18091171A9091181A7ED69C
:1005800020E04FEF5FEF6EE27AE18091171A9091D1
:10059000181A74D620E04FEF5FEF68E27AE180919D
:1005A000171A9091181A6AD6D8CF84EC92E00E945C
:1005B0001326D3CFC8E2DAE16894FF24F1F804EF00
:1005C00012E06FEF7FEF80911F1A9091201AABD746
:1005D000882381F06FD0F88280D089839A839F939B
:1005E0008F931F930F930E9400260F900F900F90F0
:1005F0000F90E7CF8FEF92E00E941326E2CF6FEFCC
:100600007FEF8091191A90911A1A8DD7882331F0B3
:10061000BDD08FE193E00E941326F1CF84E393E0F5
:100620000E941326ECCFEF92FF920F93E12CF12C56
:1006300002E021E030E040EC50E069E573E087E65D
:1006400092E00E940E0E21E030E040EC50E069E7BD
:1006500073E08AED92E00E940E0E21E030E040EC63
:1006600050E061E973E08DEA92E00E940E0E21E015
:1006700030E040EC50E069EA73E089E292E00E94E9
:100680000E0E21E030E040EC50E06FEB73E08FEFB6
:1006900092E00E940E0E0F91FF90EF9008959093BC
:1006A000271A8093261A08956FE473E083E00C9470
:1006B000911C08950E94BF1C8093231A882361F027
:1006C0008CED93E09F938F930E9400268EE390E041
:1006D0000E94A6100F900F9008958091261A909175
:1006E000271A089588E00E940E1681E00C94F818ED
:1006F0000895CF9381E00E94341982E090E00E9437
:10070000A61080E00E94341986E990E00E94A610AD
:100710000E94F1180E944819882321F08CEE93E082
:100720000E9413260E94751A882321F080E094E02D
:100730000E9413268EE798E00E945A19882321F020
:1007400085E194E00E9413264EE758E068E374E0E8
:1007500089E594E00E94531B882321F08AE694E007
:100760000E9413268EE894E00E94132680E00E94E7
:10077000AF19C82F8DE790E00E94A610C83091F7FE
:100780008EEA94E00E941326CF910895AF92BF9213
:10079000CF92DF92EF92FF920F931F93CF93DF934D
:1007A000CDB7DEB769970FB6F894DEBF0FBECDBFE9
:1007B00003E010E0B12CA12CD12CC12CF12CE12CA8
:1007C0004FEF5FEFBE016F5F7F4F8091171A9091DF
:1007D000181A20D68981811103C0FA80EB8007C0E6
:1007E000813019F4BA80AB8002C0DA80CB8001502E
:1007F000110931F786E08D8381E08C83AE82BF8260
:10080000E886F986CA86DB86BE016C5F7F4F80E092
:100810000E94D2198D3029F48BEC94E00E941326AB
:1008200006C08E3021F480E195E00E94132669967F
:100830000FB6F894DEBF0FBECDBFDF91CF911F91F1
:100840000F91FF90EF90DF90CF90BF90AF90089501
:1008500086D080E00E948B20789416D00CD04DD0AA
:1008600023DF28DF3FDF8EE495E00E941326DBDEE6
:100870000E942C0FFFCF40E063E083E0D1D490933F
:10088000181A8093171A089580911B1A90911C1AB8
:10089000892B41F443E060E081E0C2D490931C1ABC
:1008A00080931B1A80911F1A9091201A892B41F472
:1008B00043E060E081E0B4D49093201A80931F1A43
:1008C00080911D1A90911E1A892B41F443E060E03B
:1008D00081E0A6D490931E1A80931D1A8091191A54
:1008E00090911A1A892B41F443E060E081E098D49A
:1008F00090931A1A8093191A08950E946D16811107
:1009000004C08CE595E00C94132608950E9485168A
:10091000882321F08FE795E00E9413262FEF80E7D0
:1009200092E0215080409040E1F700C000000E941A
:100930009A16882321F08CE895E00E9413262FEF69
:1009400080E792E0215080409040E1F700C0000035
:1009500008950C94E61608950C94C0160895E7E0E7
:10096000F1E080818F6080830895E8E0F1E090817C
:10097000907F908390818F70982B90830895E8E00A
:10098000F1E08081807F80830895CF93DF93DC0145
:10099000E7E9F8E001C0F901208131812A173B071E
:1009A000D0F382819381AF01480F591FA417B50777
:1009B00049F412964D915C911397840F951F938380
:1009C0008283DF0112968D919C911397ED01C80FE0
:1009D000D91F2C173D07D9F420919508309196081E
:1009E000C217D30781F02A813B81820F931F139690
:1009F0009C938E931297C081D181888199811196A1
:100A00009C938E9307C01196DC93CE9303C01196EE
:100A10003C932E93AE17BF0711F0B183A083DF91F3
:100A2000CF910895CF92DF92EF92FF920F931F9391
:100A3000CF93DF93EC010E945F0F80919508909116
:100A40009608892B41F5E7E9F8E0ABE9B8E0B18316
:100A5000A08313821282E7E3F8E1F0939608E09313
:100A6000950813821282118210828CE99FE01396FE
:100A70009C938E931297ED93FC939093920880939E
:100A80009108909394088093930880E090E8909365
:100A9000900880938F08E0908F08F0909008C7012D
:100AA0008C239D23892B09F066C0209709F466C02A
:100AB000AE014C5F5F4F09F45EC000919308109146
:100AC00094080417150708F456C0C0919708D091F0
:100AD0009808E7E9F8E002C0FE01E9012A813B81BC
:100AE0002417350728F42881398121153105A1F70C
:100AF0008091950890919608C817D907E1F1C080B8
:100B0000D18084E0C80ED11C888199819183808333
:100B10002A813B81241B350B2930310548F0CE0159
:100B2000840F951FFC01338322835B834A832DDF6F
:100B30008A819B81081B190B1093940800939308DA
:100B400020919108309192080217130720F4109316
:100B5000920800939108E82AF92AFB82EA82198216
:100B600018820E942910C114D10459F40E94F4156E
:100B7000C12CD12C06C00E942910F8CF0E94291048
:100B8000F5CFC601DF91CF911F910F91FF90EF90AC
:100B9000DF90CF900895CF93DF93009751F1FC0140
:100BA00034972281338140918F0850919008B90188
:100BB00064237523672BE9F060817181672BC9F489
:100BC000EF014095509524233523338322830E94DF
:100BD0005F0F20919308309194088A819B81820F46
:100BE000931F9093940880939308CE01CEDE0E94C9
:100BF0002910DF91CF910895FC01039692838183A0
:100C00002FEF3FEF348323839683858390878783F9
:100C100010820895FC01118610860895CF93DF930A
:100C20009C01FB01DC011196CD91DC911297D383DD
:100C3000C2838C819D81958384838C819D81DC011D
:100C400013967C936E9312977D836C8331872087F4
:100C5000F90180818F5F8083DF91CF910895CF93D9
:100C6000DF93EB01488159814F3F2FEF520721F469
:100C7000FC01A781B0850DC0DC01139601C0DF0126
:100C80001296ED91FC911397208131814217530701
:100C9000B0F71296ED91FC911397FB83EA83D5830D
:100CA000C483BD83AC831396DC93CE93129799874C
:100CB0008887FC0120812F5F2083DF91CF910895E9
:100CC000CF93DF93FC01A085B185C281D38184815C
:100CD00095819D838C83C481D581828193819B83FF
:100CE0008A8311968D919C911297E817F90731F438
:100CF0008481958112969C938E931197118610860C
:100D00008C9181508C938C91DF91CF91089531E13A
:100D1000FC013083319722E220833197A3E3A08343
:100D200031976083319770833197108231971082A9
:100D3000319760E860833197108231971082319744
:100D40001082319762E06083319763E0608331976E
:100D500064E06083319765E06083319766E060838B
:100D6000319767E06083319768E06083319769E08D
:100D70006083319760E1608331973083319732E14E
:100D80003083319733E13083319734E130833197C9
:100D900035E13083319736E13083319737E1308365
:100DA000319738E13083319739E13083319730E240
:100DB0003083319731E2308331972083319723E2BA
:100DC00020833197408331975083319726E22083E7
:100DD000319727E22083319728E22083319729E257
:100DE0002083319720E32083319721E32083899763
:100DF0000895A89590EC88E10FB6F894A895809393
:100E000060000FBE90936000A0919F18B091A01851
:100E1000CD91CDBFDD91DEBFFF91EF91DF91CF91FD
:100E2000BF91AF919F918F917F916F915F914F9102
:100E30003F912F911F910F91FF90EF90DF90CF90F6
:100E4000BF90AF909F908F907F906F905F904F90EA
:100E50003F902F901F900F900CBE0F900BBE0F90E5
:100E60000FBE0F90089581E008950F920FB6F89489
:100E70000F920BB60F920CB60F921F9211242F9265
:100E80003F924F925F926F927F928F929F92AF921A
:100E9000BF92CF92DF92EF92FF920F931F932F9307
:100EA0003F934F935F936F937F938F939F93AF93F2
:100EB000BF93CF93DF93EF93FF93A0919F18B091CF
:100EC000A0180DB60D920EB60D920E94B710A0910B
:100ED0009F18B091A018CD91CDBFDD91DEBFFF91DD
:100EE000EF91DF91CF91BF91AF919F918F917F91C2
:100EF0006F915F914F913F912F911F910F91FF90B3
:100F0000EF90DF90CF90BF90AF909F908F907F90A9
:100F10006F905F904F903F902F901F900F900CBE5E
:100F20000F900BBE0F900FBE0F9008950F920FB64B
:100F3000F8940F920BB60F920CB60F921F921124D9
:100F40002F923F924F925F926F927F928F929F92D9
:100F5000AF92BF92CF92DF92EF92FF920F931F93C7
:100F60002F933F934F935F936F937F938F939F93B1
:100F7000AF93BF93CF93DF93EF93FF93A0919F180D
:100F8000B091A0180DB60D920EB60D9213BEA7D754
:100F900081110E94B710A0919F18B091A018CD9117
:100FA000CDBFDD91DEBFFF91EF91DF91CF91BF917A
:100FB000AF919F918F917F916F915F914F913F91F1
:100FC0002F911F910F91FF90EF90DF90CF90BF90E6
:100FD000AF909F908F907F906F905F904F903F90D9
:100FE0002F901F900F900CBE0F900BBE0F900FBE56
:100FF0000F9008959BDF18950FB6F8940F92FC019F
:10100000928D0F900FBE81E0911180E008950F93B3
:101010001F93CF93DF93EC01042F1A8D4C8D411158
:101020000CC088819981892B09F042C08C819D81F7
:101030000E947F121D821C8242C0011117C050E025
:101040008A819B810E94C6252C8D8A819B81820F7B
:10105000911D9B838A832C813D818217930750F1D8
:10106000888199819B838A8380E029C050E08E81AA
:101070009F810E94C6258C8D90E091958195910964
:101080002E813F81280F391F3F832E83488159814C
:101090002417350730F42C813D81820F931F9F83E5
:1010A0008E83023049F4112349F0115080E007C0CB
:1010B00080E005C080E003C080E001C080E01F5FE9
:1010C0001A8FDF91CF911F910F910895FC01448DEC
:1010D0004423A9F050E026813781240F351F378340
:1010E0002683848195812817390720F0808191819A
:1010F00097838683CB01668177810C94C6250895FA
:10110000EF92FF920F931F93CF938C010FB6F89439
:101110000F92FC01C68D1C16ACF48189811106C0AA
:1011200011C0F8018189811105C00CC07801F1E17D
:10113000EF0EF11CC7010E946E1181110E94F61181
:10114000C15079F78FEFF801868F0F900FBE0FB661
:10115000F8940F92C58D1C16ACF48085811106C0E1
:1011600011C0F8018085811105C00CC07801F8E03C
:10117000EF0EF11CC7010E946E1181110E94F61141
:10118000C15079F78FEFF801858F0F900FBECF9187
:101190001F910F91FF90EF900895CF93DF93EC0193
:1011A0000FB6F8940F92E881F9818B8D2C8D90E029
:1011B00030E0829FA001839F500D929F500D11241B
:1011C0004E0F5F1F5D834C831A8EFB83EA8301976A
:1011D000829FA001839F500D929F500D1124CF013B
:1011E000840F951F9F838E838FEF8D8F8E8F61115C
:1011F0000BC08885882371F0CE0108960E946E117D
:10120000882341F032DE06C0CE010896F5DCCE011F
:101210004196F2DC0F900FBE81E0DF91CF910895EF
:10122000FF920F931F93CF93DF93082F162FF42E67
:101230006623B9F0869FC00111248196F3DBEC018F
:10124000009741F414C00B8F1C8F61E0CE01A5DF25
:10125000F8A20DC0819699838883F5CFD983C8837E
:10126000F2CF81E290E0DEDBEC01892BB9F7CE0111
:10127000DF91CF911F910F91FF9008959F92AF92B0
:10128000BF92CF92DF92EF92FF920F931F93CF9373
:10129000DF9300D01F921F92CDB7DEB78C016B0198
:1012A0005D834C83A22EB12C992493947C0188E019
:1012B000E80EF11C0FB6F8940F92F801928D838D11
:1012C000981718F0F2E0AF1215C04A2DB601C80108
:1012D0009EDEF8019189992339F0C8014196FED725
:1012E000882321F0C2DD02C08111BFDD0F900FBE47
:1012F00081E047C08C819D81892B21F40F900FBE26
:1013000080E03FC0B11005C0CE0101960E94B61129
:10131000B92C0F900FBED3D50FB6F8940F92F801E9
:10132000858D8F3F09F4158EF801868D8F3F09F466
:10133000168E0F900FBEBE016C5F7F4FCE010196DF
:101340000E94C111811119C00FB6F8940F92F801D3
:10135000928D838D0F900FBE98130BC06C817D8191
:10136000C70193D7C801CCDE74D68111A3CF7DDD30
:10137000A1CFC801C5DE6DD69DCFC801C1DE69D63B
:1013800080E00F900F900F900F900F90DF91CF9112
:101390001F910F91FF90EF90DF90CF90BF90AF9093
:1013A0009F900895EF92FF920F931F93CF93DF9337
:1013B0008A01FC01528D338D531710F02230E1F475
:1013C000422F7801EC011E8D22DE1F3F79F48989BE
:1013D0008823A1F0CE01419681D7882389F0E114BA
:1013E000F10481F081E0F70180830DC0FF24F394C4
:1013F000F10EFE8E81E007C080E005C081E003C0F1
:1014000081E001C081E0DF91CF911F910F91FF90AA
:10141000EF9008959F92AF92BF92CF92DF92EF929A
:10142000FF920F931F93CF93DF9300D01F921F92D1
:10143000CDB7DEB78C015B015D834C83E12C992431
:1014400093946C0181E1C80ED11C0FB6F8940F92F1
:10145000F801F28CFF2091F0B501C80137DEFA9453
:10146000F801F28E8085882329F0C801089636D7C6
:101470008111FBDC0F900FBE81E044C08C819D8107
:10148000892B21F40F900FBE80E03CC0E11004C016
:10149000CE0101966BD7E92C0F900FBE10D50FB679
:1014A000F8940F92F801858D8F3F09F4158EF8019D
:1014B000868D8F3F09F4168E0F900FBEBE016C5FB4
:1014C0007F4FCE0101965DD7811113C0C80194DD15
:1014D000882359F06C817D81C601D7D6C80110DE02
:1014E000B8D58111B2CFC1DCB0CFC80109DEB1D50A
:1014F000ACCFC80105DEADD5C8017EDD882309F477
:10150000A4CF80E00F900F900F900F900F90DF917D
:10151000CF911F910F91FF90EF90DF90CF90BF90F0
:10152000AF909F900895BF92CF92DF92EF92FF927B
:101530000F931F93CF93DF9300D01F921F92CDB7CD
:10154000DEB78C017D836C83B12CD12CCC24C39469
:101550007C0181E1E80EF11C0FB6F8940F92D801DE
:101560005A968C915A978823D9F081505A968C9329
:101570005A978D919C91892B29F40E940F13F801A1
:1015800095838483D80118968C91882329F0C8010B
:101590000896A4D6811169DC0F900FBE81E070C05F
:1015A0008C819D81892B21F40F900FBE80E068C053
:1015B000D11004C0CE010196D9D6DC2C0F900FBEFD
:1015C0007ED40FB6F8940F92F801858D8F3F09F401
:1015D000158ED8015E968C915E978F3F11F45E96C2
:1015E0001C920F900FBEBE016C5F7F4FCE01019623
:1015F000C8D6811121C0C801FFDC8823C9F0F801D9
:1016000080819181892B49F40FB6F8940F928481DF
:10161000958103D7B82E0F900FBE6C817D81C701D5
:1016200034D6C8016DDD15D5811196CF1EDC94CF5F
:10163000C80166DD0ED590CFC80162DD0AD5C801AC
:10164000DBDC882309F488CFBB20C9F00FB6F894FF
:101650000F92F8018189882339F00688F789E02DF7
:10166000808164E0681B01C060E0D80114968D9110
:101670009C91159784D70F900FBE80E001C080E049
:101680000F900F900F900F900F90DF91CF911F91BF
:101690000F91FF90EF90DF90CF90BF900895CF9380
:1016A000DF93EC010FB6F8940F928D8D8F3F09F404
:1016B0001D8E8E8D8F3F09F41E8E0F900FBE8A8D6A
:1016C000811103C0CE014196F1D5CE0119DDDF9124
:1016D000CF910895FC014481558122813381240FEB
:1016E000351F80819181B901681B790BCB0164178B
:1016F000750710F0841B950B0895AF92BF92CF929F
:10170000DF92EF92FF920F931F93CF93DF936C01C1
:101710005B017A01FC01C281D381048115810C1B1C
:101720001D0B4017510708F48A01F6018485958541
:10173000A801B5018C0F9D1F0E94C6250E151F051F
:1017400058F4A701401B510BB501600F711FF60142
:10175000848595850E94C625CE018E0D9F1DF601BC
:10176000248135818217930710F0821B930BF601B9
:1017700093838283C701DF91CF911F910F91FF90D7
:10178000EF90DF90CF90BF90AF900895CF92DF920F
:10179000EF92FF920F931F93CF93DF931F921F92AD
:1017A000CDB7DEB75A83498321153105C9F06B01E6
:1017B0007C01FC01868580FD08C0CA01241735071D
:1017C00008F4C9019A83898311C02017310758F0A2
:1017D00042E050E0BE016F5F7F4FC7018EDF06C061
:1017E00080E090E008C080E090E005C049815A8127
:1017F000B601C70182DF0F900F90DF91CF911F914B
:101800000F91FF90EF90DF90CF900895AF92BF922D
:10181000CF92DF92EF92FF920F931F93CF93DF93BC
:101820007C015B01E9014217530708F4EA012097A4
:1018300079F1F70100811181C480D580C01AD10AE5
:10184000CC15DD0508F46E01F70164857585600F20
:10185000711FA601C5010E94C625CC16DD0658F4ED
:10186000AE014C195D09F70164857585C5018C0DC4
:101870009D1D0E94C6250C0F1D1FF70184819581B7
:101880000817190710F0081B190BF70111830083C3
:10189000CE01DF91CF911F910F91FF90EF90DF90DC
:1018A000CF90BF90AF900895EF92FF921F93CF9388
:1018B000DF93EB0111E0413009F010E0209711F4C3
:1018C000C1E0D0E07C012FEFE21AF20A4196AAD8DB
:1018D000009781F020E1FC0111922A95E9F79C0123
:1018E000205F3F4FFC0135872487F582E482D78350
:1018F000C6831687DF91CF911F91FF90EF900895D7
:10190000CF93DF93FC0127850FB6F8940F92808563
:101910009185892BD1F482859385892BC1F48685A5
:101920004681578164817581A485B58590E1EF0179
:1019300019929A95E9F7B587A487758364835783CD
:1019400046838687278781E003C080E001C080E06E
:101950000F900FBEDF91CF910895FC012481358156
:101960008081918142815381820F931F0197841B53
:10197000950B8217930710F0821B930B0895AF927B
:10198000BF92CF92DF92EF92FF920F931F93CF936C
:10199000DF93EC015B016A0179018E8580FF04C051
:1019A0008A010E5F1F4F01C08A01CE01D6DF9C0164
:1019B000A601B501CE01EADE6C01892BB1F0CE01A2
:1019C00089DE2E813F818217930778F0888599857B
:1019D000892B59F08885998500E010E020E040E0EF
:1019E00050E0BA012FD719861886C601DF91CF9132
:1019F0001F910F91FF90EF90DF90CF90BF90AF902D
:101A000008956F927F928F929F92AF92BF92CF92E2
:101A1000DF92EF92FF920F931F93CF93DF931F926A
:101A20001F92CDB7DEB76C013B014A017901FC0181
:101A3000868580FD03C0A12CB12C04C06894AA2423
:101A4000A1F8B12CE114F10429F10FB6F8940F922A
:101A5000C60140DE8C01A816B90638F080E090E09F
:101A600081D7C8D4F601918780870F900FBEA0164A
:101A7000B106B0F000E010E020E030E0A90160E045
:101A800070E0CB01DED5F60111861086C60122DE9C
:101A90008C0103C0C6011EDE8C01A016B106B8F58C
:101AA000A114B104C1F0F601E080F1809801A50114
:101AB000BE016F5F7F4FC601A9DE89819A810A1935
:101AC0001B098816990630F4F601F182E082812C18
:101AD000912C01C04C019801A401B301C60196DE0E
:101AE0007C01892BB1F0EBD1F60182859385892B9E
:101AF00061F08285938500E010E020E040E050E056
:101B0000BA0122D6F60113861286A3D202C0E12CB6
:101B1000F12CC7010F900F90DF91CF911F910F9182
:101B2000FF90EF90DF90CF90BF90AF909F908F90FD
:101B30007F906F900895E0916718F0916818808108
:101B4000811107C08FEF9FEF90933F1880933E184D
:101B50000895E0916718F09168180580F681E02DEE
:101B60000680F781E02D8281938190933F188093C6
:101B70003E180895FF920F931F93CF93DF93EC01CC
:101B8000F62E009146181091471880919F18909159
:101B9000A018029695D8CF3F8FEFD80761F4FF20A9
:101BA00051F060919F187091A0186E5F7F4F89E48B
:101BB00098E134D82DC0C00FD11FE0919F18F0914B
:101BC000A018D383C283C017D10760F460919F1817
:101BD0007091A01880916518909166186E5F7F4F84
:101BE0003ED816C060919F187091A0188091671818
:101BF000909168186E5F7F4F32D880913E18909117
:101C00003F18C817D90720F4D0933F18C0933E1847
:101C1000DF91CF911F910F91FF9008954F925F92A6
:101C20006F927F928F929F92AF92BF92CF92DF92EC
:101C3000EF92FF920F93CF93DF934C016B015A0108
:101C40002901CA010E9412053C01892B09F4F3C045
:101C50008CE290E00E941205EC01892B99F0788EBD
:101C60006F8AA50165EA70E0C3010E94CF2581E07B
:101C7000A81AB1088F89988DA80EB91EC114D10475
:101C800029F420C0C3010E94CB05D5C0D6018C9198
:101C9000898F8C918823A1F0AE01465E5F4FF601DB
:101CA0003196B8E0CB0ED11CCF012191DA012D93F2
:101CB000AD01DC018C91882319F0EC15FD05A1F72D
:101CC00018A201C0198E043008F003E00E8B0BA39C
:101CD0001CA26E01B2E0CB0ED11CC6010E940A0606
:101CE000CE010C960E940A06D987C88784E090E04E
:101CF000801B91099D878C87DB8BCA8B1EA21DA23E
:101D00001FA218A619A61AA61BA6A201B401C501F6
:101D10000E94870699838883E114F10419F0F70182
:101D2000D183C0830FB6F8940F92809148188F5FCB
:101D30008093481880919F189091A018892BD1F515
:101D4000D093A018C0939F1880914818813009F053
:101D500041C08BE798E10E94FC0584E898E10E946D
:101D6000FC058DE898E10E94FC0586E998E10E9457
:101D7000FC0582E798E10E94FC0589E698E10E9453
:101D8000FC058CE598E10E94FC0583E598E10E9442
:101D9000FC0589E498E10E94FC0582E798E19093B4
:101DA00068188093671889E698E190936618809385
:101DB000651810C08091441881110CC0E0919F18E3
:101DC000F091A01896898E89891720F0D093A018D9
:101DD000C0939F18809140188F5F8093401889A30B
:101DE0008E8990914518981710F48093451890E0CB
:101DF0009C01220F331F220F331F220F331F820F2C
:101E0000931FB6018558974E0E940E060F900FBE85
:101E100080914418882359F0E0919F18F091A01800
:101E200096898E89981728F420D881E005C081E032
:101E300003C081E001C08FEFDF91CF910F91FF9040
:101E4000EF90DF90CF90BF90AF909F908F907F905A
:101E50006F905F904F900895EF92FF920F930F2E27
:101E6000FCE3EF2EF8E1FF2EF02D00E020E030E063
:101E700040EC50E06BE975E08DEC90E0CFDE813016
:101E8000D1F4DCD58130B9F4F8948FEF9FEF9093C3
:101E90003F1880933E1881E08093441810924718B1
:101EA00010924618E0919F18F091A01885A10E9409
:101EB000B5040E94F9060F91FF90EF90089580916C
:101EC0003B188F5F80933B1808950FB6F8940F92DC
:101ED00080914618909147180F900FBE0895CF92A9
:101EE000DF92EF92FF920F931F93CF93DF93809136
:101EF0003B18811198C0E0904618F09047188FEF7A
:101F0000E81AF80AF0924718E0924618E114F10432
:101F1000B1F48091671890916818209165183091FC
:101F2000661830936818209367189093661880930A
:101F30006518809141188F5F80934118FCDD809176
:101F40003E1890913F18E816F90610F4D12C53C0B2
:101F5000D12CCC24C394E0916718F091681880814B
:101F6000811107C08FEF9FEF90933F1880933E1829
:101F700042C0E0916718F09168180580F681E02D65
:101F8000C681D7818A819B81E816F90628F490934F
:101F90003F1880933E182FC08E010E5F1F4FC8015F
:101FA0000E9460068C899D89892B21F0CE010C96B8
:101FB0000E9460068E8990914518981710F48093BE
:101FC000451890E09C01220F331F220F331F220F70
:101FD000331F820F931FB8018558974E0E940E063B
:101FE000E0919F18F091A0189E898689981708F4AF
:101FF000B2CFDC2CB0CFE0919F18F091A018868969
:1020000090E0FC01EE0FFF1FEE0FFF1FEE0FFF1F12
:102010008E0F9F1FFC01E558F74E8081823048F0FB
:10202000DD24D39406C0809143188F5F80934318BA
:10203000D12C80914218882311F0DD24D3948D2D6A
:10204000DF91CF911F910F91FF90EF90DF90CF9094
:102050000895DF92EF92FF920F931F93CF93DF9338
:102060000FB6F8940F9280913B18815080933B18E3
:1020700080913B1881115DC080914818811133C057
:102080005BC0D7011596ED91FC911697C681D7815B
:10209000CE010C960E9460068E010E5F1F4FC80194
:1020A0000E9460068E8990914518981710F48093CD
:1020B000451890E09C01220F331F220F331F220F7F
:1020C000331F820F931FB8018558974E0E940E064A
:1020D000E0919F18F091A0189E898689981768F062
:1020E000D09242180AC0C0E0D0E00F2EFCE5EF2EDF
:1020F000F8E1FF2EF02DDD24D394F70180818111CA
:10210000C0CFCD2B09F017DDC0914318CC2349F087
:10211000D1E0E5DE8111D0934218C150D1F7109281
:10212000431880914218882331F00E94350781E0DE
:1021300003C080E001C080E00F900FBEDF91CF911F
:102140001F910F91FF90EF90DF900895CF93DF9351
:10215000EC01892B39F0B3DE60E0CE010BDD79DFD5
:10216000811102C00E943507DF91CF9108958091BF
:102170003B18882321F081E0809342180895109243
:102180004218E0919F18F091A01885A10E94BF0409
:10219000A0919F18B091A018E0919F18F091A018FD
:1021A0002D913C918789908D8217930758F060910B
:1021B0009F187091A01880919F189091A018675E49
:1021C0007F4F1FD520914518822F90E0FC01EE0F24
:1021D000FF1FEE0FFF1FEE0FFF1FE80FF91FE5585F
:1021E000F74E3081311111C02150822F90E0FC0157
:1021F000EE0FFF1FEE0FFF1FEE0FFF1FE80FF91F7F
:10220000E558F74E3081332379F3AC01440F551F65
:10221000440F551F440F551F480F591FDA01A55889
:10222000B74E1196ED91FC9112970280F381E02D4B
:102230001296FC93EE9311974258574EE417F50708
:1022400029F442815381FD0152834183FC01EE0F49
:10225000FF1FEE0FFF1FEE0FFF1F8E0F9F1FFC01D2
:10226000E558F74E0180F281E02D868197819093A9
:10227000A01880939F1820934518E0919F18F09123
:10228000A01885A10C94B5040895CF93DF93EB01BA
:1022900060919F187091A018645F7F4F0E942F0675
:1022A00061E0CE0167DCDF91CF9108950F931F931A
:1022B000CF938B01C42F60919F187091A018645F19
:1022C0007F4F0E940E06CC2311F00FEF1FEF6C2FF3
:1022D000C80150DCCF911F910F9108950F931F9368
:1022E000CF93DF93DC011596ED91FC911697C68193
:1022F000D7818E01045F1F4FC8010E946006809144
:102300003B1881111CC00A501109C8010E946006C7
:102310008E8990914518981710F48093451890E095
:102320009C01220F331F220F331F220F331F820FF6
:10233000931FB8018558974E0E940E0605C0B8013C
:102340008CE598E10E940E06E0919F18F091A0188C
:102350009E898689891720F481E08093421801C004
:1023600080E0DF91CF911F910F9108952091411846
:10237000FC01208320914618309147183283218335
:102380000895CF93DF930FB6F8940F9220914618DB
:1023900030914718DB014D915C914F3FBFEF5B07D8
:1023A000E9F0EC01E981FA81A0914118B881BA17EE
:1023B00019F02E173F07A0F42E1B3F0B24173507EB
:1023C00040F4FB01421B530B51834083CFDF80E07D
:1023D00008C0FB011182108281E003C080E001C0CF
:1023E00081E00F900FBEDF91CF91089581E080933F
:1023F0004218089580919F189091A0180895809197
:102400004418882331F080913B18882321F080E024
:10241000089581E0089582E008950F931F93CF936C
:10242000DF93FC01892B09F464C02689A0919F18D1
:10243000B091A01856968C91281708F04EC084854C
:102440009585992364F0A0919F18B091A018569695
:102450003C9184E090E0831B91099587848730E06C
:10246000C901880F991F880F991F880F991F280F7E
:10247000391F2558374E828593858217930721F59A
:102480008F01EF012296CE010E946006E0919F1815
:10249000F091A0188689F801868B909145189817BD
:1024A00010F48093451890E09C01220F331F220FF7
:1024B000331F220F331F820F931FBE018558974E83
:1024C0000E940E0681E016C0A0919F18B091A0183E
:1024D00056968C91868B81E00DC0A0919F18B0918B
:1024E000A01881E023A156969C91291718F080E04E
:1024F00001C080E0DF91CF911F910F9108950F935C
:102500001F93CF93DF93FC01892B79F184A1815034
:1025100084A3268993A1291751F181112AC0EF01C3
:102520008F010E5F1F4FC8010E9460068BA18E8B2A
:1025300024E030E0281B31093D872C879091451815
:10254000981710F48093451890E09C01220F331FD8
:10255000220F331F220F331F820F931FB80185589C
:10256000974E0E940E0681E005C080E003C080E027
:1025700001C080E0DF91CF911F910F9108950F93DB
:102580001F93CF93DF93FC01892B09F443C093A1E0
:10259000961708F4962F86898917E1F124A1213036
:1025A000C9F5968B24853585332334F024E030E05B
:1025B000291B31093587248790E09C01220F331FA6
:1025C000220F331F220F331F820F931F8558974E00
:1025D0002285338528173907E9F4EF018F010E5F53
:1025E0001F4FC8010E9460068E8990914518981768
:1025F00010F48093451890E09C01220F331F220FA6
:10260000331F220F331F820F931FB8018558974E37
:102610000E940E06DF91CF911F910F910895809136
:102620009F189091A018892B39F0E0919F18F09194
:10263000A01884A18F5F84A380919F189091A01807
:1026400008954F925F926F927F928F929F92AF9276
:10265000BF92EF92FF920F931F9349015A010FB659
:10266000F8940F92E0919F18F091A01823A52230C2
:1026700021F1E0919F18F091A01847A050A461A407
:1026800072A4DC01CB0180959095A095B095842132
:102690009521A621B72187A390A7A1A7B2A7E09172
:1026A0009F18F091A01881E083A7E114F10429F0AC
:1026B00061E0C7015FDA0E9435070F900FBE0FB6C9
:1026C000F8940F920115110569F0E0919F18F091AF
:1026D000A01887A190A5A1A5B2A5F8018083918338
:1026E000A283B383E0919F18F091A01883A5823054
:1026F000B1F4E0919F18F091A01887A190A5A1A531
:10270000B2A580949094A094B09488229922AA2291
:10271000BB2287A290A6A1A6B2A681E001C080E05C
:10272000E0919F18F091A01813A60F900FBE1F9173
:102730000F91FF90EF90BF90AF909F908F907F9000
:102740006F905F904F9008950F931F93CF93DF93F7
:10275000FC010FB6F8940F920115110549F087A1FD
:1027600090A5A1A5B2A5E80188839983AA83BB831C
:1027700083A592E093A72230B1F018F4213031F014
:102780002AC02330E9F0243001F125C007A110A5AB
:1027900021A532A5402B512B622B732B47A350A7A9
:1027A00061A772A718C047A150A561A572A54F5F88
:1027B0005F4F6F4F7F4F47A350A761A772A70BC012
:1027C00047A350A761A772A706C0823079F147A33B
:1027D00050A761A772A7813059F5EF018F010E5FF5
:1027E0001F4FC8010E9460068E8990914518981766
:1027F00010F48093451890E09C01220F331F220FA4
:10280000331F220F331F820F931FB8018558974E35
:102810000E940E06E0919F18F091A0189E8986896B
:10282000891740F40E94350781E005C080E003C0AD
:1028300081E001C081E00F900FBEDF91CF911F9129
:102840000F910895EF92FF920F931F93CF93DF9311
:10285000FC010115110549F087A190A5A1A5B2A51C
:10286000E80188839983AA83BB8383A592E093A719
:102870002230B1F018F4213031F02BC02330E9F0D0
:10288000243001F126C007A110A521A532A5402BB7
:10289000512B622B732B47A350A761A772A719C0B6
:1028A00047A150A561A572A54F5F5F4F6F4F7F4F46
:1028B00047A350A761A772A70CC047A350A761A761
:1028C00072A707C0823009F441C047A350A761A78F
:1028D00072A78130E9F5EF0180913B1881111DC08D
:1028E0008F010E5F1F4FC8010E9460068E89909174
:1028F0004518981710F48093451890E09C01220F1A
:10290000331F220F331F220F331F820F931FB80173
:102910008558974E0E940E0607C0BF01645F7F4F27
:102920008CE598E10E940E06E0919F18F091A018A6
:102930009E898689891770F4E114F10419F081E009
:10294000F701808381E08093421805C080E003C0D6
:1029500081E001C081E0DF91CF911F910F91FF9045
:10296000EF900895009721F480919F189091A018FE
:102970000FB6F8940F92FC0123A5223019F413A688
:1029800081E001C080E00F900FBE0895FC017383C9
:102990006283918780874617570790F0421B530B3D
:1029A0008485958548175907E0F4BF016E5F7F4F16
:1029B0008091A7189091A8180E942F0680E0089592
:1029C0004217530718F46217730768F4BF016E5F6C
:1029D0007F4F8091A9189091AA180E942F0680E03D
:1029E000089581E0089581E008950FB6F8940F925C
:1029F0008091A5189091A618892BE9F484EB98E1B1
:102A00000E94FC058BEA98E10E94FC0584EB98E1AA
:102A10009093AA188093A9188BEA98E19093A8182C
:102A20008093A71840E065E08AE00E941009909327
:102A3000A6188093A5180F900FBE0895EF92FF92ED
:102A40000F93D3DF8091A5189091A618892B89F058
:102A50000F2EF3EAEF2EF8E1FF2EF02D03E020E039
:102A600030E045E550E060EA75E083E091E0D6D8DB
:102A700001C080E00F91FF90EF9008950F931F9396
:102A8000CF93DF9300D01F921F92CDB7DEB7E091B6
:102A9000A518F091A618309769F1D90169835B8375
:102AA0004A839D838C836630E4F4A9DC823061F430
:102AB00020E0A801BE016F5F7F4F8091A518909123
:102AC000A6180E943E0917C020E040E050E0BE0179
:102AD0006F5F7F4F8091A5189091A6180E943E09C4
:102AE0000AC020E0AD01BE016F5F7F4FCF010E94A1
:102AF000D20901C080E00F900F900F900F900F90BF
:102B0000DF91CF911F910F910895AF92BF92CF9215
:102B1000DF92EF92FF920F931F93CF93DF936C019D
:102B2000D4D97C018091A1189091A218E816F906D9
:102B300008F047C02FC00580F681E02DA080B1804D
:102B4000C681D7818E010E5F1F4FC8010E946006AB
:102B5000E889F989CE0119958B8982FF1BC08C8584
:102B60009D858A0D9B1DA816B90660F49B838A83F8
:102B7000D987C887B8018091A9189091AA180E9496
:102B80002F0608C000E010E020E030E0A50160E082
:102B9000CE0174DFE091A918F091AA18808181110B
:102BA000CACF8091A7189091A8189093AA188093E3
:102BB000A918F093A818E093A71881E0F601808384
:102BC00002C0F6011082F092A218E092A118C7018B
:102BD000DF91CF911F910F91FF90EF90DF90CF90F9
:102BE000BF90AF9008950895279A2F9A2FEF80E70E
:102BF00092E0215080409040E1F700C000001F9A11
:102C0000F5CF279A2F9A2FEF87EA91E6215080403F
:102C10009040E1F700C000001F9AF5CFE1E3FAE130
:102C200029EE3BE1318320832CEE3BE13383228389
:102C300027EF3BE1358324832BEF3BE1378326836A
:102C400021E03CE1318720872DE03CE1338722877A
:102C500022E13CE1358724872EE13CE13787268756
:102C60002EEF3BE1318B208B23E23CE1338B228B37
:102C700020E33CE1358B248B682FCF0151C10895AF
:102C80006530F1F4FA0180818F7390E0982F8827E6
:102C90002181822B90930902809308028281F0E4C3
:102CA0008F9FC0011124FA01238126952695822B3E
:102CB000909307028093060281E08093BD180895E7
:102CC000643051F080E090E4909307028093060214
:102CD000909309028093080208950F931F9300E4D4
:102CE00016E120E034E244EF50E060E087E20E9429
:102CF000C5209093BF188093BE1821E0892B09F05E
:102D000020E0822F1F910F9108958091BE1890911D
:102D1000BF18009759F040E060E070E00E94162173
:102D2000843031F41092BD1880E0089582E0089557
:102D300083E008958091BE189091BF18009739F0F4
:102D400064E00E946221853021F083E0089582E0F2
:102D5000089580E00895609108027091090280E072
:102D600090E00E946C2320E030E048EC52E40E94A6
:102D7000FA2320E038EF4FE756E40C94D32208956D
:102D8000EADF20E030E040E251E40E94FA230E94B2
:102D90004023CB010895609106027091070280E004
:102DA00090E00E946C2320E030E045E253E40E9472
:102DB000FA2320E038EF4FE756E40E94D32220E0C8
:102DC00030E040E252E40C946E220895E4DF20E00B
:102DD00030E040E251E40E94FA230E943B23CB0101
:102DE0000895CF93DF9390E0FC01EE0FFF1FE80FF3
:102DF000F91FEE0FFF1FE054F74E238121110AC087
:102E0000EF01E091391AF0913A1A6A81888199812B
:102E1000199512C0DC01AA0FBB1FED01C80FD91F05
:102E2000CC0FDD1FC054D74EE091431AF091441AE5
:102E30006A81888199811995DF91CF910895CF9307
:102E4000DF9390E0FC01EE0FFF1FE80FF91FEE0F7C
:102E5000FF1FE054F74E238121110AC0EF01E091DA
:102E6000431AF091441A6A8188819981199512C098
:102E7000DC01AA0FBB1FED01C80FD91FCC0FDD1F4E
:102E8000C054D74EE091391AF0913A1A6A8188817C
:102E900099811995DF91CF91089588EA95E00E9474
:102EA00013260F2EF1E3CF2EFAE1DF2EF02D04E0F2
:102EB000C0ECD8E110E08C81813069F0E8F082301C
:102EC00039F5D6011C96ED91FC911D976A81888198
:102ED000998119951DC08D818F5F8A3010F48D8383
:102EE00017C01D82D6011C96ED91FC911D976A8139
:102EF0008881998119950CC08D81882331F0812FAB
:102F00009EDF8D8181508D8303C00C83812F69DF0B
:102F10001F5F2696143079F685E090E017D9C8CF68
:102F2000CF92DF92EF92FF920F931F93CF93DF9395
:102F3000062F0F2EF1E3EF2EFAE1FF2EF02DD70131
:102F40001896ED91FC91199766E087E290E019954B
:102F5000C0ECD8E10F2EF8E2CF2ED12CF02DD98283
:102F6000C88286E08A831B8214E01C8380E039DFFC
:102F7000D7011896ED91FC91199767E087E290E0F0
:102F80001995DF82CE8287E0888719861A8781E0CB
:102F900028DFD7011896ED91FC91199765E083E33E
:102FA00090E01995D7011896ED91FC91199761E081
:102FB00084E390E0199584E390E09D878C8785E019
:102FC0008E871F86188B82E00CDFD7011896ED9153
:102FD000FC91199764E081E091E01995D70118966A
:102FE000ED91FC91199761E082E091E0199582E002
:102FF00091E09B8B8A8B1C8B1D8A1E8B83E0F1DEFC
:10300000E12CF12C20E030E040EC50E06FEB75E07B
:103010008DE497E10E940E0EDF91CF911F910F91E9
:10302000FF90EF90DF90CF9008950F931F93CF9371
:10303000DF931F921F92CDB7DEB78C0119822DC08E
:10304000E0913C19EC3250F481E08E0F80933C19F2
:10305000F0E0E459F64E8A81808302C010923C1958
:103060008A818A30D1F440913C1950E0FA01E65946
:10307000F64E1082415051099E012F5F3F4F6CE682
:1030800079E180913D1990913E190E94BF0C898190
:1030900081110E94350710923C19BE016E5F7F4F6F
:1030A000C801A7D5882361F20F900F90DF91CF91CF
:1030B0001F910F9108950F931F93CF93DF938C016E
:1030C000EB0180913D1990913E190E94800CB8014E
:1030D00088ED98E10E94E125209779F0E8EDF8E18C
:1030E00001900020E9F7319780E290E0918380839E
:1030F000BE0188ED98E10E94D625E8EDF8E1DF01F8
:103100000D900020E9F711978DE09AE011969C93BD
:103110008E9312961C9201900020E9F73197E85D9A
:10312000F841AE2F88ED98E1AC016A2F80913F19EC
:10313000909140190ED581110FC028E235E04DE283
:1031400050E066EC79E180913D1990913E190E9422
:10315000010D86EC99E102C080E090E0DF91CF9113
:103160001F910F910895AF92BF92CF92DF92EF928D
:10317000FF920F931F93CF93DF936C01FC0101909B
:103180000020E9F731977F01E81AF90A0BE418E00B
:10319000C0E0D0E0F80160817181A701C6010E9402
:1031A000E825892B49F4FE01EE0FFF1FEC0FFD1FF0
:1031B000E65BF74F808107C021960D5F1F4FC1313D
:1031C000D10541F780E1DF91CF911F910F91FF90E1
:1031D000EF90DF90CF90BF90AF9008956CDFC3CF9A
:1031E000089580913D1990913E190C94800C08959A
:1031F0008F929F92AF92CF92EF920F93CF93C82F5F
:1032000041E060E070E088EC90E00E94540C909304
:103210003E1980933D190F2EF5E18F2EF8E19F2E78
:10322000F02D6894AA24A6F86894CC24C6F8E12C62
:1032300000E023E040E051EE60E070E08C2FCED360
:103240009093401980933F19E091391AF0913A1AFE
:1032500064E087E091E01995CF910F91EF90CF90C6
:10326000AF909F908F900895882349F0E091431A82
:10327000F091441A64E088E091E019950895E09196
:10328000391AF0913A1A64E088E091E019950895AE
:1032900060E070E086EE95E00EDFE6ECF9E101908B
:1032A0000020E9F73197E65CF94181E0759708F075
:1032B00080E00895CF93DF93EC0160E070E087EF4A
:1032C00095E0F9DEE6ECF9E101900020E9F7E75D31
:1032D000F94139F466EC79E1CE010E94E12580E004
:1032E00002C0188281E0DF91CF910895FC01019026
:1032F0000020E9F79F01215131092817390729F4E6
:10330000BC0185E296E06ACF089589E00895FC014A
:1033100001900020E9F79F01215131092817390751
:1033200029F4BC0184E396E059CF089589E008951B
:10333000FC0101900020E9F79F0121523109281773
:10334000390729F4BC0183E496E048CF089589E069
:10335000089560E070E082E896E040CF0895E82F9D
:10336000F0E0EE0FFF1FEA5BF74F608171818BE8A1
:1033700096E034DF811112C028E235E04DE250E0E2
:1033800066EC79E180913D1990913E190E94010D02
:10339000882321F086EC99E1E6CE089586EC99E148
:1033A000E2CE0895CF93DF931F92CDB7DEB7DB0156
:1033B00011969C911197953108F087C0992381F15E
:1033C00060E070E0272F30E0462F50E0FD01E40F71
:1033D000F51F928192959F709A3010F0995C01C010
:1033E000905DF901E95AF64E90832F5F3F4FFD0142
:1033F000E40FF51F92819F70492F50E04A3051052C
:1034000014F0995C01C0905DF901E95AF64E908381
:103410007E5F6F5F11969C911197691798F201C0BA
:1034200070E0E72FF0E0E95AF64E10824C918111DE
:1034300003C084E996E002C086E996E027E539E119
:103440003F932F931F924F939F938F938AE996E018
:103450009F938F9389E999E19F938F930E944326CD
:1034600060E070E089E999E1B9DE0FB6F894DEBF5B
:103470000FBECDBF8E3051F587E08983BE016F5FEF
:103480007F4F86EC99E130D180934119E981F0E0DA
:10349000EA53F64EDF010D900020E9F71197AE1BBD
:1034A000BF0BAA2381F0BB271197CD010AF4019627
:1034B0009595879580934219AF014F5F5F4F64E107
:1034C00083E499E13DD18EE001C084E10F90DF916A
:1034D000CF910895813019F06AEA76E002C06AE679
:1034E00077E08EEA96E07ACE08952F923F924F923F
:1034F0005F926F927F928F929F92AF92BF92CF9284
:10350000DF92EF92FF920F931F93CF93DF93CDB78C
:10351000DEB7A0970FB6F894DEBF0FBECDBF63EF46
:1035200076E08FEF96E0C7DD1EDE8111A3C080E25A
:10353000E1E2F2E0DE01119601900D928A95E1F749
:103540009E012F5F3F4F6901E12CF12C0F2EFBE014
:10355000AF2EF7E0BF2EF02D09E919E10F2EF4E2AE
:103560004F2EF7E05F2EF02D0F2EFBE38F2EF7E0AE
:103570009F2EF02D0F2EF5E56F2EF7E07F2EF02D0C
:103580003E2C2F2CFF92EF92BF92AF921F930F937E
:103590000E94432660E070E0C8018DDDE4DD0F90FD
:1035A0000F900F900F900F900F90811163C032E039
:1035B0003E15E8F4F60183818F9382818F93818198
:1035C0008F9380818F93FF92EF925F924F921F9320
:1035D0000F930E94432660E070E0C8016CDDC3DDFC
:1035E0000FB6F894DEBF0FBECDBF811143C02F923E
:1035F0003F929F928F921F930F930E94432660E009
:1036000070E0C80158DDAFDD0F900F900F900F9064
:103610000F900F9081112EC02F923F927F926F9248
:103620001F930F930E94432660E070E0C80143DDC2
:103630009ADD0F900F900F900F900F900F908111C7
:1036400019C03FEFE31AF30A84E0C80ED11C98E0DA
:10365000E916F10409F094CF60E070E08DE697E0A0
:103660002ADD81DD811106C060E070E08EE797E021
:1036700022DD79DDA0960FB6F894DEBF0FBECDBF78
:10368000DF91CF911F910F91FF90EF90DF90CF903E
:10369000BF90AF909F908F907F906F905F904F9072
:1036A0003F902F900895EF92FF920F931F93CF9327
:1036B000DF93EC018B017A0181E00CDF81110DC0F9
:1036C000CE0125DE811109C0C80132DE811105C09D
:1036D000C7010CDE811101C03CDEDF91CF911F914B
:1036E0000F91FF90EF900895DC01009729F1FB0105
:1036F0002081FC0101900020E9F73197E81BF90BCC
:10370000822F90E0E817F907C8F080E008C0880F22
:10371000382F330F330F830F8053890F2F5FFD0135
:10372000E20FF11D908130ED390F3A3010F4911114
:10373000EECFFB012083089580E0089580E0089596
:103740000F931F93CF93DF93DC01EA012097E1F100
:10375000FA0101900020E9F73197E41BF50B32974D
:1037600010F532C08D01040F151F30E0AE01420F7D
:10377000531FFA019081913428F09753592F529595
:10378000507F03C0592F5295507F2C0F3D1FF901D8
:103790009181913410F0975301C09053950FF80127
:1037A00090838F5F01C080E0282F220F482F50E0C8
:1037B000FE0101900020E9F73197EC1BFD0B4E173D
:1037C0005F0710F48613CECFDF91CF911F910F9139
:1037D0000895FC0180810895FC01208181E090E042
:1037E00002C0880F991F6A95E2F782230895FC01B1
:1037F000808186230895FC0160830895FC01108276
:103800000895FC01408121E030E002C0220F331F07
:103810006A95E2F7242B20830895FC012081622B16
:1038200060830895FC01408121E030E002C0220F56
:10383000331F6A95E2F7242720830895FC01208135
:10384000622760830895FC01908121E030E002C08E
:10385000220F331F6A95E2F72095292320830895CC
:10386000FC01908160956923608308958091F61929
:10387000860F8093F6199091F919913079F028F01C
:103880009230A9F0933019F108956F3F09F048C0C4
:103890001092F61981E08093F9190895663809F0BD
:1038A0003FC01092F51982E08093F9190895E091D4
:1038B000F51981E08E0F8093F519F0E0ED50F64E8A
:1038C0006083823069F583E08093F91908959091BF
:1038D000F51921E0290F2093F519963009F581118A
:1038E0000EC0E3EFF9E1808190E0982F88272181D5
:1038F000820F911D9093FB198093FA1904C01092C6
:10390000FB191092FA191092F919E091F719F09138
:10391000F819309729F08091FA199091FB191995AF
:1039200008958F929F92AF92CF92EF920F93CF9381
:10393000DF93EB010F2EF6E38F2EFCE19F2EF02D8F
:103940006894AA24A4F86894CC24C4F8E12C00E07C
:1039500023E040E855E260E070E040D09093FD192C
:103960008093FC19D093F819C093F719DF91CF9188
:103970000F91EF90CF90AF909F908F900895CF933D
:10398000DF93CDB7DEB729970FB6F894DEBF0FBE31
:10399000CDBF89E0E1E4F2E09E012F5F3F4FD90106
:1039A00001900D928A95E1F71092FB191092FA1985
:1039B0008091FC199091FD19009731F0422F532FFF
:1039C00069E0C7D080E001C082E029960FB6F89484
:1039D000DEBF0FBECDBFDF91CF9108952F923F92F2
:1039E0004F925F926F927F928F929F92AF92CF92FF
:1039F000EF92FF920F931F93CF93DF93CDB7DEB774
:103A0000F82E2A013B0188E090E09BD78C018F2D96
:103A100090E0880F991FFC01E250F64E118300835D
:103A2000FC01E65FFD4F80819181D8018D939C93CD
:103A30006C2D70E084E090E06AD71C0161E070E0DA
:103A400086E090E064D77C014C2DB1012BD5F801C4
:103A5000F582E4826A2D70E084E090E058D71C0182
:103A600061E070E086E090E052D77C014A2DB10120
:103A700019D5D8011396FC92EE92129717969C9244
:103A80008E921697FFB6F894ED91FC9111973697A8
:103A90008081826080838D909C90C301B2011CD68E
:103AA00020E030E040E051E4A5D69B01AC0160E0AD
:103AB00074E284E79BE477D520E030E040E85FE300
:103AC0000DD5DED5F40132976083D801ED91FC91DC
:103AD0001197359788E98083ED91FC91349786E0C2
:103AE0008083FFBEC801DF91CF911F910F91FF909E
:103AF000EF90CF90AF909F908F907F906F905F905E
:103B00004F903F902F900895CF93DF93EC01EA817F
:103B1000FB81938182812581981B92238481981750
:103B2000A1F0938126952923A081B181A20FB11D17
:103B30006C939F5F258192239383E881F981359768
:103B400080818062808380E001C082E0DF91CF913C
:103B50000895EF92FF920F931F93CF93DF937C0111
:103B6000DC011296ED91FC91139793818281981B51
:103B7000858198238481891B861798F1662341F1FA
:103B8000842F952FDC016150462F50E04F5F5F4F2F
:103B9000480F591FE701EA81FB81938182812581CA
:103BA000981B92238481981779F08C9193812695A4
:103BB0002923608171818B01020F111DE801888327
:103BC0009F5F8581982393831196A417B50711F7FA
:103BD000D701ED91FC91359780818062808380E0F0
:103BE00001C082E0DF91CF911F910F91FF90EF9084
:103BF0000895DC011496ED91FC91159793818281D3
:103C0000981789F09281858186958923A081B18159
:103C1000A80FB11D8C91DB018C939F5F8581982348
:103C2000928380E0089583E008951F920F920FB66B
:103C30000F9211240BB60F922F933F934F935F93E4
:103C40006F937F938F939F93AF93BF93CF93DF93A4
:103C5000EF93FF93A091FE19B091FF19109711F106
:103C60006091C6001496ED91FC9115979381828125
:103C70002581981B92238481981761F08381269572
:103C80002823C081D181C20FD11D68838F5F9581A8
:103C9000892383831696ED91FC911797309711F045
:103CA000CD011995FF91EF91DF91CF91BF91AF9128
:103CB0009F918F917F916F915F914F913F912F9144
:103CC0000F900BBE0F900FBE0F901F9018951F9274
:103CD0000F920FB60F9211240BB60F922F938F9362
:103CE0009F93AF93BF93EF93FF93E091FE19F091F1
:103CF000FF193097B9F00280F381E02D9381828122
:103D00009817B1F092818581282F26952923A081CB
:103D1000B181A20FB11D2C919F5F892382832093D3
:103D2000C6000BC0E1ECF0E080818F7D808305C090
:103D3000E1ECF0E080818F7D8083FF91EF91BF9176
:103D4000AF919F918F912F910F900BBE0F900FBE4F
:103D50000F901F9018951F920F920FB60F9211247B
:103D60000BB60F922F933F934F935F936F937F9375
:103D70008F939F93AF93BF93CF93DF93EF93FF9373
:103D8000A091001AB091011A109711F16091CE0024
:103D90001496ED91FC911597938182812581981B52
:103DA00092238481981761F0838126952823C0810E
:103DB000D181C20FD11D68838F5F95818923838351
:103DC0001696ED91FC911797309711F0CD0119954A
:103DD000FF91EF91DF91CF91BF91AF919F918F9123
:103DE0007F916F915F914F913F912F910F900BBEFB
:103DF0000F900FBE0F901F9018951F920F920FB645
:103E00000F9211240BB60F922F938F939F93AF9322
:103E1000BF93EF93FF93E091001AF091011A30974E
:103E2000B9F00280F381E02D938182819817B1F07F
:103E300092818581282F26952923A081B181A20F07
:103E4000B11D2C919F5F892382832093CE000BC0EC
:103E5000E9ECF0E080818F7D808305C0E9ECF0E043
:103E600080818F7D8083FF91EF91BF91AF919F9172
:103E70008F912F910F900BBE0F900FBE0F901F9040
:103E800018951F920F920FB60F9211240BB60F9236
:103E90002F933F934F935F936F937F938F939F9352
:103EA000AF93BF93CF93DF93EF93FF93A091021A49
:103EB000B091031A109711F16091D6001496ED910C
:103EC000FC911597938182812581981B922384818F
:103ED000981761F0838126952823C081D181C20F74
:103EE000D11D68838F5F9581892383831696ED9119
:103EF000FC911797309711F0CD011995FF91EF9133
:103F0000DF91CF91BF91AF919F918F917F916F91F1
:103F10005F914F913F912F910F900BBE0F900FBE6D
:103F20000F901F9018951F920F920FB60F921124A9
:103F30000BB60F922F938F939F93AF93BF93EF93F3
:103F4000FF93E091021AF091031A3097B9F00280C2
:103F5000F381E02D938182819817B1F09281858160
:103F6000282F26952923A081B181A20FB11D2C9164
:103F70009F5F892382832093D6000BC0E1EDF0E0A0
:103F800080818F7D808305C0E1EDF0E080818F7DB1
:103F90008083FF91EF91BF91AF919F918F912F916E
:103FA0000F900BBE0F900FBE0F901F9018951F9291
:103FB0000F920FB60F9211240BB60F922F933F93CF
:103FC0004F935F936F937F938F939F93AF93BF9321
:103FD000CF93DF93EF93FF93A091041AB091051A4A
:103FE000109711F1609136011496ED91FC9115979F
:103FF000938182812581981B92238481981761F097
:10400000838126952823C081D181C20FD11D688369
:104010008F5F9581892383831696ED91FC91179785
:10402000309711F0CD011995FF91EF91DF91CF916C
:10403000BF91AF919F918F917F916F915F914F91C0
:104040003F912F910F900BBE0F900FBE0F901F90BE
:1040500018951F920F920FB60F9211240BB60F9264
:104060002F938F939F93AF93BF93EF93FF93E09121
:10407000041AF091051A3097B9F00280F381E02D0F
:10408000938182819817B1F092818581282F26959E
:104090002923A081B181A20FB11D2C919F5F89239B
:1040A0008283209336010BC0E1E3F1E080818F7DB4
:1040B000808305C0E1E3F1E080818F7D8083FF9103
:1040C000EF91BF91AF919F918F912F910F900BBE68
:1040D0000F900FBE0F901F901895CF93DF931F92F4
:1040E000CDB7DEB7BE016F5F7F4F8091061A90910A
:1040F000071A7FDD8111F6CF898190E00F90DF9163
:10410000CF910895682F8091061A9091071AFCDCD0
:1041100080E090E008958F929F92AF92CF92EF92BD
:104120000F93812C912C6894AA24A7F86894CC242E
:10413000C7F8E12C00E023E040E051EE60E070E0E1
:104140004DDC9093071A8093061AEBE4FAE182E1C2
:1041500092E091838083938382830F91EF90CF903D
:10416000AF909F908F9008958091161A81110CC086
:104170008CE08093B8008FEF8093BB0084E0809345
:10418000BC0081E08093161A0895AF92BF92CF923F
:10419000DF92EF92FF920F931F93CF93DF93A82E9E
:1041A000B62E69017A0184E090E0CBD3EC01892B33
:1041B00061F1A88281E0B81212C0C701B60120EAFD
:1041C00036E841E050E079D3DA01C9014097A1090E
:1041D000B109B695A79597958795898311C0C701B1
:1041E000B60120E83AE146E050E067D3DA01C901C0
:1041F0004097A109B109B695A795979587958983A9
:104200001B830A838C2F9D2F02C080E090E0DF91FA
:10421000CF911F910F91FF90EF90DF90CF90BF90C3
:10422000AF9008958091BC0081700895FF920F9324
:104230001F93CF93DF930097D1F14A30D0F5F42E3E
:104240008B01EC01EFDF811136C08091091A90914A
:104250000A1AC817D90741F087DF89818093B8000F
:10426000D0930A1AC093091A81E08F0D80930B1A1C
:104270008881880F80930C1AFF2089F0F801ADE047
:10428000BAE14FEF4F0D642F70E0CB010196B801FA
:10429000680F791F81918D93E617F707D9F788EF9B
:1042A0008093200285EA8093BC0084E005C086E00C
:1042B00003C087E001C082E0DF91CF911F910F9191
:1042C000FF9008951F93CF93DF93009729F16B30F0
:1042D00028F5162FEC01A6DF811122C08091091A62
:1042E00090910A1AC817D90741F03EDF898180935F
:1042F000B800D0930A1AC093091A10930B1A888138
:10430000880F816080930C1A88EF8093200285EAE1
:104310008093BC0085E005C086E003C087E001C053
:1043200082E0DF91CF911F9108951F920F920FB6F7
:104330000F9211240BB60F922F933F934F935F93DD
:104340006F937F938F939F93AF93BF93EF93FF935D
:10435000E091B9008E2F90E0FC013897E135F1052E
:1043600008F075C08827E458FF4F8F4FC8C21092DD
:10437000081AE091081A80910B1AE81770F481E08E
:104380008E0F8093081AF0E0E45FF54E80818093F1
:10439000BB0085E88093BC0072C084E98093BC00B8
:1043A0008091091A90910A1ADC011296ED91FC9104
:1043B0001397309709F463C020E040E050E064E0D8
:1043C00019955DC0E091081A81E08E0F8093081A5C
:1043D0008091BB00F0E0E45FF54E80838091B900EE
:1043E000803411F41092081A2091081A30E080915C
:1043F0000B1A90E001972817390724F485EC809375
:10440000BC003DC085E88093BC0039C08091BB00F2
:10441000E091081AF0E0E45FF54E808384E9809330
:10442000BC008091091A90910A1ADC011296ED9154
:10443000FC911397309719F120910B1A4CE05AE137
:1044400065E019951CC085EA8093BC0018C0809176
:10445000B9008093200284E08093BC008091091A07
:1044600090910A1ADC011296ED91FC911397309706
:1044700031F020E040E050E0609120021995FF917A
:10448000EF91BF91AF919F918F917F916F915F91CC
:104490004F913F912F910F900BBE0F900FBE0F9039
:1044A0001F901895FC01411101C06CD3842F90E03E
:1044B0009C012150310982239323892B09F062D377
:1044C000413808F05FD3128213824483440F415075
:1044D00045837183608380E090E008955058BB2746
:1044E000AA270ED04DC13ED130F043D120F031F497
:1044F0009F3F11F41EF433C10EF4E095E7FB29C190
:10450000E92F4FD180F3BA17620773078407950725
:1045100018F071F49EF567C10EF4E0950B2EBA2FDA
:10452000A02D0B01B90190010C01CA01A0011124B9
:10453000FF27591B99F0593F50F4503E68F11A1665
:10454000F040A22F232F342F4427585FF3CF4695F6
:1045500037952795A795F0405395C9F77EF41F1618
:10456000BA0B620B730B840BBAF09150A1F0FF0FE2
:10457000BB1F661F771F881FC2F70EC0BA0F621FCE
:10458000731F841F48F4879577956795B795F795BE
:104590009E3F08F0B3CF9395880F08F09927EE0F50
:1045A0009795879508950CD0EBC0E3D040F0DAD012
:1045B00030F021F45F3F19F0CCC0511115C1CFC0CC
:1045C000F0D098F39923C9F35523B1F3951B550BFC
:1045D000BB27AA2762177307840738F09F5F5F4FD6
:1045E000220F331F441FAA1FA9F333D00E2E3AF017
:1045F000E0E830D091505040E695001CCAF729D031
:10460000FE2F27D0660F771F881FBB1F261737077F
:104610004807AB07B0E809F0BB0B802DBF01FF27AF
:1046200093585F4F2AF09E3F510568F092C0DCC05E
:104630005F3FECF3983EDCF3869577956795B795E9
:10464000F7959F5FC9F7880F911D9695879597F904
:104650000895E1E0660F771F881FBB1F621773077D
:104660008407BA0720F0621B730B840BBA0BEE1F92
:1046700088F7E095089504D06894B111B5C0089505
:1046800098D088F09F5790F0B92F9927B751A0F094
:10469000D1F0660F771F881F991F1AF0BA95C9F7D6
:1046A00012C0B13081F09FD0B1E008959CC0672F57
:1046B000782F8827B85F39F0B93FCCF38695779586
:1046C0006795B395D9F73EF490958095709561956F
:1046D0007F4F8F4F9F4F0895E89409C097FB3EF49A
:1046E00090958095709561957F4F8F4F9F4F99233F
:1046F000A9F0F92F96E9BB279395F69587957795BD
:104700006795B795F111F8CFFAF4BB0F11F460FF7C
:104710001BC06F5F7F4F8F4F9F4F16C0882311F0D4
:1047200096E911C0772321F09EE8872F762F05C0E8
:10473000662371F096E8862F70E060E02AF09A9583
:10474000660F771F881FDAF7880F9695879597F978
:10475000089597F99F6780E870E060E008959FEF03
:1047600080EC089500240A94161617061806090608
:10477000089500240A9412161306140605060895D7
:10478000092E0394000C11F4882352F0BB0F40F45F
:10479000BF2B11F460FF04C06F5F7F4F8F4F9F4F9F
:1047A000089557FD9058440F551F59F05F3F71F021
:1047B0004795880F97FB991F61F09F3F79F0879588
:1047C0000895121613061406551FF2CF4695F1DF11
:1047D00008C0161617061806991FF1CF86957105A1
:1047E000610508940895E894BB2766277727CB01D5
:1047F00097F908950BD0C4CFB5DF28F0BADF18F0D1
:10480000952309F0A6CFABCF1124EECFCADFA0F3DA
:10481000959FD1F3950F50E0551F629FF001729F55
:10482000BB27F00DB11D639FAA27F00DB11DAA1F74
:10483000649F6627B00DA11D661F829F2227B00DC1
:10484000A11D621F739FB00DA11D621F839FA00D4C
:10485000611D221F749F3327A00D611D231F849F9C
:10486000600D211D822F762F6A2F11249F575040F3
:104870008AF0E1F088234AF0EE0FFF1FBB1F661F8E
:10488000771F881F91505040A9F79E3F510570F047
:1048900060CFAACF5F3FECF3983EDCF38695779527
:1048A0006795B795F795E7959F5FC1F7FE2B880F42
:1048B000911D9695879597F90895A1E21A2EAA1B46
:1048C000BB1BFD010DC0AA1FBB1FEE1FFF1FA217C0
:1048D000B307E407F50720F0A21BB30BE40BF50BBD
:1048E000661F771F881F991F1A9469F76095709546
:1048F000809590959B01AC01BD01CF010895EE0F0D
:10490000FF1F881F8BBF0790F691E02D19940F931E
:104910001F93CF93DF93869F8001879F100D969FF3
:10492000100D1124C8010DD0EC01009721F0A80151
:1049300060E070E034D1CE01DF91CF911F910F91F3
:1049400008950F931F93CF93DF938230910510F456
:1049500082E090E0E091491AF0914A1A20E030E0BC
:10496000A0E0B0E0309719F14081518102811381BC
:1049700048175907C8F08417950769F4109731F064
:1049800012960C93129713961C9327C00093491A02
:1049900010934A1A22C02115310519F04217530706
:1049A00018F49A01BD01EF01DF01F801DBCF2115F9
:1049B0003105F9F0281B390B2430310580F48A8148
:1049C0009B816115710521F0FB019383828304C0F3
:1049D00090934A1A8093491AFE01329644C0FE0110
:1049E000E20FF31F81939193225031093983288379
:1049F0003AC02091471A3091481A232B41F4209154
:104A00000202309103023093481A2093471A2091F2
:104A10000002309101022115310541F42DB73EB756
:104A20004091040250910502241B350BE091471A76
:104A3000F091481AE217F307A0F42E1B3F0B28173A
:104A4000390778F0AC014E5F5F4F2417350748F007
:104A50004E0F5F1F5093481A4093471A81939193CA
:104A600002C0E0E0F0E0CF01DF91CF911F910F9104
:104A70000895CF93DF93009709F481C0FC0132972A
:104A800013821282A091491AB0914A1A109781F4A8
:104A900020813181820F931F2091471A3091481A4B
:104AA0002817390751F5F093481AE093471A67C061
:104AB000ED0120E030E0CE17DF0740F44A815B8152
:104AC0009E0141155105F1F0EA01F5CFD383C28370
:104AD00040815181840F951FC817D90759F48881E7
:104AE0009981840F951F0296918380838A819B818F
:104AF000938382832115310529F4F0934A1AE093B8
:104B0000491A3DC0E901FB83EA8349915991C40FD9
:104B1000D51FEC17FD0761F480819181840F951FEB
:104B20000296E90199838883828193819B838A839A
:104B3000E0E0F0E012968D919C911397009719F0A8
:104B4000FD01DC01F7CF8D919C9111979D012E5FA6
:104B50003F4F820F931F2091471A3091481A281710
:104B6000390769F4309729F410924A1A1092491AB9
:104B700002C013821282B093481AA093471ADF91A1
:104B8000CF91089581E090E0F89458C3FB01DC01D7
:104B900002C001900D9241505040D8F70895DC01B9
:104BA00001C06D9341505040E0F70895FB01DC01D6
:104BB0000D900020E9F7119701900D920020E1F788
:104BC0000895FB01DC0101900D920020E1F70895AA
:104BD000FB01DC014150504088F08D9181341CF084
:104BE0008B350CF4805E619161341CF06B350CF4F4
:104BF000605E861B611171F3990B0895881BFCCFD1
:104C0000CF93DF93CDB7DEB7AE014A5F5F4FFA01B6
:104C100061917191AF0180914D1A90914E1A61D0BE
:104C2000DF91CF9108950F931F93CF93DF93E0917E
:104C30004D1AF0914E1A238121FF1BC08C01D0E048
:104C4000C0E0F80181918F0160914D1A70914E1A68
:104C5000DB011896ED91FC911997882331F0199595
:104C6000892B79F3DFEFCFEFECCF8AE01995892B11
:104C700019F08FEF9FEF02C08D2F9C2FDF91CF9106
:104C80001F910F9108950F931F93CF93DF93CDB78B
:104C9000DEB72E970FB6F894DEBF0FBECDBF0E89DC
:104CA0001F8986E08C831A8309838FEF9FE79E8399
:104CB0008D83AE01465E5F4F688D798DCE01019682
:104CC00010D0EF81F885E00FF11F10822E960FB6FD
:104CD000F894DEBF0FBECDBFDF91CF911F910F9132
:104CE00008952F923F924F925F926F927F928F9290
:104CF0009F92AF92BF92CF92DF92EF92FF920F936B
:104D00001F93CF93DF93CDB7DEB72B970FB6F894F1
:104D1000DEBF0FBECDBF6C017B018A01FC01178293
:104D20001682838181FFBFC1CE0101963C01F6014D
:104D30009381F70193FD859193FF81917F018823F2
:104D400009F4ADC1853239F493FD859193FF8191CA
:104D50007F01853221F4B60190E0D6D1E8CF912CC5
:104D6000212C312CFFE1F315D8F08B3279F038F497
:104D7000803279F08332A1F4232D20611DC08D3261
:104D800061F0803369F4232D216016C0832D826089
:104D9000382EE32DE4603E2E2AC0F32DF8601DC0AE
:104DA00037FC2DC020ED280F2A3040F08E32B9F4A8
:104DB00036FC75C1232D2064322E19C036FE06C084
:104DC0008AE0989E200D1124922E11C0EAE02E9EBA
:104DD000200D1124222EF32DF0623F2E08C08C36B8
:104DE00021F4832D8068382E02C0883641F4F70103
:104DF00093FD859193FF81917F018111B3CF982F0E
:104E00009F7D9554933028F40C5F1F4F9FE3998347
:104E10000DC0833631F0833771F0833509F055C00A
:104E200020C0F801808189830E5F1F4F88248394FE
:104E3000912C530112C02801F2E04F0E511CF801D1
:104E4000A080B18036FE03C0692D70E002C06FEF14
:104E50007FEFC5014ED14C018201F32DFF773F2E2C
:104E600015C0280122E0420E511CF801A080B1803B
:104E700036FE03C0692D70E002C06FEF7FEFC50101
:104E80002DD14C01F32DF0683F2E820133FC19C067
:104E9000822D90E088169906A0F4B60180E290E099
:104EA00033D12A94F5CFF50137FC859137FE8191F6
:104EB0005F01B60190E028D121102A9421E0821AE6
:104EC00091088114910479F7E1C0843611F0893694
:104ED00039F5F80137FE07C06081718182819381C5
:104EE0000C5F1F4F08C060817181072E000C880B7A
:104EF000990B0E5F1F4FF32DFF763F2E97FF09C0D2
:104F000090958095709561957F4F8F4F9F4FF0687A
:104F10003F2E2AE030E0A30133D1882E861844C00A
:104F2000853731F4232D2F7EB22E2AE030E025C0C4
:104F3000932D997FB92E8F36C1F018F4883579F00A
:104F4000AEC0803719F0883721F0A9C0E92FE061A1
:104F5000BE2EB4FE0DC0FB2DF460BF2E09C034FE82
:104F60000AC0292F2660B22E06C028E030E005C016
:104F700020E130E002C020E132E0F801B7FE07C0D6
:104F800060817181828193810C5F1F4F06C06081B7
:104F9000718180E090E00E5F1F4FA301F1D0882E59
:104FA0008618FB2DFF773F2E36FE0DC0232D2E7F5A
:104FB000A22E891458F434FE0BC032FC09C0832D94
:104FC0008E7EA82E05C0B82CA32C03C0B82C01C01F
:104FD000B92CA4FE0FC0FE01E80DF11D80818033C5
:104FE00021F49A2D997EA92E09C0A2FE06C0B39481
:104FF000B39404C08A2D867809F0B394A3FC10C042
:10500000A0FE06C0B21480F4280C922C9B180DC090
:10501000B21458F4B60180E290E076D0B394F8CFA1
:10502000B21418F42B1802C0982C212CA4FE0FC027
:10503000B60180E390E068D0A2FE16C0A1FC03C0D8
:1050400088E790E002C088E590E0B6010CC08A2DA8
:10505000867851F0A1FE02C08BE201C080E2A7FC7D
:105060008DE2B60190E050D0891430F4B60180E3AF
:1050700090E04AD09A94F8CF8A94F301E80DF11D9C
:105080008081B60190E040D08110F6CF222009F453
:105090004ECEB60180E290E037D02A94F7CFF601E9
:1050A0008681978102C08FEF9FEF2B960FB6F89401
:1050B000DEBF0FBECDBFDF91CF911F910F91FF904B
:1050C000EF90DF90CF90BF90AF909F908F907F90A8
:1050D0006F905F904F903F902F900895FC01059046
:1050E000615070400110D8F7809590958E0F9F1FEA
:1050F0000895FC016150704001900110D8F780952F
:1051000090958E0F9F1F08950F931F93CF93DF935A
:10511000FB01238121FD03C08FEF9FEF2CC022FFF5
:1051200016C046815781248135814217530744F4C4
:10513000A081B1819D012F5F3F4F318320838C93EC
:10514000268137812F5F3F4F3783268314C08B0121
:10515000EC01FB010084F185E02D1995892BE1F626
:10516000D80116968D919C911797019617969C934E
:105170008E931697CE01DF91CF911F910F910895D5
:10518000FA01AA27283051F1203181F1E8946F9378
:105190006E7F6E5F7F4F8F4F9F4FAF4FB1E03ED01E
:1051A000B4E03CD0670F781F891F9A1FA11D680FBC
:1051B000791F8A1F911DA11D6A0F711D811D911DEF
:1051C000A11D20D009F468943F912AE0269F112464
:1051D0003019305D3193DEF6CF010895462F4770C8
:1051E000405D4193B3E00FD0C9F7F6CF462F4F7023
:1051F000405D4A3318F0495D31FD4052419302D081
:10520000A9F7EACFB4E0A695979587957795679526
:10521000BA95C9F700976105710508959B01AC0126
:105220000A2E06945795479537952795BA95C9F74D
:10523000620F731F841F951FA01D0895F894FFCF60
:105240000000511A200000400040C600CE00D600E9
:105250003601000000030000000082206D200000E5
:10526000F8A027BE33E034C1332042C43360E5AE3A
:1052700033A0F2B133E0FFB433200DB833601ABB72
:1052800033FF0186000000000079FF0179A00000D3
:105290000000E6FF0179000000000086FF018700A2
:1052A0000000000078FF0188000000000000746525
:1052B0006D7065726174757265203D202564200AE9
:1052C0000068756D6964697479203D202564200A41
:1052D0000074656D706572617475726548756D698D
:1052E000646974795F7461736B206661696C65646D
:1052F00020746F206765742074656D7065726174C9
:105300007572650066696C6C5061796C6F6164518F
:10531000756575655F7461736B206661696C656442
:1053200020746F206765742074656D706572617498
:1053300075726500636F32203D202564200A00638A
:105340006F325F7461736B206661696C6564207491
:105350006F2067657420636F3256616C7565004419
:105360006174612073656E7420746F204C6F726974
:105370006F7421006C6F726177616E53656E645F4C
:105380007461736B206661696C656420746F20734F
:10539000656E6420646174610067657454656D7046
:1053A000657261747572655F5461736B5F7461736C
:1053B0006B4372656174650A00676574436F325FA1
:1053C0005461736B5F7461736B4372656174650ADA
:1053D0000066696C6C5061796C6F61645F746173B5
:1053E0006B4372656174650A00616C6C5F54617334
:1053F0006B735F7461736B4372656174650A006CF3
:105400006F726177616E53656E645F5461736B5F39
:105410007461736B4372656174650A00536F6D65E7
:105420007468696E672057726F6E67004641435417
:105430004F5259205245534554204552524F520025
:105440006C6F72615F436F6E666967757265206528
:1054500072726F72006C6F72615F647269766572EE
:105460005F6765745F726E323438335F6877657575
:1054700069206572726F7200383339306431356378
:105480006162643262616162343436386533376434
:1054900038386335346566610062613462313430B6
:1054A000663536326263373737006C6F72615F641E
:1054B00072697665725F7365745F6F7461615F694D
:1054C00064656E74697479206572726F72004C4FF6
:1054D000524157414E2064657669636520697320A7
:1054E0006E6F7420636F6E6E6563746564004C4FFD
:1054F000524157414E206465766963652069732087
:10550000636F6E6E65637465642000546865207512
:10551000706C696E6B206D6573736167652069736C
:105520002073656E7420616E6420746865726520F6
:105530006973206E6F20646F776E6C696E6B206D7F
:10554000657373616765207265636569766564007C
:105550005468652075706C696E6B206D657373613E
:1055600067652069732073656E7420616E642061C5
:1055700020646F776E6C696E6B206D657373616705
:105580006520697320726563656976656400507291
:105590006F6772616D20737461727400496E697413
:1055A00069616C697A6174696F6E206F66206875D5
:1055B0006D2074656D702073656E736F7273004536
:1055C00052524F522057616B657570004552524FD1
:1055D00052206D656173737572650049444C4500D6
:1055E000546D72205376630048414C206C656420F2
:1055F0007461736B20737461727465642121004857
:10560000414C5F4C45440073797320726573657437
:10561000006D6163207061757365006D6163207258
:105620006573756D650073797320666163746F725D
:105630007952455345540073797320676574206827
:1056400077657569006D6163206765742067776EA3
:1056500062006D616320736574206C696E6B6368B2
:105660006B202564006D616320736574206465762A
:10567000657569006D616320736574206170706584
:105680007569006D616320736574206170706B656E
:1056900079006D616320736574206E776B736B6541
:1056A00079006D61632073657420617070736B6540
:1056B00079006D616320736574206465766164644C
:1056C00072006D61632073617665006D6163206AAD
:1056D0006F696E00756E636E66006D61632074782D
:1056E000202573202564202573006F6666006D6198
:1056F000632073657420616472006D616320676567
:105700007420616472006D6163207365742064723B
:10571000202564006D616320676574206472006DEC
:1057200061632073657420727864656C61793120DF
:105730002564003320383639353235303030006D4D
:1057400061632073657420727832006D6163207329
:10575000657420636820646379636C652025642028
:10576000373939006D616320736574206368206682
:1057700072657120256420256C75006D616320734E
:10578000657420636820647272616E6765202564A9
:1057900020302037006D61632073657420636820BA
:1057A000737461747573202564206F6E006D61637E
:1057B00020736574207077726964782031006D61A0
:1057C000632073657420726574782037006F74618C
:1057D0006100616270004B4559535F4E4F545F4901
:1057E0004E4954004E4F5F465245455F4348005373
:1057F000494C454E540042555359004D41435F506A
:1058000041555345440044454E49454400414343B6
:10581000455054454400494E56414C49445F50411F
:1058200052414D004E4F545F4A4F494E4544004946
:105830004E56414C49445F444154415F4C454E00F3
:105840004652414D455F434F554E5445525F455278
:10585000525F52454A4F494E5F4E454544454400CC
:105860004D41435F54585F4F4B004D41435F525889
:105870005F4F4B004D41435F4552524F5200554ED2
:105880004B4E4F574E008D07920700310801FA0327
:1058900002960703A40704AF0705B60706BB070770
:1058A000C60708CD0709D6070AE4070BEF070C0067
:0E58B000080D20080E2A080F3408103E0800CC
:00000001FF
