:10000000C2C00000E0C00000DEC00000DCC0000094
:10001000DAC00000D8C00000D6C00000D4C0000084
:10002000D2C00000D0C00000CEC00000CCC0000094
:10003000C2C20000C8C00000C6C00000C4C00000AA
:10004000C2C00000C0C00000BEC00000BCC00000B4
:10005000BAC00000B8C00000B6C00000B4C00000C4
:10006000B2C00000FEC600004EC70000ACC00000D9
:10007000AAC00000A8C00000A6C00000A4C00000E4
:10008000A2C00000A0C000009EC000009CC00000F4
:100090007EC70000CEC7000096C000000C94D609B1
:1000A00092C0000090C000008EC000008CC0000014
:1000B0008AC0000088C0000086C0000084C0000024
:1000C00082C0000080C000007EC00000F6C70000B3
:1000D0000C94AF0878C000000C94F3080C94450908
:1000E00072C00000F809680A680A680A680A680AA3
:1000F000680A680AF809680A680A680A680A680AE1
:10010000680A680AFA09680A680A680A680A680ACE
:10011000680A680A680A680A680A680A680A680A4F
:10012000680A680AFA09680A680A680A680A680AAE
:10013000680A680A680A680A680A680A680A680A2F
:10014000680A680A640A680A680A680A680A680A23
:10015000680A680A2F0A680A680A680A680A680A48
:10016000680A680A680A680A680A680A680A680AFF
:10017000680A680A230A680A680A680A680A680A34
:10018000680A680A470A11241FBECFEFD1E2DEBF1A
:10019000CDBF00E00CBF13E0A0E0B2E0E0E0F2E28F
:1001A00000E00BBF02C007900D92A630B107D9F74F
:1001B00023E0A6E0B3E001C01D92A138B207E1F749
:1001C0004ED00C94FE101CCF909376038093750351
:1001D000089564EE70E083E001C508952DD5809305
:1001E0007203882359F080E492E09F938F930E94DA
:1001F0000E0E8EE390E08AD30F900F9008958091B9
:10020000750390917603089557D4811104C080E559
:1002100092E00C94210E08957DC4089540E050E0D2
:100220006CEF73E085E190E0EFDFF6DF8C3F934009
:1002300019F480E090E008958FE892E0089540E09E
:1002400050E060E971E088E190E0DEDFE5DF4897AB
:1002500019F480E090E0089585EA92E00895CF9344
:10026000DF93DCDF20910603309107032F5F3F4FC0
:100270003093070320930603009771F5E0DF209188
:100280000603309107032F5F3F4F309307032093FE
:100290000603009719F59DDFA1DFB1DF86399105CF
:1002A000F9F42AC0CE010E94210E809107038F939A
:1002B000809106038F9386EE92E09F938F930E9426
:1002C0000E0E81E090E00F900F900F900F90CD2BCD
:1002D00019F580E090E020C0EC01E4CFEC01E2CF22
:1002E00080910603909107030196909307038093F2
:1002F0000603CCEBD2E0D6CF8091060390910703A2
:100300000196909307038093060385EF92E00E9485
:10031000210EC0E0D0E0C9CFDF91CF910895E8E091
:10032000F1E09081907F908390818F70982B9083E3
:100330000895E8E0F1E08081807F80830895CF9385
:10034000DF939C01FB01DC011196CD91DC911297AA
:10035000D383C2838C819D81958384838C819D818D
:10036000DC0113967C936E9312977D836C833187A7
:100370002087F90180818F5F8083DF91CF9108957D
:10038000CF93DF93EB01488159814F3F2FEF520705
:1003900021F4FC01A781B0850DC0DC01139601C0DA
:1003A000DF011296ED91FC91139720813181421764
:1003B0005307B0F71296ED91FC911397FB83EA83F4
:1003C000D583C483BD83AC831396DC93CE931297FD
:1003D00099878887FC0120812F5F2083DF91CF914F
:1003E0000895CF93DF93FC01A085B185C281D381AD
:1003F000848195819D838C83C481D5818281938101
:100400009B838A8311968D919C911297E817F90727
:1004100031F48481958112969C938E931197118665
:1004200010868C9181508C938C91DF91CF9108959F
:100430000F920FB6F8940F920BB60F920CB60F9264
:100440001F9211242F923F924F925F926F927F9250
:100450008F929F92AF92BF92CF92DF92EF92FF92D4
:100460000F931F932F933F934F935F936F937F93BC
:100470008F939F93AF93BF93CF93DF93EF93FF93AC
:10048000A0914C03B0914D030DB60D920EB60D9296
:100490004DD2A0914C03B0914D03CD91CDBFDD91D4
:1004A000DEBFFF91EF91DF91CF91BF91AF919F910F
:1004B0008F917F916F915F914F913F912F911F91FC
:1004C0000F91FF90EF90DF90CF90BF90AF909F90F3
:1004D0008F907F906F905F904F903F902F901F90E4
:1004E0000F900CBE0F900BBE0F900FBE0F90089593
:1004F0000F920FB6F8940F920BB60F920CB60F92A4
:100500001F9211242F923F924F925F926F927F928F
:100510008F929F92AF92BF92CF92DF92EF92FF9213
:100520000F931F932F933F934F935F936F937F93FB
:100530008F939F93AF93BF93CF93DF93EF93FF93EB
:10054000A0914C03B0914D030DB60D920EB60D92D5
:1005500013BEACD08111EAD1A0914C03B0914D03F0
:10056000CD91CDBFDD91DEBFFF91EF91DF91CF91B6
:10057000BF91AF919F918F917F916F915F914F91BB
:100580003F912F911F910F91FF90EF90DF90CF90AF
:10059000BF90AF909F908F907F906F905F904F90A3
:1005A0003F902F901F900F900CBE0F900BBE0F909E
:1005B0000FBE0F9008959CDF1895E0912603F091EF
:1005C00027038081811107C08FEF9FEF90930A036B
:1005D000809309030895E0912603F0912703058095
:1005E000F681E02D0680F781E02D82819381909342
:1005F0000A03809309030895FF920F931F93CF93EB
:10060000DF93EC01F62E00910F03109110038091FF
:100610004C0390914D030296E4DECF3F8FEFD80755
:1006200061F4FF2051F060914C0370914D036E5FB7
:100630007F4F82E193E083DE2DC0C00FD11FE09198
:100640004C03F0914D03D383C283C017D10760F4EC
:1006500060914C0370914D03809124039091250388
:100660006E5F7F4F8DDE16C060914C0370914D031D
:1006700080912603909127036E5F7F4F81DE8091EA
:10068000090390910A03C817D90720F4D0930A03ED
:10069000C0930903DF91CF911F910F91FF900895AF
:1006A000809108038F5F809308030895CF92DF92B3
:1006B000EF92FF920F931F93CF93DF9380910803E4
:1006C000811195C0E0900F03F09010038FEFE81AAE
:1006D000F80AF0921003E0920F03E114F104B1F470
:1006E00080912603909127032091240330912503C4
:1006F00030932703209326039093250380932403AC
:1007000080910B038F5F80930B0357DF8091090368
:1007100090910A03E816F90610F4D12C50C0D12CA0
:10072000CC24C394E0912603F091270380818111AA
:1007300007C08FEF9FEF90930A03809309033FC098
:10074000E0912603F09127030580F681E02DC68114
:10075000D7818A819B81E816F90628F490930A03D1
:10076000809309032CC08E010E5F1F4FC80139DE34
:100770008C899D89892B19F0CE010C9632DE8E89E9
:1007800090910E03981710F480930E0390E09C0153
:10079000220F331F220F331F220F331F820F931F8D
:1007A000B801885D9C4FCBDDE0914C03F0914D0387
:1007B0009E898689981708F4B5CFDC2CB3CFE091D9
:1007C0004C03F0914D03868990E0FC01EE0FFF1F72
:1007D000EE0FFF1FEE0FFF1F8E0F9F1FFC01E85D46
:1007E000FC4F8081823048F0DD24D39406C0809194
:1007F0000D038F5F80930D03D12C80910C03882310
:1008000011F0DD24D3948D2DDF91CF911F910F91A5
:10081000FF90EF90DF90CF900895DF92EF92FF92DC
:100820000F931F93CF93DF930FB6F8940F9280919D
:10083000080381508093080380910803811159C0F7
:1008400080911103811130C057C0D7011596ED91E9
:10085000FC911697C681D781CE010C96C2DD8E0120
:100860000E5F1F4FC801BDDD8E8990910E03981752
:1008700010F480930E0390E09C01220F331F220F8F
:10088000331F220F331F820F931FB801885D9C4FC7
:1008900056DDE0914C03F0914D039E8986899817AF
:1008A00068F0D0920C030AC0C0E0D0E00F2EFBE14C
:1008B000EF2EF3E0FF2EF02DDD24D394F70180819D
:1008C0008111C3CFCD2B09F078DEC0910D03CC236D
:1008D00049F0D1E0EBDE8111D0930C03C150D1F788
:1008E00010920D0380910C03882329F0A1DD81E093
:1008F00003C080E001C080E00F900FBEDF91CF9178
:100900001F910F91FF90EF90DF900895CF93DF93A9
:10091000EC01892B39F0C4DE60E0CE016DDE7DDFB5
:10092000811101C085DDDF91CF9108958091080389
:10093000882321F081E080930C03089510920C032A
:10094000E0914C03F0914D0385A1F3DCA0914C03A1
:10095000B0914D03E0914C03F0914D032D913C91EA
:100960008789908D8217930758F060914C0370919E
:100970004D0380914C0390914D03675E7F4F62D091
:1009800020910E03822F90E0FC01EE0FFF1FEE0F6F
:10099000FF1FEE0FFF1FE80FF91FE85DFC4F3081CE
:1009A000311111C02150822F90E0FC01EE0FFF1F8A
:1009B000EE0FFF1FEE0FFF1FE80FF91FE85DFC4F62
:1009C0003081332379F3AC01440F551F440F551F79
:1009D000440F551F480F591FDA01A85DBC4F1196EF
:1009E000ED91FC9112970280F381E02D1296FC9319
:1009F000EE931197455D5C4FE417F50729F44281AA
:100A00005381FD0152834183FC01EE0FFF1FEE0F66
:100A1000FF1FEE0FFF1F8E0F9F1FFC01E85DFC4FB5
:100A20000180F281E02D8681978190934D03809320
:100A30004C0320930E03E0914C03F0914D0385A1EC
:100A40006ECC0895279A2F9A2FEF87EA91E62150CE
:100A500080409040E1F700C000001F9AF5CF65305C
:100A6000F1F4FA0180818F7390E0982F882721811B
:100A7000822B90930902809308028281F0E48F9F79
:100A8000C0011124FA01238126952695822B90938B
:100A900007028093060281E080934E03089564303C
:100AA00051F080E090E490930702809306029093C7
:100AB00009028093080208950F931F930FE215E037
:100AC00020E034E244EF50E060E087E222D49093EB
:100AD000500380934F0321E0892B09F020E0822FFF
:100AE0001F910F910895609106027091070280E0B6
:100AF00090E033D620E030E045E253E4BCD620E07D
:100B000038EF4FE756E490D520E030E040E252E481
:100B100026C50895E8DF20E030E040E251E4ABD69E
:100B2000EBD5CB01089580915403860F8093540335
:100B300090915703913079F028F09230A9F09330DA
:100B400019F108956F3F09F048C01092540381E0F5
:100B5000809357030895663809F03FC010925303FD
:100B600082E0809357030895E091530381E08E0F54
:100B700080935303F0E0EF5AFC4F6083823069F5B5
:100B800083E08093570308959091530321E0290F48
:100B900020935303963009F581110EC0E1E5F3E08F
:100BA000808190E0982F88272181820F911D90935A
:100BB00059038093580304C01092590310925803AC
:100BC00010925703E0915503F0915603309729F0A6
:100BD0008091580390915903199508958F929F928F
:100BE000AF92CF92EF920F93CF93DF93EB010F2E43
:100BF000F3E98F2EF5E09F2EF02D6894AA24A4F837
:100C00006894CC24C4F8E12C00E023E040E855E2ED
:100C100060E070E040D090935B0380935A03D093E0
:100C20005603C0935503DF91CF910F91EF90CF9072
:100C3000AF909F908F900895CF93DF93CDB7DEB79D
:100C400029970FB6F894DEBF0FBECDBF89E0E3E170
:100C5000F2E09E012F5F3F4FD90101900D928A95DE
:100C6000E1F7109259031092580380915A03909122
:100C70005B03009731F0422F532F69E0A2D080E050
:100C800001C082E029960FB6F894DEBF0FBECDBF3B
:100C9000DF91CF9108952F923F924F925F926F9282
:100CA0007F928F929F92AF92CF92EF92FF920F938B
:100CB0001F93CF93DF93CDB7DEB7F82E2A013B0108
:100CC00088E090E07FD68C018F2D90E0880F991FEF
:100CD000FC01E45AFC4F11830083FC01E65FFD4FE9
:100CE00080819181D8018D939C936C2D70E084E07C
:100CF00090E04ED61C0161E070E086E090E048D6BE
:100D00007C014C2DB1010FD4F801F582E4826A2DEB
:100D100070E084E090E03CD61C0161E070E086E089
:100D200090E036D67C014A2DB101FDD3D80113964F
:100D3000FC92EE92129717969C928E921697FFB69F
:100D4000F894ED91FC9111973697808182608083B1
:100D50008D909C90C301B20100D520E030E040E0CE
:100D600051E489D59B01AC0160E074E284E79BE427
:100D70005BD420E030E040E85FE3F1D3C2D4F4017B
:100D800032976083D801ED91FC911197359788E9EE
:100D90008083ED91FC91349786E08083FFBEC8018B
:100DA000DF91CF911F910F91FF90EF90CF90AF9077
:100DB0009F908F907F906F905F904F903F902F907B
:100DC0000895EF92FF920F931F93CF93DF937C01CF
:100DD000DC011296ED91FC91139793818281981B0F
:100DE000858198238481891B861798F1662341F1B8
:100DF000842F952FDC016150462F50E04F5F5F4FED
:100E0000480F591FE701EA81FB8193818281258187
:100E1000981B92238481981779F08C919381269561
:100E20002923608171818B01020F111DE8018883E4
:100E30009F5F8581982393831196A417B50711F7B7
:100E4000D701ED91FC91359780818062808380E0AD
:100E500001C082E0DF91CF911F910F91FF90EF9041
:100E600008951F920F920FB60F9211240BB60F9296
:100E70002F933F934F935F936F937F938F939F93A2
:100E8000AF93BF93CF93DF93EF93FF93A0915C0356
:100E9000B0915D03109711F16091C6001496ED9129
:100EA000FC911597938182812581981B92238481DF
:100EB000981761F0838126952823C081D181C20FC4
:100EC000D11D68838F5F9581892383831696ED9169
:100ED000FC911797309711F0CD011995FF91EF9183
:100EE000DF91CF91BF91AF919F918F917F916F9142
:100EF0005F914F913F912F910F900BBE0F900FBEBE
:100F00000F901F9018951F920F920FB60F921124F9
:100F10000BB60F922F938F939F93AF93BF93EF9343
:100F2000FF93E0915C03F0915D033097B9F002808C
:100F3000F381E02D938182819817B1F092818581B0
:100F4000282F26952923A081B181A20FB11D2C91B4
:100F50009F5F892382832093C6000BC0E1ECF0E001
:100F600080818F7D808305C0E1ECF0E080818F7D02
:100F70008083FF91EF91BF91AF919F918F912F91BE
:100F80000F900BBE0F900FBE0F901F9018951F92E1
:100F90000F920FB60F9211240BB60F922F933F931F
:100FA0004F935F936F937F938F939F93AF93BF9371
:100FB000CF93DF93EF93FF93A0915E03B0915F0314
:100FC000109711F16091CE001496ED91FC91159758
:100FD000938182812581981B92238481981761F0E7
:100FE000838126952823C081D181C20FD11D6883BA
:100FF0008F5F9581892383831696ED91FC911797D6
:10100000309711F0CD011995FF91EF91DF91CF91BC
:10101000BF91AF919F918F917F916F915F914F9110
:101020003F912F910F900BBE0F900FBE0F901F900E
:1010300018951F920F920FB60F9211240BB60F92B4
:101040002F938F939F93AF93BF93EF93FF93E09171
:101050005E03F0915F033097B9F00280F381E02DD9
:10106000938182819817B1F092818581282F2695EE
:101070002923A081B181A20FB11D2C919F5F8923EB
:1010800082832093CE000BC0E9ECF0E080818F7D5D
:10109000808305C0E9ECF0E080818F7D8083FF9143
:1010A000EF91BF91AF919F918F912F910F900BBEB8
:1010B0000F900FBE0F901F9018951F920F920FB6B2
:1010C0000F9211240BB60F922F933F934F935F9380
:1010D0006F937F938F939F93AF93BF93CF93DF9340
:1010E000EF93FF93A0916003B0916103109711F10A
:1010F0006091D6001496ED91FC91159793818281B1
:101100002581981B92238481981761F0838126950D
:101110002823C081D181C20FD11D68838F5F958143
:10112000892383831696ED91FC911797309711F0E0
:10113000CD011995FF91EF91DF91CF91BF91AF91C3
:101140009F918F917F916F915F914F913F912F91DF
:101150000F900BBE0F900FBE0F901F9018951F920F
:101160000F920FB60F9211240BB60F922F938F93FD
:101170009F93AF93BF93EF93FF93E0916003F09140
:1011800061033097B9F00280F381E02D9381828171
:101190009817B1F092818581282F26952923A08167
:1011A000B181A20FB11D2C919F5F8923828320936F
:1011B000D6000BC0E1EDF0E080818F7D808305C01B
:1011C000E1EDF0E080818F7D8083FF91EF91BF9111
:1011D000AF919F918F912F910F900BBE0F900FBEEB
:1011E0000F901F9018951F920F920FB60F92112417
:1011F0000BB60F922F933F934F935F936F937F9311
:101200008F939F93AF93BF93CF93DF93EF93FF930E
:10121000A0916203B0916303109711F160913601C0
:101220001496ED91FC911597938182812581981BED
:1012300092238481981761F0838126952823C081A9
:10124000D181C20FD11D68838F5F958189238383EC
:101250001696ED91FC911797309711F0CD011995E5
:10126000FF91EF91DF91CF91BF91AF919F918F91BE
:101270007F916F915F914F913F912F910F900BBE96
:101280000F900FBE0F901F9018951F920F920FB6E0
:101290000F9211240BB60F922F938F939F93AF93BE
:1012A000BF93EF93FF93E0916203F0916303309754
:1012B000B9F00280F381E02D938182819817B1F01B
:1012C00092818581282F26952923A081B181A20FA3
:1012D000B11D2C919F5F89238283209336010BC01F
:1012E000E1E3F1E080818F7D808305C0E1E3F1E0FF
:1012F00080818F7D8083FF91EF91BF91AF919F910E
:101300008F912F910F900BBE0F900FBE0F901F90DB
:101310001895AF92BF92CF92DF92EF92FF920F9308
:101320001F93CF93DF93A82EB62E69017A0184E034
:1013300090E048D3EC01892B61F1A88281E0B812DA
:1013400012C0C701B60120EA36E841E050E0F6D20B
:10135000DA01C9014097A109B109B695A7959795FA
:101360008795898311C0C701B60120E83AE146E0BC
:1013700050E0E4D2DA01C9014097A109B109B6955C
:10138000A7959795879589831B830A838C2F9D2F1B
:1013900002C080E090E0DF91CF911F910F91FF900C
:1013A000EF90DF90CF90BF90AF9008951F920F9273
:1013B0000FB60F9211240BB60F922F933F934F93BA
:1013C0005F936F937F938F939F93AF93BF93EF93AD
:1013D000FF93E091B9008E2F90E0FC013897E13542
:1013E000F10508F075C08827EE58FF4F8F4FC8C22F
:1013F00010926403E091640380916703E81770F42E
:1014000081E08E0F80936403F0E0E859FC4F808107
:101410008093BB0085E88093BC0072C084E9809310
:10142000BC008091650390916603DC011296ED91FA
:10143000FC911397309709F463C020E040E050E03E
:1014400064E019955DC0E091640381E08E0F8093A4
:1014500064038091BB00F0E0E859FC4F80838091E9
:10146000B900803411F4109264032091640330E0D9
:101470008091670390E001972817390724F485ECE1
:101480008093BC003DC085E88093BC0039C080914A
:10149000BB00E0916403F0E0E859FC4F808384E9ED
:1014A0008093BC008091650390916603DC011296E5
:1014B000ED91FC911397309719F12091670348E65D
:1014C00053E065E019951CC085EA8093BC0018C004
:1014D0008091B9008093120284E08093BC008091D7
:1014E000650390916603DC011296ED91FC911397D0
:1014F000309731F020E040E050E060911202199501
:10150000FF91EF91BF91AF919F918F917F916F91DB
:101510005F914F913F912F910F900BBE0F900FBE97
:101520000F901F901895FC01411101C06CD3842FBE
:1015300090E09C012150310982239323892B09F0EB
:1015400062D3413808F05FD3128213824483440F80
:10155000415045837183608380E090E00895505846
:10156000BB27AA270ED04DC13ED130F043D120F089
:1015700031F49F3F11F41EF433C10EF4E095E7FB04
:1015800029C1E92F4FD180F3BA1762077307840787
:10159000950718F071F49EF567C10EF4E0950B2ED7
:1015A000BA2FA02D0B01B90190010C01CA01A001B5
:1015B0001124FF27591B99F0593F50F4503E68F110
:1015C0001A16F040A22F232F342F4427585FF3CF51
:1015D000469537952795A795F0405395C9F77EF422
:1015E0001F16BA0B620B730B840BBAF09150A1F06B
:1015F000FF0FBB1F661F771F881FC2F70EC0BA0FF1
:10160000621F731F841F48F4879577956795B79578
:10161000F7959E3F08F0B3CF9395880F08F0992770
:10162000EE0F9795879508950CD0EBC0E3D040F06E
:10163000DAD030F021F45F3F19F0CCC0511115C160
:10164000CFC0F0D098F39923C9F35523B1F3951B7C
:10165000550BBB27AA2762177307840738F09F5FD3
:101660005F4F220F331F441FAA1FA9F333D00E2E42
:101670003AF0E0E830D091505040E695001CCAF7AF
:1016800029D0FE2F27D0660F771F881FBB1F261774
:1016900037074807AB07B0E809F0BB0B802DBF0147
:1016A000FF2793585F4F2AF09E3F510568F092C084
:1016B000DCC05F3FECF3983EDCF386957795679549
:1016C000B795F7959F5FC9F7880F911D96958795F8
:1016D00097F90895E1E0660F771F881FBB1F621717
:1016E00073078407BA0720F0621B730B840BBA0BD5
:1016F000EE1F88F7E095089504D06894B111B5C045
:10170000089598D088F09F5790F0B92F9927B75136
:10171000A0F0D1F0660F771F881F991F1AF0BA95B5
:10172000C9F712C0B13081F09FD0B1E008959CC0DC
:10173000672F782F8827B85F39F0B93FCCF38695AB
:1017400077956795B395D9F73EF490958095709508
:1017500061957F4F8F4F9F4F0895E89409C097FB85
:101760003EF490958095709561957F4F8F4F9F4F78
:101770009923A9F0F92F96E9BB279395F6958795BC
:1017800077956795B795F111F8CFFAF4BB0F11F47F
:1017900060FF1BC06F5F7F4F8F4F9F4F16C0882326
:1017A00011F096E911C0772321F09EE8872F762F5C
:1017B00005C0662371F096E8862F70E060E02AF09D
:1017C0009A95660F771F881FDAF7880F9695879589
:1017D00097F9089597F99F6780E870E060E00895B1
:1017E0009FEF80EC089500240A9416161706180639
:1017F0000906089500240A94121613061406050615
:101800000895092E0394000C11F4882352F0BB0FA5
:1018100040F4BF2B11F460FF04C06F5F7F4F8F4F08
:101820009F4F089557FD9058440F551F59F05F3F43
:1018300071F04795880F97FB991F61F09F3F79F0F2
:1018400087950895121613061406551FF2CF469574
:10185000F1DF08C0161617061806991FF1CF8695F6
:101860007105610508940895E894BB2766277727DA
:10187000CB0197F908950BD0C4CFB5DF28F0BADFBC
:1018800018F0952309F0A6CFABCF1124EECFCADF15
:10189000A0F3959FD1F3950F50E0551F629FF00183
:1018A000729FBB27F00DB11D639FAA27F00DB11DDC
:1018B000AA1F649F6627B00DA11D661F829F222765
:1018C000B00DA11D621F739FB00DA11D621F839FEC
:1018D000A00D611D221F749F3327A00D611D231FC2
:1018E000849F600D211D822F762F6A2F11249F5710
:1018F00050408AF0E1F088234AF0EE0FFF1FBB1F33
:10190000661F771F881F91505040A9F79E3F5105D1
:1019100070F060CFAACF5F3FECF3983EDCF3869582
:1019200077956795B795F795E7959F5FC1F7FE2B7C
:10193000880F911D9695879597F90895A1E21A2E23
:10194000AA1BBB1BFD010DC0AA1FBB1FEE1FFF1F63
:10195000A217B307E407F50720F0A21BB30BE40BB3
:10196000F50B661F771F881F991F1A9469F76095FA
:101970007095809590959B01AC01BD01CF010895B4
:10198000EE0FFF1F881F8BBF0790F691E02D199473
:101990000F931F93CF93DF93869F8001879F100D36
:1019A000969F100D1124C8010DD0EC01009721F075
:1019B000A80160E070E02BD1CE01DF91CF911F91A3
:1019C0000F9108950F931F93CF93DF93823091056A
:1019D00010F482E090E0E0917903F0917A0320E046
:1019E00030E0A0E0B0E0309719F1408151810281F0
:1019F000138148175907C8F08417950769F41097A1
:101A000031F012960C93129713961C9327C00093F3
:101A1000790310937A0322C02115310519F042177A
:101A2000530718F49A01BD01EF01DF01F801DBCF84
:101A300021153105F9F0281B390B2430310580F4CC
:101A40008A819B816115710521F0FB01938382835B
:101A500004C090937A0380937903FE01329644C0C8
:101A6000FE01E20FF31F81939193225031093983D4
:101A700028833AC02091770330917803232B41F4D7
:101A80002091020230910302309378032093770370
:101A900020910002309101022115310541F42DB74A
:101AA0003EB74091040250910502241B350BE09192
:101AB0007703F0917803E217F307A0F42E1B3F0B96
:101AC0002817390778F0AC014E5F5F4F24173507B0
:101AD00048F04E0F5F1F5093780340937703819334
:101AE000919302C0E0E0F0E0CF01DF91CF911F9130
:101AF0000F910895CF93DF93009709F481C0FC0103
:101B0000329713821282A0917903B0917A031097D1
:101B100081F420813181820F931F209177033091CE
:101B200078032817390751F5F0937803E09377038A
:101B300067C0ED0120E030E0CE17DF0740F44A81B6
:101B40005B819E0141155105F1F0EA01F5CFD38388
:101B5000C28340815181840F951FC817D90759F45A
:101B600088819981840F951F0296918380838A8151
:101B70009B81938382832115310529F4F0937A03A5
:101B8000E09379033DC0E901FB83EA8349915991D0
:101B9000C40FD51FEC17FD0761F480819181840F7C
:101BA000951F0296E90199838883828193819B83A3
:101BB0008A83E0E0F0E012968D919C911397009754
:101BC00019F0FD01DC01F7CF8D919C9111979D01DA
:101BD0002E5F3F4F820F931F209177033091780340
:101BE0002817390769F4309729F410927A03109274
:101BF000790302C013821282B0937803A093770313
:101C0000DF91CF91089581E090E0F894F7C2DC0174
:101C100001C06D9341505040E0F70895CF93DF939A
:101C2000CDB7DEB7AE014A5F5F4FFA0161917191A6
:101C3000AF0180917D0390917E0333D0DF91CF91EE
:101C400008950F931F93CF93DF93E0917D03F0915D
:101C50007E03238121FF1BC08C01D0E0C0E0F8018E
:101C600081918F0160917D0370917E03DB01189655
:101C7000ED91FC911997882331F01995892B79F30F
:101C8000DFEFCFEFECCF8AE01995892B19F08FEFBA
:101C90009FEF02C08D2F9C2FDF91CF911F910F914D
:101CA00008952F923F924F925F926F927F928F9200
:101CB0009F92AF92BF92CF92DF92EF92FF920F93DB
:101CC0001F93CF93DF93CDB7DEB72B970FB6F89462
:101CD000DEBF0FBECDBF6C017B018A01FC01178204
:101CE0001682838181FFBFC1CE0101963C01F601BE
:101CF0009381F70193FD859193FF81917F01882363
:101D000009F4ADC1853239F493FD859193FF81913A
:101D10007F01853221F4B60190E0D6D1E8CF912C35
:101D2000212C312CFFE1F315D8F08B3279F038F407
:101D3000803279F08332A1F4232D20611DC08D32D1
:101D400061F0803369F4232D216016C0832D8260F9
:101D5000382EE32DE4603E2E2AC0F32DF8601DC01E
:101D600037FC2DC020ED280F2A3040F08E32B9F418
:101D700036FC75C1232D2064322E19C036FE06C0F4
:101D80008AE0989E200D1124922E11C0EAE02E9E2A
:101D9000200D1124222EF32DF0623F2E08C08C3628
:101DA00021F4832D8068382E02C0883641F4F70173
:101DB00093FD859193FF81917F018111B3CF982F7E
:101DC0009F7D9554933028F40C5F1F4F9FE39983B8
:101DD0000DC0833631F0833771F0833509F055C07B
:101DE00020C0F801808189830E5F1F4F882483946F
:101DF000912C530112C02801F2E04F0E511CF80142
:101E0000A080B18036FE03C0692D70E002C06FEF84
:101E10007FEFC5014ED14C018201F32DFF773F2E9C
:101E200015C0280122E0420E511CF801A080B180AB
:101E300036FE03C0692D70E002C06FEF7FEFC50171
:101E40002DD14C01F32DF0683F2E820133FC19C0D7
:101E5000822D90E088169906A0F4B60180E290E009
:101E600033D12A94F5CFF50137FC859137FE819166
:101E70005F01B60190E028D121102A9421E0821A56
:101E800091088114910479F7E1C0843611F0893604
:101E900039F5F80137FE07C0608171818281938135
:101EA0000C5F1F4F08C060817181072E000C880BEA
:101EB000990B0E5F1F4FF32DFF763F2E97FF09C042
:101EC00090958095709561957F4F8F4F9F4FF068EB
:101ED0003F2E2AE030E0A30133D1882E861844C07B
:101EE000853731F4232D2F7EB22E2AE030E025C035
:101EF000932D997FB92E8F36C1F018F4883579F07B
:101F0000AEC0803719F0883721F0A9C0E92FE06111
:101F1000BE2EB4FE0DC0FB2DF460BF2E09C034FEF2
:101F20000AC0292F2660B22E06C028E030E005C086
:101F300020E130E002C020E132E0F801B7FE07C046
:101F400060817181828193810C5F1F4F06C0608127
:101F5000718180E090E00E5F1F4FA301F1D0882EC9
:101F60008618FB2DFF773F2E36FE0DC0232D2E7FCA
:101F7000A22E891458F434FE0BC032FC09C0832D04
:101F80008E7EA82E05C0B82CA32C03C0B82C01C08F
:101F9000B92CA4FE0FC0FE01E80DF11D8081803335
:101FA00021F49A2D997EA92E09C0A2FE06C0B394F1
:101FB000B39404C08A2D867809F0B394A3FC10C0B2
:101FC000A0FE06C0B21480F4280C922C9B180DC001
:101FD000B21458F4B60180E290E076D0B394F8CF12
:101FE000B21418F42B1802C0982C212CA4FE0FC098
:101FF000B60180E390E068D0A2FE16C0A1FC03C049
:1020000088E790E002C088E590E0B6010CC08A2D18
:10201000867851F0A1FE02C08BE201C080E2A7FCED
:102020008DE2B60190E050D0891430F4B60180E31F
:1020300090E04AD09A94F8CF8A94F301E80DF11D0C
:102040008081B60190E040D08110F6CF222009F4C3
:102050004ECEB60180E290E037D02A94F7CFF60159
:102060008681978102C08FEF9FEF2B960FB6F89471
:10207000DEBF0FBECDBFDF91CF911F910F91FF90BB
:10208000EF90DF90CF90BF90AF909F908F907F9018
:102090006F905F904F903F902F900895FC010590B6
:1020A000615070400110D8F7809590958E0F9F1F5A
:1020B0000895FC016150704001900110D8F780959F
:1020C00090958E0F9F1F08950F931F93CF93DF93CB
:1020D000FB01238121FD03C08FEF9FEF2CC022FF66
:1020E00016C046815781248135814217530744F435
:1020F000A081B1819D012F5F3F4F318320838C935D
:10210000268137812F5F3F4F3783268314C08B0191
:10211000EC01FB010084F185E02D1995892BE1F696
:10212000D80116968D919C911797019617969C93BE
:102130008E931697CE01DF91CF911F910F91089545
:10214000FA01AA27283051F1203181F1E8946F93E8
:102150006E7F6E5F7F4F8F4F9F4FAF4FB1E03ED08E
:10216000B4E03CD0670F781F891F9A1FA11D680F2C
:10217000791F8A1F911DA11D6A0F711D811D911D5F
:10218000A11D20D009F468943F912AE0269F1124D4
:102190003019305D3193DEF6CF010895462F477038
:1021A000405D4193B3E00FD0C9F7F6CF462F4F7093
:1021B000405D4A3318F0495D31FD4052419302D0F1
:1021C000A9F7EACFB4E0A695979587957795679597
:1021D000BA95C9F700976105710508959B01AC0197
:1021E0000A2E06945795479537952795BA95C9F7BE
:1021F000620F731F841F951FA01D0895F894FFCFD1
:1022000000008103200000400040C600CE00D60040
:102210003601F8FF0186000000000079FF0179A077
:1022200000000000E6FF0179000000000086FF01C9
:1022300087000000000078FF018800000000000017
:10224000536F6D657468696E672057726F6E6700B3
:10225000496E697469616C697A6174696F6E206F27
:10226000662068756D2074656D702073656E736F80
:102270007273004552524F522057616B6575700062
:102280004552524F52206D656173737572650065DA
:1022900072726F723A2068756D6964697479213D54
:1022A00031303230006572726F723A2074656D7031
:1022B00065726174757265213D3234006572726FAA
:1022C000722C2074656D702076616C757420213DD0
:1022D00020636F3253656E736F725F67657456610A
:1022E0006C756528290054657374732072756E3A95
:1022F0002025640A00414C4C20544553545320502F
:0623000041535345440067
:00000001FF
